{
  "address": "0xbcB4Ed6cC2dfa99FEF06015D88dd4b0aC9E6ED31",
  "abi": [
    {
      "inputs": [
        {
          "internalType": "address",
          "name": "_manager",
          "type": "address"
        }
      ],
      "stateMutability": "nonpayable",
      "type": "constructor"
    },
    {
      "inputs": [
        {
          "internalType": "address",
          "name": "token",
          "type": "address"
        }
      ],
      "name": "tokens",
      "outputs": [
        {
          "internalType": "address",
          "name": "",
          "type": "address"
        },
        {
          "internalType": "address",
          "name": "",
          "type": "address"
        }
      ],
      "stateMutability": "view",
      "type": "function"
    }
  ],
  "transactionHash": "0xf8eef4b5ee015890b7a3611ca372ee873086a1eb958d42b8dde39a202c3928d8",
  "args": [
    "0x7FEF01ADEFc2Ce6597E98a4D6B1E0Cd30533356f"
  ],
  "numDeployments": 1,
  "solcInputHash": "ed08753924caaf985cafa62d05fe8ca3",
  "bytecode": "0x608060405234801561001057600080fd5b506040516101a23803806101a283398101604081905261002f91610054565b600080546001600160a01b0319166001600160a01b0392909216919091179055610084565b60006020828403121561006657600080fd5b81516001600160a01b038116811461007d57600080fd5b9392505050565b61010f806100936000396000f3fe6080604052348015600f57600080fd5b506004361060285760003560e01c8063e486033914602d575b600080fd5b606d6038366004609e565b50600054738626f6940e2eb28930efb4cef49b2d1f2c9c11999173ffffffffffffffffffffffffffffffffffffffff90911690565b6040805173ffffffffffffffffffffffffffffffffffffffff93841681529290911660208301520160405180910390f35b60006020828403121560af57600080fd5b813573ffffffffffffffffffffffffffffffffffffffff8116811460d257600080fd5b939250505056fea26469706673582212201a6425177eae8a00c77380e7ef13bf075e831c0a33ecd5033b9041587bf5ee4b64736f6c63430008090033",
  "devdoc": {
    "kind": "dev",
    "methods": {
      "tokens(address)": {
        "details": "Returns the market address of the token",
        "returns": {
          "_0": "The market address"
        }
      }
    },
    "version": 1
  },
  "userdoc": {
    "kind": "user",
    "methods": {},
    "version": 1
  },
  "storageLayout": {
    "storage": [
      {
        "astId": 3841,
        "contract": "src/GreetingsRegistry/MarketRegistry.sol:MarketRegistry",
        "label": "manager",
        "offset": 0,
        "slot": "0",
        "type": "t_address"
      }
    ],
    "types": {
      "t_address": {
        "encoding": "inplace",
        "label": "address",
        "numberOfBytes": "20"
      }
    }
  }
}