{
  "address": "0xeC40Ae2f4785A200D6F43A296202FB7D265F9dC2",
  "abi": [
    {
      "inputs": [
        {
          "internalType": "address",
          "name": "_marketRegistry",
          "type": "address"
        },
        {
          "internalType": "address",
          "name": "_unionToken",
          "type": "address"
        },
        {
          "internalType": "address",
          "name": "_underlyingToken",
          "type": "address"
        }
      ],
      "stateMutability": "nonpayable",
      "type": "constructor"
    },
    {
      "anonymous": false,
      "inputs": [
        {
          "indexed": false,
          "internalType": "uint256",
          "name": "_index",
          "type": "uint256"
        },
        {
          "components": [
            {
              "internalType": "string",
              "name": "name",
              "type": "string"
            },
            {
              "internalType": "string",
              "name": "description",
              "type": "string"
            },
            {
              "internalType": "uint256",
              "name": "buyPrice",
              "type": "uint256"
            },
            {
              "internalType": "uint256",
              "name": "sellPrice",
              "type": "uint256"
            }
          ],
          "indexed": false,
          "internalType": "struct UnionQuestCore.ItemType",
          "name": "_itemType",
          "type": "tuple"
        }
      ],
      "name": "AddItemType",
      "type": "event"
    },
    {
      "anonymous": false,
      "inputs": [
        {
          "indexed": false,
          "internalType": "uint256",
          "name": "_x",
          "type": "uint256"
        },
        {
          "indexed": false,
          "internalType": "uint256",
          "name": "_y",
          "type": "uint256"
        },
        {
          "components": [
            {
              "internalType": "string",
              "name": "name",
              "type": "string"
            },
            {
              "internalType": "string",
              "name": "description",
              "type": "string"
            },
            {
              "internalType": "contract UnionQuestVillage",
              "name": "member",
              "type": "address"
            }
          ],
          "indexed": false,
          "internalType": "struct UnionQuestCore.Village",
          "name": "_village",
          "type": "tuple"
        }
      ],
      "name": "AddVillage",
      "type": "event"
    },
    {
      "anonymous": false,
      "inputs": [
        {
          "indexed": true,
          "internalType": "address",
          "name": "account",
          "type": "address"
        },
        {
          "indexed": true,
          "internalType": "address",
          "name": "operator",
          "type": "address"
        },
        {
          "indexed": false,
          "internalType": "bool",
          "name": "approved",
          "type": "bool"
        }
      ],
      "name": "ApprovalForAll",
      "type": "event"
    },
    {
      "anonymous": false,
      "inputs": [
        {
          "indexed": false,
          "internalType": "address",
          "name": "_address",
          "type": "address"
        },
        {
          "components": [
            {
              "internalType": "uint256",
              "name": "x",
              "type": "uint256"
            },
            {
              "internalType": "uint256",
              "name": "y",
              "type": "uint256"
            },
            {
              "internalType": "uint256",
              "name": "arrivalTime",
              "type": "uint256"
            }
          ],
          "indexed": false,
          "internalType": "struct UnionQuestCore.Player",
          "name": "_player",
          "type": "tuple"
        }
      ],
      "name": "BeginMove",
      "type": "event"
    },
    {
      "anonymous": false,
      "inputs": [
        {
          "indexed": false,
          "internalType": "address",
          "name": "_address",
          "type": "address"
        },
        {
          "components": [
            {
              "internalType": "uint256",
              "name": "x",
              "type": "uint256"
            },
            {
              "internalType": "uint256",
              "name": "y",
              "type": "uint256"
            },
            {
              "internalType": "uint256",
              "name": "arrivalTime",
              "type": "uint256"
            }
          ],
          "indexed": false,
          "internalType": "struct UnionQuestCore.Player",
          "name": "_player",
          "type": "tuple"
        }
      ],
      "name": "ResolveMove",
      "type": "event"
    },
    {
      "anonymous": false,
      "inputs": [
        {
          "indexed": true,
          "internalType": "bytes32",
          "name": "role",
          "type": "bytes32"
        },
        {
          "indexed": true,
          "internalType": "bytes32",
          "name": "previousAdminRole",
          "type": "bytes32"
        },
        {
          "indexed": true,
          "internalType": "bytes32",
          "name": "newAdminRole",
          "type": "bytes32"
        }
      ],
      "name": "RoleAdminChanged",
      "type": "event"
    },
    {
      "anonymous": false,
      "inputs": [
        {
          "indexed": true,
          "internalType": "bytes32",
          "name": "role",
          "type": "bytes32"
        },
        {
          "indexed": true,
          "internalType": "address",
          "name": "account",
          "type": "address"
        },
        {
          "indexed": true,
          "internalType": "address",
          "name": "sender",
          "type": "address"
        }
      ],
      "name": "RoleGranted",
      "type": "event"
    },
    {
      "anonymous": false,
      "inputs": [
        {
          "indexed": true,
          "internalType": "bytes32",
          "name": "role",
          "type": "bytes32"
        },
        {
          "indexed": true,
          "internalType": "address",
          "name": "account",
          "type": "address"
        },
        {
          "indexed": true,
          "internalType": "address",
          "name": "sender",
          "type": "address"
        }
      ],
      "name": "RoleRevoked",
      "type": "event"
    },
    {
      "anonymous": false,
      "inputs": [
        {
          "indexed": false,
          "internalType": "address",
          "name": "_address",
          "type": "address"
        },
        {
          "components": [
            {
              "internalType": "uint256",
              "name": "x",
              "type": "uint256"
            },
            {
              "internalType": "uint256",
              "name": "y",
              "type": "uint256"
            },
            {
              "internalType": "uint256",
              "name": "arrivalTime",
              "type": "uint256"
            }
          ],
          "indexed": false,
          "internalType": "struct UnionQuestCore.Player",
          "name": "_player",
          "type": "tuple"
        }
      ],
      "name": "Start",
      "type": "event"
    },
    {
      "anonymous": false,
      "inputs": [
        {
          "indexed": true,
          "internalType": "address",
          "name": "operator",
          "type": "address"
        },
        {
          "indexed": true,
          "internalType": "address",
          "name": "from",
          "type": "address"
        },
        {
          "indexed": true,
          "internalType": "address",
          "name": "to",
          "type": "address"
        },
        {
          "indexed": false,
          "internalType": "uint256[]",
          "name": "ids",
          "type": "uint256[]"
        },
        {
          "indexed": false,
          "internalType": "uint256[]",
          "name": "values",
          "type": "uint256[]"
        }
      ],
      "name": "TransferBatch",
      "type": "event"
    },
    {
      "anonymous": false,
      "inputs": [
        {
          "indexed": true,
          "internalType": "address",
          "name": "operator",
          "type": "address"
        },
        {
          "indexed": true,
          "internalType": "address",
          "name": "from",
          "type": "address"
        },
        {
          "indexed": true,
          "internalType": "address",
          "name": "to",
          "type": "address"
        },
        {
          "indexed": false,
          "internalType": "uint256",
          "name": "id",
          "type": "uint256"
        },
        {
          "indexed": false,
          "internalType": "uint256",
          "name": "value",
          "type": "uint256"
        }
      ],
      "name": "TransferSingle",
      "type": "event"
    },
    {
      "anonymous": false,
      "inputs": [
        {
          "indexed": false,
          "internalType": "string",
          "name": "value",
          "type": "string"
        },
        {
          "indexed": true,
          "internalType": "uint256",
          "name": "id",
          "type": "uint256"
        }
      ],
      "name": "URI",
      "type": "event"
    },
    {
      "inputs": [],
      "name": "DEFAULT_ADMIN_ROLE",
      "outputs": [
        {
          "internalType": "bytes32",
          "name": "",
          "type": "bytes32"
        }
      ],
      "stateMutability": "view",
      "type": "function"
    },
    {
      "inputs": [
        {
          "components": [
            {
              "internalType": "string",
              "name": "name",
              "type": "string"
            },
            {
              "internalType": "string",
              "name": "description",
              "type": "string"
            },
            {
              "internalType": "uint256",
              "name": "buyPrice",
              "type": "uint256"
            },
            {
              "internalType": "uint256",
              "name": "sellPrice",
              "type": "uint256"
            }
          ],
          "internalType": "struct UnionQuestCore.ItemType[]",
          "name": "_itemTypes",
          "type": "tuple[]"
        }
      ],
      "name": "addItemTypes",
      "outputs": [],
      "stateMutability": "nonpayable",
      "type": "function"
    },
    {
      "inputs": [
        {
          "internalType": "address",
          "name": "account",
          "type": "address"
        },
        {
          "internalType": "uint256",
          "name": "id",
          "type": "uint256"
        }
      ],
      "name": "balanceOf",
      "outputs": [
        {
          "internalType": "uint256",
          "name": "",
          "type": "uint256"
        }
      ],
      "stateMutability": "view",
      "type": "function"
    },
    {
      "inputs": [
        {
          "internalType": "address[]",
          "name": "accounts",
          "type": "address[]"
        },
        {
          "internalType": "uint256[]",
          "name": "ids",
          "type": "uint256[]"
        }
      ],
      "name": "balanceOfBatch",
      "outputs": [
        {
          "internalType": "uint256[]",
          "name": "",
          "type": "uint256[]"
        }
      ],
      "stateMutability": "view",
      "type": "function"
    },
    {
      "inputs": [
        {
          "internalType": "uint256",
          "name": "x",
          "type": "uint256"
        },
        {
          "internalType": "uint256",
          "name": "y",
          "type": "uint256"
        }
      ],
      "name": "beginMove",
      "outputs": [],
      "stateMutability": "nonpayable",
      "type": "function"
    },
    {
      "inputs": [
        {
          "internalType": "address",
          "name": "account",
          "type": "address"
        },
        {
          "internalType": "uint256",
          "name": "id",
          "type": "uint256"
        },
        {
          "internalType": "uint256",
          "name": "value",
          "type": "uint256"
        }
      ],
      "name": "burn",
      "outputs": [],
      "stateMutability": "nonpayable",
      "type": "function"
    },
    {
      "inputs": [
        {
          "internalType": "address",
          "name": "account",
          "type": "address"
        },
        {
          "internalType": "uint256[]",
          "name": "ids",
          "type": "uint256[]"
        },
        {
          "internalType": "uint256[]",
          "name": "values",
          "type": "uint256[]"
        }
      ],
      "name": "burnBatch",
      "outputs": [],
      "stateMutability": "nonpayable",
      "type": "function"
    },
    {
      "inputs": [
        {
          "internalType": "uint256",
          "name": "id",
          "type": "uint256"
        },
        {
          "internalType": "uint256",
          "name": "amount",
          "type": "uint256"
        },
        {
          "internalType": "bytes",
          "name": "data",
          "type": "bytes"
        }
      ],
      "name": "buyItem",
      "outputs": [],
      "stateMutability": "nonpayable",
      "type": "function"
    },
    {
      "inputs": [
        {
          "internalType": "uint256",
          "name": "x",
          "type": "uint256"
        },
        {
          "internalType": "uint256",
          "name": "y",
          "type": "uint256"
        },
        {
          "internalType": "string",
          "name": "name",
          "type": "string"
        },
        {
          "internalType": "string",
          "name": "description",
          "type": "string"
        }
      ],
      "name": "createVillage",
      "outputs": [],
      "stateMutability": "nonpayable",
      "type": "function"
    },
    {
      "inputs": [],
      "name": "fight",
      "outputs": [],
      "stateMutability": "nonpayable",
      "type": "function"
    },
    {
      "inputs": [
        {
          "internalType": "bytes32",
          "name": "role",
          "type": "bytes32"
        }
      ],
      "name": "getRoleAdmin",
      "outputs": [
        {
          "internalType": "bytes32",
          "name": "",
          "type": "bytes32"
        }
      ],
      "stateMutability": "view",
      "type": "function"
    },
    {
      "inputs": [
        {
          "internalType": "bytes32",
          "name": "role",
          "type": "bytes32"
        },
        {
          "internalType": "address",
          "name": "account",
          "type": "address"
        }
      ],
      "name": "grantRole",
      "outputs": [],
      "stateMutability": "nonpayable",
      "type": "function"
    },
    {
      "inputs": [
        {
          "internalType": "bytes32",
          "name": "role",
          "type": "bytes32"
        },
        {
          "internalType": "address",
          "name": "account",
          "type": "address"
        }
      ],
      "name": "hasRole",
      "outputs": [
        {
          "internalType": "bool",
          "name": "",
          "type": "bool"
        }
      ],
      "stateMutability": "view",
      "type": "function"
    },
    {
      "inputs": [
        {
          "internalType": "address",
          "name": "account",
          "type": "address"
        },
        {
          "internalType": "address",
          "name": "operator",
          "type": "address"
        }
      ],
      "name": "isApprovedForAll",
      "outputs": [
        {
          "internalType": "bool",
          "name": "",
          "type": "bool"
        }
      ],
      "stateMutability": "view",
      "type": "function"
    },
    {
      "inputs": [
        {
          "internalType": "bytes32",
          "name": "role",
          "type": "bytes32"
        },
        {
          "internalType": "address",
          "name": "account",
          "type": "address"
        }
      ],
      "name": "renounceRole",
      "outputs": [],
      "stateMutability": "nonpayable",
      "type": "function"
    },
    {
      "inputs": [],
      "name": "resolveMove",
      "outputs": [],
      "stateMutability": "nonpayable",
      "type": "function"
    },
    {
      "inputs": [
        {
          "internalType": "bytes32",
          "name": "role",
          "type": "bytes32"
        },
        {
          "internalType": "address",
          "name": "account",
          "type": "address"
        }
      ],
      "name": "revokeRole",
      "outputs": [],
      "stateMutability": "nonpayable",
      "type": "function"
    },
    {
      "inputs": [
        {
          "internalType": "address",
          "name": "from",
          "type": "address"
        },
        {
          "internalType": "address",
          "name": "to",
          "type": "address"
        },
        {
          "internalType": "uint256[]",
          "name": "ids",
          "type": "uint256[]"
        },
        {
          "internalType": "uint256[]",
          "name": "amounts",
          "type": "uint256[]"
        },
        {
          "internalType": "bytes",
          "name": "data",
          "type": "bytes"
        }
      ],
      "name": "safeBatchTransferFrom",
      "outputs": [],
      "stateMutability": "nonpayable",
      "type": "function"
    },
    {
      "inputs": [
        {
          "internalType": "address",
          "name": "from",
          "type": "address"
        },
        {
          "internalType": "address",
          "name": "to",
          "type": "address"
        },
        {
          "internalType": "uint256",
          "name": "id",
          "type": "uint256"
        },
        {
          "internalType": "uint256",
          "name": "amount",
          "type": "uint256"
        },
        {
          "internalType": "bytes",
          "name": "data",
          "type": "bytes"
        }
      ],
      "name": "safeTransferFrom",
      "outputs": [],
      "stateMutability": "nonpayable",
      "type": "function"
    },
    {
      "inputs": [
        {
          "internalType": "address",
          "name": "operator",
          "type": "address"
        },
        {
          "internalType": "bool",
          "name": "approved",
          "type": "bool"
        }
      ],
      "name": "setApprovalForAll",
      "outputs": [],
      "stateMutability": "nonpayable",
      "type": "function"
    },
    {
      "inputs": [],
      "name": "start",
      "outputs": [],
      "stateMutability": "nonpayable",
      "type": "function"
    },
    {
      "inputs": [
        {
          "internalType": "bytes4",
          "name": "interfaceId",
          "type": "bytes4"
        }
      ],
      "name": "supportsInterface",
      "outputs": [
        {
          "internalType": "bool",
          "name": "",
          "type": "bool"
        }
      ],
      "stateMutability": "view",
      "type": "function"
    },
    {
      "inputs": [
        {
          "internalType": "uint256",
          "name": "",
          "type": "uint256"
        }
      ],
      "name": "uri",
      "outputs": [
        {
          "internalType": "string",
          "name": "",
          "type": "string"
        }
      ],
      "stateMutability": "view",
      "type": "function"
    }
  ],
  "transactionHash": "0x3482bbbfbd0d52f7c9c3a0cfb0378f5883527cb7ed0bb52ecc4e2350d1e68f60",
  "args": [
    "0xbcB4Ed6cC2dfa99FEF06015D88dd4b0aC9E6ED31",
    "0x08AF898e65493D8212c8981FAdF60Ff023A91150",
    "0xe96FE7538e5d11bbe313481Ab2aAc2171c3815fa"
  ],
  "numDeployments": 1,
  "solcInputHash": "ed08753924caaf985cafa62d05fe8ca3",
  "bytecode": "0x60806040523480156200001157600080fd5b506040516200562c3803806200562c833981016040819052620000349162000222565b6040805160208101909152600081526200004e81620000a2565b50600480546001600160a01b038086166001600160a01b03199283161790925560058054858416908316179055600680549284169290911691909117905562000099600033620000bb565b505050620002a9565b8051620000b79060029060208401906200015f565b5050565b60008281526003602090815260408083206001600160a01b038516845290915290205460ff16620000b75760008281526003602090815260408083206001600160a01b03851684529091529020805460ff191660011790556200011b3390565b6001600160a01b0316816001600160a01b0316837f2f8788117e7eff1d82e926ec794901d17c78024a50270940304540a733656f0d60405160405180910390a45050565b8280546200016d906200026c565b90600052602060002090601f016020900481019282620001915760008555620001dc565b82601f10620001ac57805160ff1916838001178555620001dc565b82800160010185558215620001dc579182015b82811115620001dc578251825591602001919060010190620001bf565b50620001ea929150620001ee565b5090565b5b80821115620001ea5760008155600101620001ef565b80516001600160a01b03811681146200021d57600080fd5b919050565b6000806000606084860312156200023857600080fd5b620002438462000205565b9250620002536020850162000205565b9150620002636040850162000205565b90509250925092565b600181811c908216806200028157607f821691505b60208210811415620002a357634e487b7160e01b600052602260045260246000fd5b50919050565b61537380620002b96000396000f3fe60806040523480156200001157600080fd5b5060043610620001ac5760003560e01c80634e1273f411620000f5578063d547741f1162000097578063eaa6e988116200006e578063eaa6e988146200040f578063f242432a1462000419578063f5298aca146200043057600080fd5b8063d547741f1462000395578063dd32291e14620003ac578063e985e9c514620003c357600080fd5b8063a217fddf11620000cc578063a217fddf146200036b578063a22cb4651462000374578063be9a6555146200038b57600080fd5b80634e1273f414620002e55780636b20c454146200030b57806391d14854146200032257600080fd5b8063248a9ca3116200015f5780633237c11811620001365780633237c11814620002ad57806336568abe14620002c4578063457df8de14620002db57600080fd5b8063248a9ca314620002595780632eb2c2d6146200027f5780632f2ff15d146200029657600080fd5b806308442f0f116200019457806308442f0f14620002035780630e89341c146200021c57806321bd4fea146200024257600080fd5b8062fdd58e14620001b157806301ffc9a714620001db575b600080fd5b620001c8620001c236600462002f31565b62000447565b6040519081526020015b60405180910390f35b620001f2620001ec36600462002f90565b62000525565b6040519015158152602001620001d2565b6200021a6200021436600462002ffc565b62000538565b005b620002336200022d36600462003086565b62000690565b604051620001d291906200311f565b6200021a620002533660046200329a565b6200072c565b620001c86200026a36600462003086565b60009081526003602052604090206001015490565b6200021a6200029036600462003472565b6200084d565b6200021a620002a73660046200352a565b6200091d565b6200021a620002be36600462003559565b62000947565b6200021a620002d53660046200352a565b62000c07565b6200021a62000cbe565b620002fc620002f6366004620035ad565b62000ed2565b604051620001d29190620036c4565b6200021a6200031c366004620036d9565b6200103f565b620001f2620003333660046200352a565b600091825260036020908152604080842073ffffffffffffffffffffffffffffffffffffffff93909316845291905290205460ff1690565b620001c8600081565b6200021a620003853660046200375b565b62001106565b6200021a62001113565b6200021a620003a63660046200352a565b6200115f565b6200021a620003bd36600462003797565b62001189565b620001f2620003d4366004620037ba565b73ffffffffffffffffffffffffffffffffffffffff918216600090815260016020908152604080832093909416825291909152205460ff1690565b6200021a620012dc565b6200021a6200042a366004620037e9565b620013a0565b6200021a6200044136600462003856565b62001469565b600073ffffffffffffffffffffffffffffffffffffffff8316620004f2576040517f08c379a000000000000000000000000000000000000000000000000000000000815260206004820152602b60248201527f455243313135353a2062616c616e636520717565727920666f7220746865207a60448201527f65726f206164647265737300000000000000000000000000000000000000000060648201526084015b60405180910390fd5b5060009081526020818152604080832073ffffffffffffffffffffffffffffffffffffffff949094168352929052205490565b6000620005328262001530565b92915050565b600062000546813362001589565b6000878152600a6020908152604080832089845290915290206200056c81878762002db8565b506200057d60018201858562002db8565b5060045460055460065460405173ffffffffffffffffffffffffffffffffffffffff938416939283169290911690620005b69062002e65565b73ffffffffffffffffffffffffffffffffffffffff938416815291831660208301529091166040820152606001604051809103906000f08015801562000600573d6000803e3d6000fd5b506002820180547fffffffffffffffffffffffff00000000000000000000000000000000000000001673ffffffffffffffffffffffffffffffffffffffff929092169190911790556040517f4d12add3655c69fea82629afabe2553d79df959c03e8f3d821e0b018bbaf12d2906200067e908a908a908590620039c1565b60405180910390a15050505050505050565b606060028054620006a1906200388c565b80601f0160208091040260200160405190810160405280929190818152602001828054620006cf906200388c565b8015620007205780601f10620006f45761010080835404028352916020019162000720565b820191906000526020600020905b8154815290600101906020018083116200070257829003601f168201915b50505050509050919050565b60006200073a813362001589565b60005b8251811015620008485760078382815181106200075e576200075e62003a4f565b602090810291909101810151825460018101845560009384529282902081518051929460040290910192620007999284929091019062002e73565b506020828101518051620007b4926001850192019062002e73565b50604082015160028201556060909101516003909101556007547f472519dff5695dc04989f8e1fb8c1a37f9738b62d155fe50afab1b40fd909add90620007fe9060019062003aad565b84838151811062000813576200081362003a4f565b60200260200101516040516200082b92919062003ac7565b60405180910390a1806200083f8162003b4a565b9150506200073d565b505050565b73ffffffffffffffffffffffffffffffffffffffff8516331480620008795750620008798533620003d4565b62000907576040517f08c379a000000000000000000000000000000000000000000000000000000000815260206004820152603260248201527f455243313135353a207472616e736665722063616c6c6572206973206e6f742060448201527f6f776e6572206e6f7220617070726f76656400000000000000000000000000006064820152608401620004e9565b62000916858585858562001664565b5050505050565b6000828152600360205260409020600101546200093b813362001589565b620008488383620019b4565b336000908152600860205260409020600281015415620009c4576040517f08c379a000000000000000000000000000000000000000000000000000000000815260206004820152601160248201527f506c61796572206973206d6f76696e672e0000000000000000000000000000006044820152606401620004e9565b80546000908152600a602090815260408083206001850154845290915290206002015473ffffffffffffffffffffffffffffffffffffffff1662000a65576040517f08c379a000000000000000000000000000000000000000000000000000000000815260206004820152601960248201527f506c61796572206973206e6f7420696e2076696c6c6167652e000000000000006044820152606401620004e9565b6000836007868154811062000a7e5762000a7e62003a4f565b90600052602060002090600402016002015462000a9c919062003b86565b6006546040517f23b872dd0000000000000000000000000000000000000000000000000000000081523360048201523060248201526044810183905291925073ffffffffffffffffffffffffffffffffffffffff16906323b872dd90606401602060405180830381600087803b15801562000b1657600080fd5b505af115801562000b2b573d6000803e3d6000fd5b505050506040513d601f19601f8201168201806040525081019062000b51919062003bc6565b5081546000908152600a6020908152604080832060018601548452909152908190206002015490517fa694fc3a0000000000000000000000000000000000000000000000000000000081526004810183905273ffffffffffffffffffffffffffffffffffffffff9091169063a694fc3a90602401600060405180830381600087803b15801562000be057600080fd5b505af115801562000bf5573d6000803e3d6000fd5b50505050620009163386868662001aaa565b73ffffffffffffffffffffffffffffffffffffffff8116331462000cae576040517f08c379a000000000000000000000000000000000000000000000000000000000815260206004820152602f60248201527f416363657373436f6e74726f6c3a2063616e206f6e6c792072656e6f756e636560448201527f20726f6c657320666f722073656c6600000000000000000000000000000000006064820152608401620004e9565b62000cba828262001c1c565b5050565b33600090815260086020526040902060028101541562000d3b576040517f08c379a000000000000000000000000000000000000000000000000000000000815260206004820152601160248201527f506c61796572206973206d6f76696e672e0000000000000000000000000000006044820152606401620004e9565b80546000908152600a602090815260408083206001850154845290915290206002015473ffffffffffffffffffffffffffffffffffffffff1662000ddc576040517f08c379a000000000000000000000000000000000000000000000000000000000815260206004820152601960248201527f506c61796572206973206e6f7420696e2076696c6c6167652e000000000000006044820152606401620004e9565b8054600090815260096020908152604080832060018581015485529252822080549192909162000e0e90849062003be6565b909155505080546000818152600a6020908152604080832060018601548085529083528184206002015494845260098352818420908452909152908190205490517f43fbb8f5000000000000000000000000000000000000000000000000000000008152336004820152602481019190915273ffffffffffffffffffffffffffffffffffffffff909116906343fbb8f590604401600060405180830381600087803b15801562000ebd57600080fd5b505af115801562000916573d6000803e3d6000fd5b6060815183511462000f67576040517f08c379a000000000000000000000000000000000000000000000000000000000815260206004820152602960248201527f455243313135353a206163636f756e747320616e6420696473206c656e67746860448201527f206d69736d6174636800000000000000000000000000000000000000000000006064820152608401620004e9565b6000835167ffffffffffffffff81111562000f865762000f8662003134565b60405190808252806020026020018201604052801562000fb0578160200160208202803683370190505b50905060005b845181101562001037576200100485828151811062000fd95762000fd962003a4f565b602002602001015185838151811062000ff65762000ff662003a4f565b602002602001015162000447565b82828151811062001019576200101962003a4f565b60209081029190910101526200102f8162003b4a565b905062000fb6565b509392505050565b73ffffffffffffffffffffffffffffffffffffffff83163314806200106b57506200106b8333620003d4565b620010f9576040517f08c379a000000000000000000000000000000000000000000000000000000000815260206004820152602960248201527f455243313135353a2063616c6c6572206973206e6f74206f776e6572206e6f7260448201527f20617070726f76656400000000000000000000000000000000000000000000006064820152608401620004e9565b6200084883838362001cd8565b62000cba33838362002003565b336000818152600860205260409081902090517fe33723368cd4c5c1a8d12c78cb7d2e1e5230063e522f41a4f7a28b5edc816465926200115592909162003c01565b60405180910390a1565b6000828152600360205260409020600101546200117d813362001589565b62000848838362001c1c565b33600090815260086020526040902060028101541562001206576040517f08c379a000000000000000000000000000000000000000000000000000000000815260206004820152601960248201527f506c6179657220697320616c7265616479206d6f76696e672e000000000000006044820152606401620004e9565b806001015482116200122a5781816001015462001224919062003aad565b6200123b565b60018101546200123b908362003aad565b81548411620012595781546200125390859062003aad565b62001267565b815462001267908562003aad565b62001273919062003be6565b6200128090600262003b86565b6200128c904262003be6565b6002820155828155600181018290556040517f81a31e27718c27714c262be784dbe47014731c2f43156f35077950870607ba1a90620012cf903390849062003c01565b60405180910390a1505050565b336000908152600860205260409020600281015442116200135a576040517f08c379a000000000000000000000000000000000000000000000000000000000815260206004820152601f60248201527f506c61796572206a6f75726e6579206973206e6f7420636f6d706c6574652e006044820152606401620004e9565b600060028201556040517f627e983a1686b1ce6766d4b9bae45f986d6fd8c7b831f65f19e2a3fe777d07ed9062001395903390849062003c01565b60405180910390a150565b73ffffffffffffffffffffffffffffffffffffffff8516331480620013cc5750620013cc8533620003d4565b6200145a576040517f08c379a000000000000000000000000000000000000000000000000000000000815260206004820152602960248201527f455243313135353a2063616c6c6572206973206e6f74206f776e6572206e6f7260448201527f20617070726f76656400000000000000000000000000000000000000000000006064820152608401620004e9565b62000916858585858562002159565b73ffffffffffffffffffffffffffffffffffffffff8316331480620014955750620014958333620003d4565b62001523576040517f08c379a000000000000000000000000000000000000000000000000000000000815260206004820152602960248201527f455243313135353a2063616c6c6572206973206e6f74206f776e6572206e6f7260448201527f20617070726f76656400000000000000000000000000000000000000000000006064820152608401620004e9565b6200084883838362002395565b60007fffffffff0000000000000000000000000000000000000000000000000000000082167f7965db0b0000000000000000000000000000000000000000000000000000000014806200053257506200053282620025a6565b600082815260036020908152604080832073ffffffffffffffffffffffffffffffffffffffff8516845290915290205460ff1662000cba57620015e48173ffffffffffffffffffffffffffffffffffffffff1660146200268c565b620015f18360206200268c565b6040516020016200160492919062003c3f565b604080517fffffffffffffffffffffffffffffffffffffffffffffffffffffffffffffffe0818403018152908290527f08c379a0000000000000000000000000000000000000000000000000000000008252620004e9916004016200311f565b8151835114620016f7576040517f08c379a000000000000000000000000000000000000000000000000000000000815260206004820152602860248201527f455243313135353a2069647320616e6420616d6f756e7473206c656e6774682060448201527f6d69736d617463680000000000000000000000000000000000000000000000006064820152608401620004e9565b73ffffffffffffffffffffffffffffffffffffffff84166200179c576040517f08c379a000000000000000000000000000000000000000000000000000000000815260206004820152602560248201527f455243313135353a207472616e7366657220746f20746865207a65726f20616460448201527f64726573730000000000000000000000000000000000000000000000000000006064820152608401620004e9565b3360005b84518110156200191b576000858281518110620017c157620017c162003a4f565b602002602001015190506000858381518110620017e257620017e262003a4f565b6020908102919091018101516000848152808352604080822073ffffffffffffffffffffffffffffffffffffffff8e168352909352919091205490915081811015620018b1576040517f08c379a000000000000000000000000000000000000000000000000000000000815260206004820152602a60248201527f455243313135353a20696e73756666696369656e742062616c616e636520666f60448201527f72207472616e73666572000000000000000000000000000000000000000000006064820152608401620004e9565b60008381526020818152604080832073ffffffffffffffffffffffffffffffffffffffff8e8116855292528083208585039055908b16825281208054849290620018fd90849062003be6565b9250508190555050505080620019139062003b4a565b9050620017a0565b508473ffffffffffffffffffffffffffffffffffffffff168673ffffffffffffffffffffffffffffffffffffffff168273ffffffffffffffffffffffffffffffffffffffff167f4a39dc06d4c0dbc64b70af90fd698a233a518aa5d07e595d983b8c0526c8f7fb87876040516200199492919062003cc4565b60405180910390a4620019ac818787878787620028f4565b505050505050565b600082815260036020908152604080832073ffffffffffffffffffffffffffffffffffffffff8516845290915290205460ff1662000cba57600082815260036020908152604080832073ffffffffffffffffffffffffffffffffffffffff85168452909152902080547fffffffffffffffffffffffffffffffffffffffffffffffffffffffffffffff0016600117905562001a4c3390565b73ffffffffffffffffffffffffffffffffffffffff168173ffffffffffffffffffffffffffffffffffffffff16837f2f8788117e7eff1d82e926ec794901d17c78024a50270940304540a733656f0d60405160405180910390a45050565b73ffffffffffffffffffffffffffffffffffffffff841662001b4f576040517f08c379a000000000000000000000000000000000000000000000000000000000815260206004820152602160248201527f455243313135353a206d696e7420746f20746865207a65726f2061646472657360448201527f73000000000000000000000000000000000000000000000000000000000000006064820152608401620004e9565b3362001b6e8160008762001b638862002ba2565b620009168862002ba2565b60008481526020818152604080832073ffffffffffffffffffffffffffffffffffffffff891684529091528120805485929062001bad90849062003be6565b9091555050604080518581526020810185905273ffffffffffffffffffffffffffffffffffffffff80881692600092918516917fc3d58168c5ae7397731d063d5bbf3d657854427343f4c083240f7aacaa2d0f62910160405180910390a4620009168160008787878762002bf0565b600082815260036020908152604080832073ffffffffffffffffffffffffffffffffffffffff8516845290915290205460ff161562000cba57600082815260036020908152604080832073ffffffffffffffffffffffffffffffffffffffff8516808552925280832080547fffffffffffffffffffffffffffffffffffffffffffffffffffffffffffffff0016905551339285917ff6391f5c32d9c69d2a47ea670b442974b53935d1edc7fd64eb21e047a839171b9190a45050565b73ffffffffffffffffffffffffffffffffffffffff831662001d7d576040517f08c379a000000000000000000000000000000000000000000000000000000000815260206004820152602360248201527f455243313135353a206275726e2066726f6d20746865207a65726f206164647260448201527f65737300000000000000000000000000000000000000000000000000000000006064820152608401620004e9565b805182511462001e10576040517f08c379a000000000000000000000000000000000000000000000000000000000815260206004820152602860248201527f455243313135353a2069647320616e6420616d6f756e7473206c656e6774682060448201527f6d69736d617463680000000000000000000000000000000000000000000000006064820152608401620004e9565b604080516020810190915260009081905233905b835181101562001f7b57600084828151811062001e455762001e4562003a4f565b60200260200101519050600084838151811062001e665762001e6662003a4f565b6020908102919091018101516000848152808352604080822073ffffffffffffffffffffffffffffffffffffffff8c16835290935291909120549091508181101562001f34576040517f08c379a0000000000000000000000000000000000000000000000000000000008152602060048201526024808201527f455243313135353a206275726e20616d6f756e7420657863656564732062616c60448201527f616e6365000000000000000000000000000000000000000000000000000000006064820152608401620004e9565b60009283526020838152604080852073ffffffffffffffffffffffffffffffffffffffff8b168652909152909220910390558062001f728162003b4a565b91505062001e24565b50600073ffffffffffffffffffffffffffffffffffffffff168473ffffffffffffffffffffffffffffffffffffffff168273ffffffffffffffffffffffffffffffffffffffff167f4a39dc06d4c0dbc64b70af90fd698a233a518aa5d07e595d983b8c0526c8f7fb868660405162001ff592919062003cc4565b60405180910390a450505050565b8173ffffffffffffffffffffffffffffffffffffffff168373ffffffffffffffffffffffffffffffffffffffff161415620020c1576040517f08c379a000000000000000000000000000000000000000000000000000000000815260206004820152602960248201527f455243313135353a2073657474696e6720617070726f76616c2073746174757360448201527f20666f722073656c6600000000000000000000000000000000000000000000006064820152608401620004e9565b73ffffffffffffffffffffffffffffffffffffffff83811660008181526001602090815260408083209487168084529482529182902080547fffffffffffffffffffffffffffffffffffffffffffffffffffffffffffffff001686151590811790915591519182527f17307eab39ab6107e8899845ad3d59bd9653f200f220920489ca2b5937696c31910160405180910390a3505050565b73ffffffffffffffffffffffffffffffffffffffff8416620021fe576040517f08c379a000000000000000000000000000000000000000000000000000000000815260206004820152602560248201527f455243313135353a207472616e7366657220746f20746865207a65726f20616460448201527f64726573730000000000000000000000000000000000000000000000000000006064820152608401620004e9565b336200221181878762001b638862002ba2565b60008481526020818152604080832073ffffffffffffffffffffffffffffffffffffffff8a16845290915290205483811015620022d1576040517f08c379a000000000000000000000000000000000000000000000000000000000815260206004820152602a60248201527f455243313135353a20696e73756666696369656e742062616c616e636520666f60448201527f72207472616e73666572000000000000000000000000000000000000000000006064820152608401620004e9565b60008581526020818152604080832073ffffffffffffffffffffffffffffffffffffffff8b81168552925280832087850390559088168252812080548692906200231d90849062003be6565b9091555050604080518681526020810186905273ffffffffffffffffffffffffffffffffffffffff808916928a821692918616917fc3d58168c5ae7397731d063d5bbf3d657854427343f4c083240f7aacaa2d0f62910160405180910390a46200238c82888888888862002bf0565b50505050505050565b73ffffffffffffffffffffffffffffffffffffffff83166200243a576040517f08c379a000000000000000000000000000000000000000000000000000000000815260206004820152602360248201527f455243313135353a206275726e2066726f6d20746865207a65726f206164647260448201527f65737300000000000000000000000000000000000000000000000000000000006064820152608401620004e9565b336200246f818560006200244e8762002ba2565b620024598762002ba2565b5050604080516020810190915260009052505050565b60008381526020818152604080832073ffffffffffffffffffffffffffffffffffffffff88168452909152902054828110156200252e576040517f08c379a0000000000000000000000000000000000000000000000000000000008152602060048201526024808201527f455243313135353a206275726e20616d6f756e7420657863656564732062616c60448201527f616e6365000000000000000000000000000000000000000000000000000000006064820152608401620004e9565b60008481526020818152604080832073ffffffffffffffffffffffffffffffffffffffff898116808652918452828520888703905582518981529384018890529092908616917fc3d58168c5ae7397731d063d5bbf3d657854427343f4c083240f7aacaa2d0f62910160405180910390a45050505050565b60007fffffffff0000000000000000000000000000000000000000000000000000000082167fd9b67a260000000000000000000000000000000000000000000000000000000014806200263a57507fffffffff0000000000000000000000000000000000000000000000000000000082167f0e89341c00000000000000000000000000000000000000000000000000000000145b806200053257507f01ffc9a7000000000000000000000000000000000000000000000000000000007fffffffff0000000000000000000000000000000000000000000000000000000083161462000532565b606060006200269d83600262003b86565b620026aa90600262003be6565b67ffffffffffffffff811115620026c557620026c562003134565b6040519080825280601f01601f191660200182016040528015620026f0576020820181803683370190505b5090507f3000000000000000000000000000000000000000000000000000000000000000816000815181106200272a576200272a62003a4f565b60200101907effffffffffffffffffffffffffffffffffffffffffffffffffffffffffffff1916908160001a9053507f78000000000000000000000000000000000000000000000000000000000000008160018151811062002790576200279062003a4f565b60200101907effffffffffffffffffffffffffffffffffffffffffffffffffffffffffffff1916908160001a9053506000620027ce84600262003b86565b620027db90600162003be6565b90505b600181111562002882577f303132333435363738396162636465660000000000000000000000000000000085600f166010811062002820576200282062003a4f565b1a60f81b82828151811062002839576200283962003a4f565b60200101907effffffffffffffffffffffffffffffffffffffffffffffffffffffffffffff1916908160001a90535060049490941c936200287a8162003cf6565b9050620027de565b508315620028ed576040517f08c379a000000000000000000000000000000000000000000000000000000000815260206004820181905260248201527f537472696e67733a20686578206c656e67746820696e73756666696369656e746044820152606401620004e9565b9392505050565b73ffffffffffffffffffffffffffffffffffffffff84163b15620019ac576040517fbc197c8100000000000000000000000000000000000000000000000000000000815273ffffffffffffffffffffffffffffffffffffffff85169063bc197c81906200296e908990899088908890889060040162003d2e565b602060405180830381600087803b1580156200298957600080fd5b505af1925050508015620029da575060408051601f3d9081017fffffffffffffffffffffffffffffffffffffffffffffffffffffffffffffffe0168201909252620029d79181019062003d9f565b60015b62002acf57620029e962003dbf565b806308c379a0141562002a44575062002a0162003ddc565b8062002a0e575062002a46565b806040517f08c379a0000000000000000000000000000000000000000000000000000000008152600401620004e991906200311f565b505b6040517f08c379a000000000000000000000000000000000000000000000000000000000815260206004820152603460248201527f455243313135353a207472616e7366657220746f206e6f6e204552433131353560448201527f526563656976657220696d706c656d656e7465720000000000000000000000006064820152608401620004e9565b7fffffffff0000000000000000000000000000000000000000000000000000000081167fbc197c8100000000000000000000000000000000000000000000000000000000146200238c576040517f08c379a000000000000000000000000000000000000000000000000000000000815260206004820152602860248201527f455243313135353a204552433131353552656365697665722072656a6563746560448201527f6420746f6b656e730000000000000000000000000000000000000000000000006064820152608401620004e9565b6040805160018082528183019092526060916000919060208083019080368337019050509050828160008151811062002bdf5762002bdf62003a4f565b602090810291909101015292915050565b73ffffffffffffffffffffffffffffffffffffffff84163b15620019ac576040517ff23a6e6100000000000000000000000000000000000000000000000000000000815273ffffffffffffffffffffffffffffffffffffffff85169063f23a6e619062002c6a908990899088908890889060040162003e8a565b602060405180830381600087803b15801562002c8557600080fd5b505af192505050801562002cd6575060408051601f3d9081017fffffffffffffffffffffffffffffffffffffffffffffffffffffffffffffffe016820190925262002cd39181019062003d9f565b60015b62002ce557620029e962003dbf565b7fffffffff0000000000000000000000000000000000000000000000000000000081167ff23a6e6100000000000000000000000000000000000000000000000000000000146200238c576040517f08c379a000000000000000000000000000000000000000000000000000000000815260206004820152602860248201527f455243313135353a204552433131353552656365697665722072656a6563746560448201527f6420746f6b656e730000000000000000000000000000000000000000000000006064820152608401620004e9565b82805462002dc6906200388c565b90600052602060002090601f01602090048101928262002dea576000855562002e53565b82601f1062002e23578280017fffffffffffffffffffffffffffffffffffffffffffffffffffffffffffffff0082351617855562002e53565b8280016001018555821562002e53579182015b8281111562002e5357823582559160200191906001019062002e36565b5062002e6192915062002ef0565b5090565b6114618062003edd83390190565b82805462002e81906200388c565b90600052602060002090601f01602090048101928262002ea5576000855562002e53565b82601f1062002ec057805160ff191683800117855562002e53565b8280016001018555821562002e53579182015b8281111562002e5357825182559160200191906001019062002ed3565b5b8082111562002e61576000815560010162002ef1565b803573ffffffffffffffffffffffffffffffffffffffff8116811462002f2c57600080fd5b919050565b6000806040838503121562002f4557600080fd5b62002f508362002f07565b946020939093013593505050565b7fffffffff000000000000000000000000000000000000000000000000000000008116811462002f8d57600080fd5b50565b60006020828403121562002fa357600080fd5b8135620028ed8162002f5e565b60008083601f84011262002fc357600080fd5b50813567ffffffffffffffff81111562002fdc57600080fd5b60208301915083602082850101111562002ff557600080fd5b9250929050565b600080600080600080608087890312156200301657600080fd5b8635955060208701359450604087013567ffffffffffffffff808211156200303d57600080fd5b6200304b8a838b0162002fb0565b909650945060608901359150808211156200306557600080fd5b506200307489828a0162002fb0565b979a9699509497509295939492505050565b6000602082840312156200309957600080fd5b5035919050565b60005b83811015620030bd578181015183820152602001620030a3565b83811115620030cd576000848401525b50505050565b60008151808452620030ed816020860160208601620030a0565b601f017fffffffffffffffffffffffffffffffffffffffffffffffffffffffffffffffe0169290920160200192915050565b602081526000620028ed6020830184620030d3565b7f4e487b7100000000000000000000000000000000000000000000000000000000600052604160045260246000fd5b6080810181811067ffffffffffffffff8211171562003186576200318662003134565b60405250565b7fffffffffffffffffffffffffffffffffffffffffffffffffffffffffffffffe0601f830116810181811067ffffffffffffffff82111715620031d357620031d362003134565b6040525050565b600067ffffffffffffffff821115620031f757620031f762003134565b5060051b60200190565b600082601f8301126200321357600080fd5b813567ffffffffffffffff81111562003230576200323062003134565b6040516200326760207fffffffffffffffffffffffffffffffffffffffffffffffffffffffffffffffe0601f85011601826200318c565b8181528460208386010111156200327d57600080fd5b816020850160208301376000918101602001919091529392505050565b60006020808385031215620032ae57600080fd5b823567ffffffffffffffff80821115620032c757600080fd5b818501915085601f830112620032dc57600080fd5b8135620032e981620031da565b60408051620032f983826200318c565b83815260059390931b85018601928681019250898411156200331a57600080fd5b8686015b84811015620033eb57803586811115620033385760008081fd5b87016080818d037fffffffffffffffffffffffffffffffffffffffffffffffffffffffffffffffe0018113156200336f5760008081fd5b84516200337c8162003163565b8a830135898111156200338f5760008081fd5b6200339f8f8d8387010162003201565b8252508583013589811115620033b55760008081fd5b620033c58f8d8387010162003201565b828d0152506060838101358783015291909201359082015284529287019287016200331e565b509998505050505050505050565b600082601f8301126200340b57600080fd5b813560206200341a82620031da565b6040516200342982826200318c565b83815260059390931b85018201928281019150868411156200344a57600080fd5b8286015b848110156200346757803583529183019183016200344e565b509695505050505050565b600080600080600060a086880312156200348b57600080fd5b620034968662002f07565b9450620034a66020870162002f07565b9350604086013567ffffffffffffffff80821115620034c457600080fd5b620034d289838a01620033f9565b94506060880135915080821115620034e957600080fd5b620034f789838a01620033f9565b935060808801359150808211156200350e57600080fd5b506200351d8882890162003201565b9150509295509295909350565b600080604083850312156200353e57600080fd5b82359150620035506020840162002f07565b90509250929050565b6000806000606084860312156200356f57600080fd5b8335925060208401359150604084013567ffffffffffffffff8111156200359557600080fd5b620035a38682870162003201565b9150509250925092565b60008060408385031215620035c157600080fd5b823567ffffffffffffffff80821115620035da57600080fd5b818501915085601f830112620035ef57600080fd5b81356020620035fe82620031da565b6040516200360d82826200318c565b83815260059390931b85018201928281019150898411156200362e57600080fd5b948201945b838610156200365757620036478662002f07565b8252948201949082019062003633565b965050860135925050808211156200366e57600080fd5b506200367d85828601620033f9565b9150509250929050565b600081518084526020808501945080840160005b83811015620036b9578151875295820195908201906001016200369b565b509495945050505050565b602081526000620028ed602083018462003687565b600080600060608486031215620036ef57600080fd5b620036fa8462002f07565b9250602084013567ffffffffffffffff808211156200371857600080fd5b6200372687838801620033f9565b935060408601359150808211156200373d57600080fd5b50620035a386828701620033f9565b801515811462002f8d57600080fd5b600080604083850312156200376f57600080fd5b6200377a8362002f07565b915060208301356200378c816200374c565b809150509250929050565b60008060408385031215620037ab57600080fd5b50508035926020909101359150565b60008060408385031215620037ce57600080fd5b620037d98362002f07565b9150620035506020840162002f07565b600080600080600060a086880312156200380257600080fd5b6200380d8662002f07565b94506200381d6020870162002f07565b93506040860135925060608601359150608086013567ffffffffffffffff8111156200384857600080fd5b6200351d8882890162003201565b6000806000606084860312156200386c57600080fd5b620038778462002f07565b95602085013595506040909401359392505050565b600181811c90821680620038a157607f821691505b60208210811415620038dc577f4e487b7100000000000000000000000000000000000000000000000000000000600052602260045260246000fd5b50919050565b8054600090600181811c9080831680620038fd57607f831692505b602080841082141562003939577f4e487b7100000000000000000000000000000000000000000000000000000000600052602260045260246000fd5b838852602088018280156200395757600181146200398757620039b4565b7fffffffffffffffffffffffffffffffffffffffffffffffffffffffffffffff00871682528282019750620039b4565b60008981526020902060005b87811015620039ae5781548482015290860190840162003993565b83019850505b5050505050505092915050565b838152826020820152606060408201526060808201526000620039e860c0830184620038e2565b7fffffffffffffffffffffffffffffffffffffffffffffffffffffffffffffffa083820301608084015262003a218160018601620038e2565b905073ffffffffffffffffffffffffffffffffffffffff60028501541660a084015280915050949350505050565b7f4e487b7100000000000000000000000000000000000000000000000000000000600052603260045260246000fd5b7f4e487b7100000000000000000000000000000000000000000000000000000000600052601160045260246000fd5b60008282101562003ac25762003ac262003a7e565b500390565b82815260406020820152600082516080604084015262003aeb60c0840182620030d3565b905060208401517fffffffffffffffffffffffffffffffffffffffffffffffffffffffffffffffc084830301606085015262003b288282620030d3565b91505060408401516080840152606084015160a0840152809150509392505050565b60007fffffffffffffffffffffffffffffffffffffffffffffffffffffffffffffffff82141562003b7f5762003b7f62003a7e565b5060010190565b6000817fffffffffffffffffffffffffffffffffffffffffffffffffffffffffffffffff048311821515161562003bc15762003bc162003a7e565b500290565b60006020828403121562003bd957600080fd5b8151620028ed816200374c565b6000821982111562003bfc5762003bfc62003a7e565b500190565b73ffffffffffffffffffffffffffffffffffffffff8316815281546020820152600182015460408201526002820154606082015260808101620028ed565b7f416363657373436f6e74726f6c3a206163636f756e742000000000000000000081526000835162003c79816017850160208801620030a0565b7f206973206d697373696e6720726f6c6520000000000000000000000000000000601791840191820152835162003cb8816028840160208801620030a0565b01602801949350505050565b60408152600062003cd9604083018562003687565b828103602084015262003ced818562003687565b95945050505050565b60008162003d085762003d0862003a7e565b507fffffffffffffffffffffffffffffffffffffffffffffffffffffffffffffffff0190565b600073ffffffffffffffffffffffffffffffffffffffff808816835280871660208401525060a0604083015262003d6960a083018662003687565b828103606084015262003d7d818662003687565b9050828103608084015262003d938185620030d3565b98975050505050505050565b60006020828403121562003db257600080fd5b8151620028ed8162002f5e565b600060033d111562003dd95760046000803e5060005160e01c5b90565b600060443d101562003deb5790565b6040517ffffffffffffffffffffffffffffffffffffffffffffffffffffffffffffffffc803d016004833e81513d67ffffffffffffffff816024840111818411171562003e3a57505050505090565b828501915081518181111562003e535750505050505090565b843d870101602082850101111562003e6e5750505050505090565b62003e7f602082860101876200318c565b509095945050505050565b600073ffffffffffffffffffffffffffffffffffffffff808816835280871660208401525084604083015283606083015260a0608083015262003ed160a0830184620030d3565b97965050505050505056fe6101206040523480156200001257600080fd5b506040516200146138038062001461833981016040819052620000359162000175565b60405163e486033960e01b81526001600160a01b03808316600483015284918491849160009182919086169063e486033990602401604080518083038186803b1580156200008257600080fd5b505afa15801562000097573d6000803e3d6000fd5b505050506040513d601f19601f82011682018060405250810190620000bd9190620001bf565b6001600160a01b03968716608052861660a052851660c052505090821660e0521661010052620000ed3362000108565b5050600180546001600160a01b0319163317905550620001f7565b600080546001600160a01b038381166001600160a01b0319831681178455604051919092169283917f8be0079c531659141344cd1fd0a4f28419497f9722a3daafe3b4186f6b6457e09190a35050565b80516001600160a01b03811681146200017057600080fd5b919050565b6000806000606084860312156200018b57600080fd5b620001968462000158565b9250620001a66020850162000158565b9150620001b66040850162000158565b90509250925092565b60008060408385031215620001d357600080fd5b620001de8362000158565b9150620001ee6020840162000158565b90509250929050565b60805160a05160c05160e051610100516111c36200029e6000396000818161012f015281816104700152610e5b0152600081816102dd0152610b39015260006101f50152600081816101ce015281816105b101528181610723015281816107ec015281816109aa01528181610a2e01528181610b0701528181610be601528181610c8a01528181610d1a01528181610e2c0152610f07015260006102a301526111c36000f3fe608060405234801561001057600080fd5b506004361061011b5760003560e01c8063715018a6116100b2578063a694fc3a11610081578063ecb96fe611610066578063ecb96fe61461029e578063f2fde38b146102c5578063f70222e1146102d857600080fd5b8063a694fc3a14610273578063d02982cf1461028657600080fd5b8063715018a614610217578063750399f71461021f5780638caa9989146102355780638da5cb5b1461025557600080fd5b806343fbb8f5116100ee57806343fbb8f5146101a15780635062e90f146101b45780635c8a7687146101c957806363315637146101f057600080fd5b80631aa3a008146101205780632495a5991461012a5780632e17de781461017b578063336d26921461018e575b600080fd5b6101286102ff565b005b6101517f000000000000000000000000000000000000000000000000000000000000000081565b60405173ffffffffffffffffffffffffffffffffffffffff90911681526020015b60405180910390f35b610128610189366004610f4b565b610311565b61012861019c366004610f86565b6103a3565b6101286101af366004610f86565b6104f1565b6101bc610580565b6040516101729190610fb2565b6101517f000000000000000000000000000000000000000000000000000000000000000081565b6101517f000000000000000000000000000000000000000000000000000000000000000081565b610128610667565b6102276106f2565b604051908152602001610172565b6001546101519073ffffffffffffffffffffffffffffffffffffffff1681565b60005473ffffffffffffffffffffffffffffffffffffffff16610151565b610128610281366004610f4b565b6107b2565b61028e6107bb565b6040519015158152602001610172565b6101517f000000000000000000000000000000000000000000000000000000000000000081565b6101286102d336600461100c565b61087b565b6101517f000000000000000000000000000000000000000000000000000000000000000081565b6103076109a8565b61030f610a2a565b565b60005473ffffffffffffffffffffffffffffffffffffffff163314610397576040517f08c379a000000000000000000000000000000000000000000000000000000000815260206004820181905260248201527f4f776e61626c653a2063616c6c6572206973206e6f7420746865206f776e657260448201526064015b60405180910390fd5b6103a081610c5b565b50565b60005473ffffffffffffffffffffffffffffffffffffffff163314610424576040517f08c379a000000000000000000000000000000000000000000000000000000000815260206004820181905260248201527f4f776e61626c653a2063616c6c6572206973206e6f7420746865206f776e6572604482015260640161038e565b6040517fa9059cbb00000000000000000000000000000000000000000000000000000000815273ffffffffffffffffffffffffffffffffffffffff8381166004830152602482018390527f0000000000000000000000000000000000000000000000000000000000000000169063a9059cbb90604401602060405180830381600087803b1580156104b457600080fd5b505af11580156104c8573d6000803e3d6000fd5b505050506040513d601f19601f820116820180604052508101906104ec9190611030565b505050565b60005473ffffffffffffffffffffffffffffffffffffffff163314610572576040517f08c379a000000000000000000000000000000000000000000000000000000000815260206004820181905260248201527f4f776e61626c653a2063616c6c6572206973206e6f7420746865206f776e6572604482015260640161038e565b61057c8282610cce565b5050565b6040517feb1484590000000000000000000000000000000000000000000000000000000081523060048201526060907f000000000000000000000000000000000000000000000000000000000000000073ffffffffffffffffffffffffffffffffffffffff169063eb1484599060240160006040518083038186803b15801561060857600080fd5b505afa15801561061c573d6000803e3d6000fd5b505050506040513d6000823e601f3d9081017fffffffffffffffffffffffffffffffffffffffffffffffffffffffffffffffe01682016040526106629190810190611091565b905090565b60005473ffffffffffffffffffffffffffffffffffffffff1633146106e8576040517f08c379a000000000000000000000000000000000000000000000000000000000815260206004820181905260248201527f4f776e61626c653a2063616c6c6572206973206e6f7420746865206f776e6572604482015260640161038e565b61030f6000610d7a565b6040517f2640d9db0000000000000000000000000000000000000000000000000000000081523060048201526000907f000000000000000000000000000000000000000000000000000000000000000073ffffffffffffffffffffffffffffffffffffffff1690632640d9db9060240160206040518083038186803b15801561077a57600080fd5b505afa15801561078e573d6000803e3d6000fd5b505050506040513d601f19601f820116820180604052508101906106629190611174565b6103a081610def565b6040517f21d2a5730000000000000000000000000000000000000000000000000000000081523060048201526000907f000000000000000000000000000000000000000000000000000000000000000073ffffffffffffffffffffffffffffffffffffffff16906321d2a5739060240160206040518083038186803b15801561084357600080fd5b505afa158015610857573d6000803e3d6000fd5b505050506040513d601f19601f820116820180604052508101906106629190611030565b60005473ffffffffffffffffffffffffffffffffffffffff1633146108fc576040517f08c379a000000000000000000000000000000000000000000000000000000000815260206004820181905260248201527f4f776e61626c653a2063616c6c6572206973206e6f7420746865206f776e6572604482015260640161038e565b73ffffffffffffffffffffffffffffffffffffffff811661099f576040517f08c379a000000000000000000000000000000000000000000000000000000000815260206004820152602660248201527f4f776e61626c653a206e6577206f776e657220697320746865207a65726f206160448201527f6464726573730000000000000000000000000000000000000000000000000000606482015260840161038e565b6103a081610d7a565b7f000000000000000000000000000000000000000000000000000000000000000073ffffffffffffffffffffffffffffffffffffffff1663c7b8981c6040518163ffffffff1660e01b8152600401600060405180830381600087803b158015610a1057600080fd5b505af1158015610a24573d6000803e3d6000fd5b50505050565b60007f000000000000000000000000000000000000000000000000000000000000000073ffffffffffffffffffffffffffffffffffffffff1663644214f66040518163ffffffff1660e01b815260040160206040518083038186803b158015610a9257600080fd5b505afa158015610aa6573d6000803e3d6000fd5b505050506040513d601f19601f82011682018060405250810190610aca9190611174565b6040517f095ea7b300000000000000000000000000000000000000000000000000000000815273ffffffffffffffffffffffffffffffffffffffff7f000000000000000000000000000000000000000000000000000000000000000081166004830152602482018390529192507f00000000000000000000000000000000000000000000000000000000000000009091169063095ea7b390604401602060405180830381600087803b158015610b7f57600080fd5b505af1158015610b93573d6000803e3d6000fd5b505050506040513d601f19601f82011682018060405250810190610bb79190611030565b506040517ffcb4888e0000000000000000000000000000000000000000000000000000000081523060048201527f000000000000000000000000000000000000000000000000000000000000000073ffffffffffffffffffffffffffffffffffffffff169063fcb4888e906024015b600060405180830381600087803b158015610c4057600080fd5b505af1158015610c54573d6000803e3d6000fd5b5050505050565b6040517f2e17de78000000000000000000000000000000000000000000000000000000008152600481018290527f000000000000000000000000000000000000000000000000000000000000000073ffffffffffffffffffffffffffffffffffffffff1690632e17de7890602401610c26565b6040517f43fbb8f500000000000000000000000000000000000000000000000000000000815273ffffffffffffffffffffffffffffffffffffffff8381166004830152602482018390527f000000000000000000000000000000000000000000000000000000000000000016906343fbb8f590604401600060405180830381600087803b158015610d5e57600080fd5b505af1158015610d72573d6000803e3d6000fd5b505050505050565b6000805473ffffffffffffffffffffffffffffffffffffffff8381167fffffffffffffffffffffffff0000000000000000000000000000000000000000831681178455604051919092169283917f8be0079c531659141344cd1fd0a4f28419497f9722a3daafe3b4186f6b6457e09190a35050565b6040517f095ea7b300000000000000000000000000000000000000000000000000000000815273ffffffffffffffffffffffffffffffffffffffff7f000000000000000000000000000000000000000000000000000000000000000081166004830152602482018390527f0000000000000000000000000000000000000000000000000000000000000000169063095ea7b390604401602060405180830381600087803b158015610e9f57600080fd5b505af1158015610eb3573d6000803e3d6000fd5b505050506040513d601f19601f82011682018060405250810190610ed79190611030565b506040517fa694fc3a000000000000000000000000000000000000000000000000000000008152600481018290527f000000000000000000000000000000000000000000000000000000000000000073ffffffffffffffffffffffffffffffffffffffff169063a694fc3a90602401610c26565b600060208284031215610f5d57600080fd5b5035919050565b73ffffffffffffffffffffffffffffffffffffffff811681146103a057600080fd5b60008060408385031215610f9957600080fd5b8235610fa481610f64565b946020939093013593505050565b6020808252825182820181905260009190848201906040850190845b8181101561100057835173ffffffffffffffffffffffffffffffffffffffff1683529284019291840191600101610fce565b50909695505050505050565b60006020828403121561101e57600080fd5b813561102981610f64565b9392505050565b60006020828403121561104257600080fd5b8151801515811461102957600080fd5b7f4e487b7100000000000000000000000000000000000000000000000000000000600052604160045260246000fd5b805161108c81610f64565b919050565b600060208083850312156110a457600080fd5b825167ffffffffffffffff808211156110bc57600080fd5b818501915085601f8301126110d057600080fd5b8151818111156110e2576110e2611052565b8060051b6040517fffffffffffffffffffffffffffffffffffffffffffffffffffffffffffffffe0603f8301168101818110858211171561112557611125611052565b60405291825284820192508381018501918883111561114357600080fd5b938501935b828510156111685761115985611081565b84529385019392850192611148565b98975050505050505050565b60006020828403121561118657600080fd5b505191905056fea26469706673582212203ca8fe8bbc5ce3358591a8f30d4ec12d4f23c9734fde377453cc61abbfa484cb64736f6c63430008090033a26469706673582212204f1ea4e809f4ef492dd3cbaf5cce3e788b19e5193e83f0413474d227b21a9a9764736f6c63430008090033",
  "devdoc": {
    "kind": "dev",
    "methods": {
      "balanceOf(address,uint256)": {
        "details": "See {IERC1155-balanceOf}. Requirements: - `account` cannot be the zero address."
      },
      "balanceOfBatch(address[],uint256[])": {
        "details": "See {IERC1155-balanceOfBatch}. Requirements: - `accounts` and `ids` must have the same length."
      },
      "getRoleAdmin(bytes32)": {
        "details": "Returns the admin role that controls `role`. See {grantRole} and {revokeRole}. To change a role's admin, use {_setRoleAdmin}."
      },
      "grantRole(bytes32,address)": {
        "details": "Grants `role` to `account`. If `account` had not been already granted `role`, emits a {RoleGranted} event. Requirements: - the caller must have ``role``'s admin role."
      },
      "hasRole(bytes32,address)": {
        "details": "Returns `true` if `account` has been granted `role`."
      },
      "isApprovedForAll(address,address)": {
        "details": "See {IERC1155-isApprovedForAll}."
      },
      "renounceRole(bytes32,address)": {
        "details": "Revokes `role` from the calling account. Roles are often managed via {grantRole} and {revokeRole}: this function's purpose is to provide a mechanism for accounts to lose their privileges if they are compromised (such as when a trusted device is misplaced). If the calling account had been revoked `role`, emits a {RoleRevoked} event. Requirements: - the caller must be `account`."
      },
      "revokeRole(bytes32,address)": {
        "details": "Revokes `role` from `account`. If `account` had been granted `role`, emits a {RoleRevoked} event. Requirements: - the caller must have ``role``'s admin role."
      },
      "safeBatchTransferFrom(address,address,uint256[],uint256[],bytes)": {
        "details": "See {IERC1155-safeBatchTransferFrom}."
      },
      "safeTransferFrom(address,address,uint256,uint256,bytes)": {
        "details": "See {IERC1155-safeTransferFrom}."
      },
      "setApprovalForAll(address,bool)": {
        "details": "See {IERC1155-setApprovalForAll}."
      },
      "uri(uint256)": {
        "details": "See {IERC1155MetadataURI-uri}. This implementation returns the same URI for *all* token types. It relies on the token type ID substitution mechanism https://eips.ethereum.org/EIPS/eip-1155#metadata[defined in the EIP]. Clients calling this function must replace the `\\{id\\}` substring with the actual token type ID."
      }
    },
    "version": 1
  },
  "userdoc": {
    "kind": "user",
    "methods": {},
    "version": 1
  },
  "storageLayout": {
    "storage": [
      {
        "astId": 512,
        "contract": "src/GreetingsRegistry/UnionQuestCore.sol:UnionQuestCore",
        "label": "_balances",
        "offset": 0,
        "slot": "0",
        "type": "t_mapping(t_uint256,t_mapping(t_address,t_uint256))"
      },
      {
        "astId": 518,
        "contract": "src/GreetingsRegistry/UnionQuestCore.sol:UnionQuestCore",
        "label": "_operatorApprovals",
        "offset": 0,
        "slot": "1",
        "type": "t_mapping(t_address,t_mapping(t_address,t_bool))"
      },
      {
        "astId": 520,
        "contract": "src/GreetingsRegistry/UnionQuestCore.sol:UnionQuestCore",
        "label": "_uri",
        "offset": 0,
        "slot": "2",
        "type": "t_string_storage"
      },
      {
        "astId": 24,
        "contract": "src/GreetingsRegistry/UnionQuestCore.sol:UnionQuestCore",
        "label": "_roles",
        "offset": 0,
        "slot": "3",
        "type": "t_mapping(t_bytes32,t_struct(RoleData)19_storage)"
      },
      {
        "astId": 3909,
        "contract": "src/GreetingsRegistry/UnionQuestCore.sol:UnionQuestCore",
        "label": "marketRegistry",
        "offset": 0,
        "slot": "4",
        "type": "t_address"
      },
      {
        "astId": 3911,
        "contract": "src/GreetingsRegistry/UnionQuestCore.sol:UnionQuestCore",
        "label": "unionToken",
        "offset": 0,
        "slot": "5",
        "type": "t_address"
      },
      {
        "astId": 3913,
        "contract": "src/GreetingsRegistry/UnionQuestCore.sol:UnionQuestCore",
        "label": "underlyingToken",
        "offset": 0,
        "slot": "6",
        "type": "t_address"
      },
      {
        "astId": 3917,
        "contract": "src/GreetingsRegistry/UnionQuestCore.sol:UnionQuestCore",
        "label": "itemTypes",
        "offset": 0,
        "slot": "7",
        "type": "t_array(t_struct(ItemType)3889_storage)dyn_storage"
      },
      {
        "astId": 3922,
        "contract": "src/GreetingsRegistry/UnionQuestCore.sol:UnionQuestCore",
        "label": "players",
        "offset": 0,
        "slot": "8",
        "type": "t_mapping(t_address,t_struct(Player)3904_storage)"
      },
      {
        "astId": 3928,
        "contract": "src/GreetingsRegistry/UnionQuestCore.sol:UnionQuestCore",
        "label": "vouches",
        "offset": 0,
        "slot": "9",
        "type": "t_mapping(t_uint256,t_mapping(t_uint256,t_uint256))"
      },
      {
        "astId": 3935,
        "contract": "src/GreetingsRegistry/UnionQuestCore.sol:UnionQuestCore",
        "label": "villages",
        "offset": 0,
        "slot": "10",
        "type": "t_mapping(t_uint256,t_mapping(t_uint256,t_struct(Village)3897_storage))"
      }
    ],
    "types": {
      "t_address": {
        "encoding": "inplace",
        "label": "address",
        "numberOfBytes": "20"
      },
      "t_array(t_struct(ItemType)3889_storage)dyn_storage": {
        "base": "t_struct(ItemType)3889_storage",
        "encoding": "dynamic_array",
        "label": "struct UnionQuestCore.ItemType[]",
        "numberOfBytes": "32"
      },
      "t_bool": {
        "encoding": "inplace",
        "label": "bool",
        "numberOfBytes": "1"
      },
      "t_bytes32": {
        "encoding": "inplace",
        "label": "bytes32",
        "numberOfBytes": "32"
      },
      "t_contract(UnionQuestVillage)4502": {
        "encoding": "inplace",
        "label": "contract UnionQuestVillage",
        "numberOfBytes": "20"
      },
      "t_mapping(t_address,t_bool)": {
        "encoding": "mapping",
        "key": "t_address",
        "label": "mapping(address => bool)",
        "numberOfBytes": "32",
        "value": "t_bool"
      },
      "t_mapping(t_address,t_mapping(t_address,t_bool))": {
        "encoding": "mapping",
        "key": "t_address",
        "label": "mapping(address => mapping(address => bool))",
        "numberOfBytes": "32",
        "value": "t_mapping(t_address,t_bool)"
      },
      "t_mapping(t_address,t_struct(Player)3904_storage)": {
        "encoding": "mapping",
        "key": "t_address",
        "label": "mapping(address => struct UnionQuestCore.Player)",
        "numberOfBytes": "32",
        "value": "t_struct(Player)3904_storage"
      },
      "t_mapping(t_address,t_uint256)": {
        "encoding": "mapping",
        "key": "t_address",
        "label": "mapping(address => uint256)",
        "numberOfBytes": "32",
        "value": "t_uint256"
      },
      "t_mapping(t_bytes32,t_struct(RoleData)19_storage)": {
        "encoding": "mapping",
        "key": "t_bytes32",
        "label": "mapping(bytes32 => struct AccessControl.RoleData)",
        "numberOfBytes": "32",
        "value": "t_struct(RoleData)19_storage"
      },
      "t_mapping(t_uint256,t_mapping(t_address,t_uint256))": {
        "encoding": "mapping",
        "key": "t_uint256",
        "label": "mapping(uint256 => mapping(address => uint256))",
        "numberOfBytes": "32",
        "value": "t_mapping(t_address,t_uint256)"
      },
      "t_mapping(t_uint256,t_mapping(t_uint256,t_struct(Village)3897_storage))": {
        "encoding": "mapping",
        "key": "t_uint256",
        "label": "mapping(uint256 => mapping(uint256 => struct UnionQuestCore.Village))",
        "numberOfBytes": "32",
        "value": "t_mapping(t_uint256,t_struct(Village)3897_storage)"
      },
      "t_mapping(t_uint256,t_mapping(t_uint256,t_uint256))": {
        "encoding": "mapping",
        "key": "t_uint256",
        "label": "mapping(uint256 => mapping(uint256 => uint256))",
        "numberOfBytes": "32",
        "value": "t_mapping(t_uint256,t_uint256)"
      },
      "t_mapping(t_uint256,t_struct(Village)3897_storage)": {
        "encoding": "mapping",
        "key": "t_uint256",
        "label": "mapping(uint256 => struct UnionQuestCore.Village)",
        "numberOfBytes": "32",
        "value": "t_struct(Village)3897_storage"
      },
      "t_mapping(t_uint256,t_uint256)": {
        "encoding": "mapping",
        "key": "t_uint256",
        "label": "mapping(uint256 => uint256)",
        "numberOfBytes": "32",
        "value": "t_uint256"
      },
      "t_string_storage": {
        "encoding": "bytes",
        "label": "string",
        "numberOfBytes": "32"
      },
      "t_struct(ItemType)3889_storage": {
        "encoding": "inplace",
        "label": "struct UnionQuestCore.ItemType",
        "members": [
          {
            "astId": 3882,
            "contract": "src/GreetingsRegistry/UnionQuestCore.sol:UnionQuestCore",
            "label": "name",
            "offset": 0,
            "slot": "0",
            "type": "t_string_storage"
          },
          {
            "astId": 3884,
            "contract": "src/GreetingsRegistry/UnionQuestCore.sol:UnionQuestCore",
            "label": "description",
            "offset": 0,
            "slot": "1",
            "type": "t_string_storage"
          },
          {
            "astId": 3886,
            "contract": "src/GreetingsRegistry/UnionQuestCore.sol:UnionQuestCore",
            "label": "buyPrice",
            "offset": 0,
            "slot": "2",
            "type": "t_uint256"
          },
          {
            "astId": 3888,
            "contract": "src/GreetingsRegistry/UnionQuestCore.sol:UnionQuestCore",
            "label": "sellPrice",
            "offset": 0,
            "slot": "3",
            "type": "t_uint256"
          }
        ],
        "numberOfBytes": "128"
      },
      "t_struct(Player)3904_storage": {
        "encoding": "inplace",
        "label": "struct UnionQuestCore.Player",
        "members": [
          {
            "astId": 3899,
            "contract": "src/GreetingsRegistry/UnionQuestCore.sol:UnionQuestCore",
            "label": "x",
            "offset": 0,
            "slot": "0",
            "type": "t_uint256"
          },
          {
            "astId": 3901,
            "contract": "src/GreetingsRegistry/UnionQuestCore.sol:UnionQuestCore",
            "label": "y",
            "offset": 0,
            "slot": "1",
            "type": "t_uint256"
          },
          {
            "astId": 3903,
            "contract": "src/GreetingsRegistry/UnionQuestCore.sol:UnionQuestCore",
            "label": "arrivalTime",
            "offset": 0,
            "slot": "2",
            "type": "t_uint256"
          }
        ],
        "numberOfBytes": "96"
      },
      "t_struct(RoleData)19_storage": {
        "encoding": "inplace",
        "label": "struct AccessControl.RoleData",
        "members": [
          {
            "astId": 16,
            "contract": "src/GreetingsRegistry/UnionQuestCore.sol:UnionQuestCore",
            "label": "members",
            "offset": 0,
            "slot": "0",
            "type": "t_mapping(t_address,t_bool)"
          },
          {
            "astId": 18,
            "contract": "src/GreetingsRegistry/UnionQuestCore.sol:UnionQuestCore",
            "label": "adminRole",
            "offset": 0,
            "slot": "1",
            "type": "t_bytes32"
          }
        ],
        "numberOfBytes": "64"
      },
      "t_struct(Village)3897_storage": {
        "encoding": "inplace",
        "label": "struct UnionQuestCore.Village",
        "members": [
          {
            "astId": 3891,
            "contract": "src/GreetingsRegistry/UnionQuestCore.sol:UnionQuestCore",
            "label": "name",
            "offset": 0,
            "slot": "0",
            "type": "t_string_storage"
          },
          {
            "astId": 3893,
            "contract": "src/GreetingsRegistry/UnionQuestCore.sol:UnionQuestCore",
            "label": "description",
            "offset": 0,
            "slot": "1",
            "type": "t_string_storage"
          },
          {
            "astId": 3896,
            "contract": "src/GreetingsRegistry/UnionQuestCore.sol:UnionQuestCore",
            "label": "member",
            "offset": 0,
            "slot": "2",
            "type": "t_contract(UnionQuestVillage)4502"
          }
        ],
        "numberOfBytes": "96"
      },
      "t_uint256": {
        "encoding": "inplace",
        "label": "uint256",
        "numberOfBytes": "32"
      }
    }
  }
}