{
  "address": "0xA9cd148ebA77b8B5fAb5c7AE62321F2c7a38786f",
  "abi": [
    {
      "inputs": [
        {
          "internalType": "address",
          "name": "_marketRegistry",
          "type": "address"
        },
        {
          "internalType": "address",
          "name": "_unionToken",
          "type": "address"
        },
        {
          "internalType": "address",
          "name": "_underlyingToken",
          "type": "address"
        }
      ],
      "stateMutability": "nonpayable",
      "type": "constructor"
    },
    {
      "anonymous": false,
      "inputs": [
        {
          "indexed": false,
          "internalType": "uint256",
          "name": "_index",
          "type": "uint256"
        },
        {
          "components": [
            {
              "internalType": "string",
              "name": "name",
              "type": "string"
            },
            {
              "internalType": "string",
              "name": "description",
              "type": "string"
            },
            {
              "internalType": "uint256",
              "name": "buyPrice",
              "type": "uint256"
            },
            {
              "internalType": "uint256",
              "name": "sellPrice",
              "type": "uint256"
            }
          ],
          "indexed": false,
          "internalType": "struct UnionQuestCore.ItemType",
          "name": "_itemType",
          "type": "tuple"
        }
      ],
      "name": "AddItemType",
      "type": "event"
    },
    {
      "anonymous": false,
      "inputs": [
        {
          "indexed": false,
          "internalType": "uint256",
          "name": "_x",
          "type": "uint256"
        },
        {
          "indexed": false,
          "internalType": "uint256",
          "name": "_y",
          "type": "uint256"
        },
        {
          "components": [
            {
              "internalType": "string",
              "name": "name",
              "type": "string"
            },
            {
              "internalType": "string",
              "name": "description",
              "type": "string"
            },
            {
              "internalType": "contract UnionQuestVillage",
              "name": "member",
              "type": "address"
            }
          ],
          "indexed": false,
          "internalType": "struct UnionQuestCore.Village",
          "name": "_village",
          "type": "tuple"
        }
      ],
      "name": "AddVillage",
      "type": "event"
    },
    {
      "anonymous": false,
      "inputs": [
        {
          "indexed": true,
          "internalType": "address",
          "name": "account",
          "type": "address"
        },
        {
          "indexed": true,
          "internalType": "address",
          "name": "operator",
          "type": "address"
        },
        {
          "indexed": false,
          "internalType": "bool",
          "name": "approved",
          "type": "bool"
        }
      ],
      "name": "ApprovalForAll",
      "type": "event"
    },
    {
      "anonymous": false,
      "inputs": [
        {
          "indexed": false,
          "internalType": "address",
          "name": "_address",
          "type": "address"
        },
        {
          "components": [
            {
              "internalType": "uint256",
              "name": "x",
              "type": "uint256"
            },
            {
              "internalType": "uint256",
              "name": "y",
              "type": "uint256"
            },
            {
              "internalType": "uint256",
              "name": "arrivalTime",
              "type": "uint256"
            },
            {
              "internalType": "uint256",
              "name": "workTime",
              "type": "uint256"
            }
          ],
          "indexed": false,
          "internalType": "struct UnionQuestCore.Player",
          "name": "_player",
          "type": "tuple"
        }
      ],
      "name": "BeginMove",
      "type": "event"
    },
    {
      "anonymous": false,
      "inputs": [
        {
          "indexed": false,
          "internalType": "address",
          "name": "_address",
          "type": "address"
        },
        {
          "components": [
            {
              "internalType": "uint256",
              "name": "x",
              "type": "uint256"
            },
            {
              "internalType": "uint256",
              "name": "y",
              "type": "uint256"
            },
            {
              "internalType": "uint256",
              "name": "arrivalTime",
              "type": "uint256"
            },
            {
              "internalType": "uint256",
              "name": "workTime",
              "type": "uint256"
            }
          ],
          "indexed": false,
          "internalType": "struct UnionQuestCore.Player",
          "name": "_player",
          "type": "tuple"
        }
      ],
      "name": "BeginWork",
      "type": "event"
    },
    {
      "anonymous": false,
      "inputs": [
        {
          "indexed": false,
          "internalType": "address",
          "name": "_address",
          "type": "address"
        },
        {
          "components": [
            {
              "internalType": "uint256",
              "name": "x",
              "type": "uint256"
            },
            {
              "internalType": "uint256",
              "name": "y",
              "type": "uint256"
            },
            {
              "internalType": "uint256",
              "name": "arrivalTime",
              "type": "uint256"
            },
            {
              "internalType": "uint256",
              "name": "workTime",
              "type": "uint256"
            }
          ],
          "indexed": false,
          "internalType": "struct UnionQuestCore.Player",
          "name": "_player",
          "type": "tuple"
        }
      ],
      "name": "ResolveMove",
      "type": "event"
    },
    {
      "anonymous": false,
      "inputs": [
        {
          "indexed": false,
          "internalType": "address",
          "name": "_address",
          "type": "address"
        },
        {
          "components": [
            {
              "internalType": "uint256",
              "name": "x",
              "type": "uint256"
            },
            {
              "internalType": "uint256",
              "name": "y",
              "type": "uint256"
            },
            {
              "internalType": "uint256",
              "name": "arrivalTime",
              "type": "uint256"
            },
            {
              "internalType": "uint256",
              "name": "workTime",
              "type": "uint256"
            }
          ],
          "indexed": false,
          "internalType": "struct UnionQuestCore.Player",
          "name": "_player",
          "type": "tuple"
        }
      ],
      "name": "ResolveWork",
      "type": "event"
    },
    {
      "anonymous": false,
      "inputs": [
        {
          "indexed": true,
          "internalType": "bytes32",
          "name": "role",
          "type": "bytes32"
        },
        {
          "indexed": true,
          "internalType": "bytes32",
          "name": "previousAdminRole",
          "type": "bytes32"
        },
        {
          "indexed": true,
          "internalType": "bytes32",
          "name": "newAdminRole",
          "type": "bytes32"
        }
      ],
      "name": "RoleAdminChanged",
      "type": "event"
    },
    {
      "anonymous": false,
      "inputs": [
        {
          "indexed": true,
          "internalType": "bytes32",
          "name": "role",
          "type": "bytes32"
        },
        {
          "indexed": true,
          "internalType": "address",
          "name": "account",
          "type": "address"
        },
        {
          "indexed": true,
          "internalType": "address",
          "name": "sender",
          "type": "address"
        }
      ],
      "name": "RoleGranted",
      "type": "event"
    },
    {
      "anonymous": false,
      "inputs": [
        {
          "indexed": true,
          "internalType": "bytes32",
          "name": "role",
          "type": "bytes32"
        },
        {
          "indexed": true,
          "internalType": "address",
          "name": "account",
          "type": "address"
        },
        {
          "indexed": true,
          "internalType": "address",
          "name": "sender",
          "type": "address"
        }
      ],
      "name": "RoleRevoked",
      "type": "event"
    },
    {
      "anonymous": false,
      "inputs": [
        {
          "indexed": false,
          "internalType": "address",
          "name": "_address",
          "type": "address"
        },
        {
          "components": [
            {
              "internalType": "uint256",
              "name": "x",
              "type": "uint256"
            },
            {
              "internalType": "uint256",
              "name": "y",
              "type": "uint256"
            },
            {
              "internalType": "uint256",
              "name": "arrivalTime",
              "type": "uint256"
            },
            {
              "internalType": "uint256",
              "name": "workTime",
              "type": "uint256"
            }
          ],
          "indexed": false,
          "internalType": "struct UnionQuestCore.Player",
          "name": "_player",
          "type": "tuple"
        }
      ],
      "name": "Start",
      "type": "event"
    },
    {
      "anonymous": false,
      "inputs": [
        {
          "indexed": true,
          "internalType": "address",
          "name": "operator",
          "type": "address"
        },
        {
          "indexed": true,
          "internalType": "address",
          "name": "from",
          "type": "address"
        },
        {
          "indexed": true,
          "internalType": "address",
          "name": "to",
          "type": "address"
        },
        {
          "indexed": false,
          "internalType": "uint256[]",
          "name": "ids",
          "type": "uint256[]"
        },
        {
          "indexed": false,
          "internalType": "uint256[]",
          "name": "values",
          "type": "uint256[]"
        }
      ],
      "name": "TransferBatch",
      "type": "event"
    },
    {
      "anonymous": false,
      "inputs": [
        {
          "indexed": true,
          "internalType": "address",
          "name": "operator",
          "type": "address"
        },
        {
          "indexed": true,
          "internalType": "address",
          "name": "from",
          "type": "address"
        },
        {
          "indexed": true,
          "internalType": "address",
          "name": "to",
          "type": "address"
        },
        {
          "indexed": false,
          "internalType": "uint256",
          "name": "id",
          "type": "uint256"
        },
        {
          "indexed": false,
          "internalType": "uint256",
          "name": "value",
          "type": "uint256"
        }
      ],
      "name": "TransferSingle",
      "type": "event"
    },
    {
      "anonymous": false,
      "inputs": [
        {
          "indexed": false,
          "internalType": "string",
          "name": "value",
          "type": "string"
        },
        {
          "indexed": true,
          "internalType": "uint256",
          "name": "id",
          "type": "uint256"
        }
      ],
      "name": "URI",
      "type": "event"
    },
    {
      "inputs": [],
      "name": "DEFAULT_ADMIN_ROLE",
      "outputs": [
        {
          "internalType": "bytes32",
          "name": "",
          "type": "bytes32"
        }
      ],
      "stateMutability": "view",
      "type": "function"
    },
    {
      "inputs": [
        {
          "components": [
            {
              "internalType": "string",
              "name": "name",
              "type": "string"
            },
            {
              "internalType": "string",
              "name": "description",
              "type": "string"
            },
            {
              "internalType": "uint256",
              "name": "buyPrice",
              "type": "uint256"
            },
            {
              "internalType": "uint256",
              "name": "sellPrice",
              "type": "uint256"
            }
          ],
          "internalType": "struct UnionQuestCore.ItemType[]",
          "name": "_itemTypes",
          "type": "tuple[]"
        }
      ],
      "name": "addItemTypes",
      "outputs": [],
      "stateMutability": "nonpayable",
      "type": "function"
    },
    {
      "inputs": [
        {
          "internalType": "address",
          "name": "account",
          "type": "address"
        },
        {
          "internalType": "uint256",
          "name": "id",
          "type": "uint256"
        }
      ],
      "name": "balanceOf",
      "outputs": [
        {
          "internalType": "uint256",
          "name": "",
          "type": "uint256"
        }
      ],
      "stateMutability": "view",
      "type": "function"
    },
    {
      "inputs": [
        {
          "internalType": "address[]",
          "name": "accounts",
          "type": "address[]"
        },
        {
          "internalType": "uint256[]",
          "name": "ids",
          "type": "uint256[]"
        }
      ],
      "name": "balanceOfBatch",
      "outputs": [
        {
          "internalType": "uint256[]",
          "name": "",
          "type": "uint256[]"
        }
      ],
      "stateMutability": "view",
      "type": "function"
    },
    {
      "inputs": [
        {
          "internalType": "uint256",
          "name": "x",
          "type": "uint256"
        },
        {
          "internalType": "uint256",
          "name": "y",
          "type": "uint256"
        }
      ],
      "name": "beginMove",
      "outputs": [],
      "stateMutability": "nonpayable",
      "type": "function"
    },
    {
      "inputs": [],
      "name": "beginWork",
      "outputs": [],
      "stateMutability": "nonpayable",
      "type": "function"
    },
    {
      "inputs": [
        {
          "internalType": "address",
          "name": "account",
          "type": "address"
        },
        {
          "internalType": "uint256",
          "name": "id",
          "type": "uint256"
        },
        {
          "internalType": "uint256",
          "name": "value",
          "type": "uint256"
        }
      ],
      "name": "burn",
      "outputs": [],
      "stateMutability": "nonpayable",
      "type": "function"
    },
    {
      "inputs": [
        {
          "internalType": "address",
          "name": "account",
          "type": "address"
        },
        {
          "internalType": "uint256[]",
          "name": "ids",
          "type": "uint256[]"
        },
        {
          "internalType": "uint256[]",
          "name": "values",
          "type": "uint256[]"
        }
      ],
      "name": "burnBatch",
      "outputs": [],
      "stateMutability": "nonpayable",
      "type": "function"
    },
    {
      "inputs": [
        {
          "internalType": "uint256",
          "name": "id",
          "type": "uint256"
        },
        {
          "internalType": "uint256",
          "name": "amount",
          "type": "uint256"
        },
        {
          "internalType": "bytes",
          "name": "data",
          "type": "bytes"
        }
      ],
      "name": "buyItem",
      "outputs": [],
      "stateMutability": "nonpayable",
      "type": "function"
    },
    {
      "inputs": [
        {
          "internalType": "uint256",
          "name": "x",
          "type": "uint256"
        },
        {
          "internalType": "uint256",
          "name": "y",
          "type": "uint256"
        },
        {
          "internalType": "string",
          "name": "name",
          "type": "string"
        },
        {
          "internalType": "string",
          "name": "description",
          "type": "string"
        }
      ],
      "name": "createVillage",
      "outputs": [],
      "stateMutability": "nonpayable",
      "type": "function"
    },
    {
      "inputs": [
        {
          "internalType": "bytes32",
          "name": "role",
          "type": "bytes32"
        }
      ],
      "name": "getRoleAdmin",
      "outputs": [
        {
          "internalType": "bytes32",
          "name": "",
          "type": "bytes32"
        }
      ],
      "stateMutability": "view",
      "type": "function"
    },
    {
      "inputs": [
        {
          "internalType": "bytes32",
          "name": "role",
          "type": "bytes32"
        },
        {
          "internalType": "address",
          "name": "account",
          "type": "address"
        }
      ],
      "name": "grantRole",
      "outputs": [],
      "stateMutability": "nonpayable",
      "type": "function"
    },
    {
      "inputs": [
        {
          "internalType": "bytes32",
          "name": "role",
          "type": "bytes32"
        },
        {
          "internalType": "address",
          "name": "account",
          "type": "address"
        }
      ],
      "name": "hasRole",
      "outputs": [
        {
          "internalType": "bool",
          "name": "",
          "type": "bool"
        }
      ],
      "stateMutability": "view",
      "type": "function"
    },
    {
      "inputs": [
        {
          "internalType": "address",
          "name": "account",
          "type": "address"
        },
        {
          "internalType": "address",
          "name": "operator",
          "type": "address"
        }
      ],
      "name": "isApprovedForAll",
      "outputs": [
        {
          "internalType": "bool",
          "name": "",
          "type": "bool"
        }
      ],
      "stateMutability": "view",
      "type": "function"
    },
    {
      "inputs": [
        {
          "internalType": "bytes32",
          "name": "role",
          "type": "bytes32"
        },
        {
          "internalType": "address",
          "name": "account",
          "type": "address"
        }
      ],
      "name": "renounceRole",
      "outputs": [],
      "stateMutability": "nonpayable",
      "type": "function"
    },
    {
      "inputs": [],
      "name": "resolveMove",
      "outputs": [],
      "stateMutability": "nonpayable",
      "type": "function"
    },
    {
      "inputs": [],
      "name": "resolveWork",
      "outputs": [],
      "stateMutability": "nonpayable",
      "type": "function"
    },
    {
      "inputs": [
        {
          "internalType": "bytes32",
          "name": "role",
          "type": "bytes32"
        },
        {
          "internalType": "address",
          "name": "account",
          "type": "address"
        }
      ],
      "name": "revokeRole",
      "outputs": [],
      "stateMutability": "nonpayable",
      "type": "function"
    },
    {
      "inputs": [
        {
          "internalType": "address",
          "name": "from",
          "type": "address"
        },
        {
          "internalType": "address",
          "name": "to",
          "type": "address"
        },
        {
          "internalType": "uint256[]",
          "name": "ids",
          "type": "uint256[]"
        },
        {
          "internalType": "uint256[]",
          "name": "amounts",
          "type": "uint256[]"
        },
        {
          "internalType": "bytes",
          "name": "data",
          "type": "bytes"
        }
      ],
      "name": "safeBatchTransferFrom",
      "outputs": [],
      "stateMutability": "nonpayable",
      "type": "function"
    },
    {
      "inputs": [
        {
          "internalType": "address",
          "name": "from",
          "type": "address"
        },
        {
          "internalType": "address",
          "name": "to",
          "type": "address"
        },
        {
          "internalType": "uint256",
          "name": "id",
          "type": "uint256"
        },
        {
          "internalType": "uint256",
          "name": "amount",
          "type": "uint256"
        },
        {
          "internalType": "bytes",
          "name": "data",
          "type": "bytes"
        }
      ],
      "name": "safeTransferFrom",
      "outputs": [],
      "stateMutability": "nonpayable",
      "type": "function"
    },
    {
      "inputs": [
        {
          "internalType": "address",
          "name": "operator",
          "type": "address"
        },
        {
          "internalType": "bool",
          "name": "approved",
          "type": "bool"
        }
      ],
      "name": "setApprovalForAll",
      "outputs": [],
      "stateMutability": "nonpayable",
      "type": "function"
    },
    {
      "inputs": [],
      "name": "start",
      "outputs": [],
      "stateMutability": "nonpayable",
      "type": "function"
    },
    {
      "inputs": [
        {
          "internalType": "bytes4",
          "name": "interfaceId",
          "type": "bytes4"
        }
      ],
      "name": "supportsInterface",
      "outputs": [
        {
          "internalType": "bool",
          "name": "",
          "type": "bool"
        }
      ],
      "stateMutability": "view",
      "type": "function"
    },
    {
      "inputs": [
        {
          "internalType": "uint256",
          "name": "",
          "type": "uint256"
        }
      ],
      "name": "uri",
      "outputs": [
        {
          "internalType": "string",
          "name": "",
          "type": "string"
        }
      ],
      "stateMutability": "view",
      "type": "function"
    }
  ],
  "transactionHash": "0x7b3b56f69d026d0f60c69521e20790c1ae23e8e83a71c16328aacd81aeebca37",
  "args": [
    "0x15B12b8dB6665B31E15Da26275fD54590f2E989c",
    "0x08AF898e65493D8212c8981FAdF60Ff023A91150",
    "0x4f96fe3b7a6cf9725f59d353f723c1bdb64ca6aa"
  ],
  "numDeployments": 1,
  "solcInputHash": "64c0b031d6d26b079bb3546896a9615e",
  "bytecode": "0x60806040523480156200001157600080fd5b50604051620052cf380380620052cf833981016040819052620000349162000222565b6040805160208101909152600081526200004e81620000a2565b50600480546001600160a01b038086166001600160a01b03199283161790925560058054858416908316179055600680549284169290911691909117905562000099600033620000bb565b505050620002a9565b8051620000b79060029060208401906200015f565b5050565b60008281526003602090815260408083206001600160a01b038516845290915290205460ff16620000b75760008281526003602090815260408083206001600160a01b03851684529091529020805460ff191660011790556200011b3390565b6001600160a01b0316816001600160a01b0316837f2f8788117e7eff1d82e926ec794901d17c78024a50270940304540a733656f0d60405160405180910390a45050565b8280546200016d906200026c565b90600052602060002090601f016020900481019282620001915760008555620001dc565b82601f10620001ac57805160ff1916838001178555620001dc565b82800160010185558215620001dc579182015b82811115620001dc578251825591602001919060010190620001bf565b50620001ea929150620001ee565b5090565b5b80821115620001ea5760008155600101620001ef565b80516001600160a01b03811681146200021d57600080fd5b919050565b6000806000606084860312156200023857600080fd5b620002438462000205565b9250620002536020850162000205565b9150620002636040850162000205565b90509250925092565b600181811c908216806200028157607f821691505b60208210811415620002a357634e487b7160e01b600052602260045260246000fd5b50919050565b61501680620002b96000396000f3fe60806040523480156200001157600080fd5b5060043610620001b85760003560e01c80636b20c45411620000f5578063dd32291e1162000097578063ed82f76e116200006e578063ed82f76e1462000425578063f242432a146200042f578063f5298aca146200044657600080fd5b8063dd32291e14620003b8578063e985e9c514620003cf578063eaa6e988146200041b57600080fd5b8063a22cb46511620000cc578063a22cb4651462000380578063be9a65551462000397578063d547741f14620003a157600080fd5b80636b20c454146200031757806391d14854146200032e578063a217fddf146200037757600080fd5b80632eb2c2d6116200015f57806336568abe116200013657806336568abe14620002d057806339f4935314620002e75780634e1273f414620002f157600080fd5b80632eb2c2d6146200028b5780632f2ff15d14620002a25780633237c11814620002b957600080fd5b80630e89341c11620001945780630e89341c146200022857806321bd4fea146200024e578063248a9ca3146200026557600080fd5b8062fdd58e14620001bd57806301ffc9a714620001e757806308442f0f146200020f575b600080fd5b620001d4620001ce36600462003176565b6200045d565b6040519081526020015b60405180910390f35b620001fe620001f8366004620031d5565b6200053b565b6040519015158152602001620001de565b620002266200022036600462003241565b6200054e565b005b6200023f62000239366004620032cb565b620006a6565b604051620001de919062003364565b620002266200025f366004620034df565b62000742565b620001d462000276366004620032cb565b60009081526003602052604090206001015490565b620002266200029c366004620036b7565b62000863565b62000226620002b33660046200376f565b62000933565b62000226620002ca3660046200379e565b6200095d565b62000226620002e13660046200376f565b62000c43565b6200022662000cfa565b6200030862000302366004620037f2565b62000ed7565b604051620001de919062003909565b62000226620003283660046200391e565b62001044565b620001fe6200033f3660046200376f565b600091825260036020908152604080842073ffffffffffffffffffffffffffffffffffffffff93909316845291905290205460ff1690565b620001d4600081565b6200022662000391366004620039a0565b6200110b565b6200022662001118565b62000226620003b23660046200376f565b62001164565b62000226620003c9366004620039dc565b6200118e565b620001fe620003e0366004620039ff565b73ffffffffffffffffffffffffffffffffffffffff918216600090815260016020908152604080832093909416825291909152205460ff1690565b62000226620012e1565b620002266200139a565b620002266200044036600462003a2e565b620015e5565b620002266200045736600462003a9b565b620016ae565b600073ffffffffffffffffffffffffffffffffffffffff831662000508576040517f08c379a000000000000000000000000000000000000000000000000000000000815260206004820152602b60248201527f455243313135353a2062616c616e636520717565727920666f7220746865207a60448201527f65726f206164647265737300000000000000000000000000000000000000000060648201526084015b60405180910390fd5b5060009081526020818152604080832073ffffffffffffffffffffffffffffffffffffffff949094168352929052205490565b6000620005488262001775565b92915050565b60006200055c8133620017ce565b6000878152600a6020908152604080832089845290915290206200058281878762002ffd565b506200059360018201858562002ffd565b5060045460055460065460405173ffffffffffffffffffffffffffffffffffffffff938416939283169290911690620005cc90620030aa565b73ffffffffffffffffffffffffffffffffffffffff938416815291831660208301529091166040820152606001604051809103906000f08015801562000616573d6000803e3d6000fd5b506002820180547fffffffffffffffffffffffff00000000000000000000000000000000000000001673ffffffffffffffffffffffffffffffffffffffff929092169190911790556040517f4d12add3655c69fea82629afabe2553d79df959c03e8f3d821e0b018bbaf12d29062000694908a908a90859062003c06565b60405180910390a15050505050505050565b606060028054620006b79062003ad1565b80601f0160208091040260200160405190810160405280929190818152602001828054620006e59062003ad1565b8015620007365780601f106200070a5761010080835404028352916020019162000736565b820191906000526020600020905b8154815290600101906020018083116200071857829003601f168201915b50505050509050919050565b6000620007508133620017ce565b60005b82518110156200085e57600783828151811062000774576200077462003c94565b602090810291909101810151825460018101845560009384529282902081518051929460040290910192620007af92849290910190620030b8565b506020828101518051620007ca9260018501920190620030b8565b50604082015160028201556060909101516003909101556007547f472519dff5695dc04989f8e1fb8c1a37f9738b62d155fe50afab1b40fd909add90620008149060019062003cf2565b84838151811062000829576200082962003c94565b60200260200101516040516200084192919062003d0c565b60405180910390a180620008558162003d8f565b91505062000753565b505050565b73ffffffffffffffffffffffffffffffffffffffff85163314806200088f57506200088f8533620003e0565b6200091d576040517f08c379a000000000000000000000000000000000000000000000000000000000815260206004820152603260248201527f455243313135353a207472616e736665722063616c6c6572206973206e6f742060448201527f6f776e6572206e6f7220617070726f76656400000000000000000000000000006064820152608401620004ff565b6200092c8585858585620018a9565b5050505050565b600082815260036020526040902060010154620009518133620017ce565b6200085e838362001bf9565b336000908152600860205260409020600281015415620009da576040517f08c379a000000000000000000000000000000000000000000000000000000000815260206004820152601160248201527f506c61796572206973206d6f76696e672e0000000000000000000000000000006044820152606401620004ff565b80546000908152600a602090815260408083206001850154845290915290206002015473ffffffffffffffffffffffffffffffffffffffff1662000a7b576040517f08c379a000000000000000000000000000000000000000000000000000000000815260206004820152601960248201527f506c61796572206973206e6f7420696e2076696c6c6167652e000000000000006044820152606401620004ff565b6000836007868154811062000a945762000a9462003c94565b90600052602060002090600402016002015462000ab2919062003dcb565b60065483546000908152600a6020908152604080832060018801548452909152908190206002015490517f23b872dd00000000000000000000000000000000000000000000000000000000815233600482015273ffffffffffffffffffffffffffffffffffffffff91821660248201526044810184905292935016906323b872dd90606401602060405180830381600087803b15801562000b5257600080fd5b505af115801562000b67573d6000803e3d6000fd5b505050506040513d601f19601f8201168201806040525081019062000b8d919062003e0b565b5081546000908152600a6020908152604080832060018601548452909152908190206002015490517fa694fc3a0000000000000000000000000000000000000000000000000000000081526004810183905273ffffffffffffffffffffffffffffffffffffffff9091169063a694fc3a90602401600060405180830381600087803b15801562000c1c57600080fd5b505af115801562000c31573d6000803e3d6000fd5b505050506200092c3386868662001cef565b73ffffffffffffffffffffffffffffffffffffffff8116331462000cea576040517f08c379a000000000000000000000000000000000000000000000000000000000815260206004820152602f60248201527f416363657373436f6e74726f6c3a2063616e206f6e6c792072656e6f756e636560448201527f20726f6c657320666f722073656c6600000000000000000000000000000000006064820152608401620004ff565b62000cf6828262001e61565b5050565b33600090815260086020526040902060038101541562000d77576040517f08c379a000000000000000000000000000000000000000000000000000000000815260206004820152601a60248201527f506c6179657220697320616c726561647920776f726b696e672e0000000000006044820152606401620004ff565b60028101541562000de5576040517f08c379a000000000000000000000000000000000000000000000000000000000815260206004820152601160248201527f506c61796572206973206d6f76696e672e0000000000000000000000000000006044820152606401620004ff565b80546000908152600a602090815260408083206001850154845290915290206002015473ffffffffffffffffffffffffffffffffffffffff1662000e86576040517f08c379a000000000000000000000000000000000000000000000000000000000815260206004820152601960248201527f506c61796572206973206e6f7420696e2076696c6c6167652e000000000000006044820152606401620004ff565b62000e93603c4262003e2b565b60038201556040517f7bc828b6a58a1f5e256d4cc1870e8cf6b0b8bb7e0f1fe93d86f1fe2a692603469062000ecc903390849062003e46565b60405180910390a150565b6060815183511462000f6c576040517f08c379a000000000000000000000000000000000000000000000000000000000815260206004820152602960248201527f455243313135353a206163636f756e747320616e6420696473206c656e67746860448201527f206d69736d6174636800000000000000000000000000000000000000000000006064820152608401620004ff565b6000835167ffffffffffffffff81111562000f8b5762000f8b62003379565b60405190808252806020026020018201604052801562000fb5578160200160208202803683370190505b50905060005b84518110156200103c576200100985828151811062000fde5762000fde62003c94565b602002602001015185838151811062000ffb5762000ffb62003c94565b60200260200101516200045d565b8282815181106200101e576200101e62003c94565b6020908102919091010152620010348162003d8f565b905062000fbb565b509392505050565b73ffffffffffffffffffffffffffffffffffffffff8316331480620010705750620010708333620003e0565b620010fe576040517f08c379a000000000000000000000000000000000000000000000000000000000815260206004820152602960248201527f455243313135353a2063616c6c6572206973206e6f74206f776e6572206e6f7260448201527f20617070726f76656400000000000000000000000000000000000000000000006064820152608401620004ff565b6200085e83838362001f1d565b62000cf633838362002248565b336000818152600860205260409081902090517ffff2e3e43c22bd70cecbdf0c27bffa5bc2fd8fc5eeb1a5b2c33fff2780ddb526926200115a92909162003e46565b60405180910390a1565b600082815260036020526040902060010154620011828133620017ce565b6200085e838362001e61565b3360009081526008602052604090206002810154156200120b576040517f08c379a000000000000000000000000000000000000000000000000000000000815260206004820152601960248201527f506c6179657220697320616c7265616479206d6f76696e672e000000000000006044820152606401620004ff565b806001015482116200122f5781816001015462001229919062003cf2565b62001240565b600181015462001240908362003cf2565b815484116200125e5781546200125890859062003cf2565b6200126c565b81546200126c908562003cf2565b62001278919062003e2b565b6200128590600f62003dcb565b62001291904262003e2b565b6002820155828155600181018290556040517f4541bcf9aff4fc019ede54a2c4ca377721f8a8f967508c91fee35ee32573b29790620012d4903390849062003e46565b60405180910390a1505050565b336000908152600860205260409020600281015442116200135f576040517f08c379a000000000000000000000000000000000000000000000000000000000815260206004820152601f60248201527f506c61796572206a6f75726e6579206973206e6f7420636f6d706c6574652e006044820152606401620004ff565b600060028201556040517f3b23ed2190126132fde9e7add1f17727bec17e24106c53fa4221607930189dfe9062000ecc903390849062003e46565b336000908152600860205260409020600381015462001416576040517f08c379a000000000000000000000000000000000000000000000000000000000815260206004820152601760248201527f506c61796572206d75737420626520776f726b696e672e0000000000000000006044820152606401620004ff565b80600301544211620014ab576040517f08c379a000000000000000000000000000000000000000000000000000000000815260206004820152602260248201527f506c6179657220776f726b20686173206e6f7420636f6d706c6574656420796560448201527f742e0000000000000000000000000000000000000000000000000000000000006064820152608401620004ff565b600060038201819055815481526009602090815260408083206001850154845290915281208054670de0b6b3a76400009290620014ea90849062003e2b565b909155505080546000818152600a6020908152604080832060018601548085529083528184206002015494845260098352818420908452909152908190205490517f43fbb8f5000000000000000000000000000000000000000000000000000000008152336004820152602481019190915273ffffffffffffffffffffffffffffffffffffffff909116906343fbb8f590604401600060405180830381600087803b1580156200159957600080fd5b505af1158015620015ae573d6000803e3d6000fd5b505050507ff76efeab9f77c8b34ecc6d88fe72ba43c487b6616e9b18d99992856f71e8d390338260405162000ecc92919062003e46565b73ffffffffffffffffffffffffffffffffffffffff8516331480620016115750620016118533620003e0565b6200169f576040517f08c379a000000000000000000000000000000000000000000000000000000000815260206004820152602960248201527f455243313135353a2063616c6c6572206973206e6f74206f776e6572206e6f7260448201527f20617070726f76656400000000000000000000000000000000000000000000006064820152608401620004ff565b6200092c85858585856200239e565b73ffffffffffffffffffffffffffffffffffffffff8316331480620016da5750620016da8333620003e0565b62001768576040517f08c379a000000000000000000000000000000000000000000000000000000000815260206004820152602960248201527f455243313135353a2063616c6c6572206973206e6f74206f776e6572206e6f7260448201527f20617070726f76656400000000000000000000000000000000000000000000006064820152608401620004ff565b6200085e838383620025da565b60007fffffffff0000000000000000000000000000000000000000000000000000000082167f7965db0b0000000000000000000000000000000000000000000000000000000014806200054857506200054882620027eb565b600082815260036020908152604080832073ffffffffffffffffffffffffffffffffffffffff8516845290915290205460ff1662000cf657620018298173ffffffffffffffffffffffffffffffffffffffff166014620028d1565b62001836836020620028d1565b6040516020016200184992919062003e8e565b604080517fffffffffffffffffffffffffffffffffffffffffffffffffffffffffffffffe0818403018152908290527f08c379a0000000000000000000000000000000000000000000000000000000008252620004ff9160040162003364565b81518351146200193c576040517f08c379a000000000000000000000000000000000000000000000000000000000815260206004820152602860248201527f455243313135353a2069647320616e6420616d6f756e7473206c656e6774682060448201527f6d69736d617463680000000000000000000000000000000000000000000000006064820152608401620004ff565b73ffffffffffffffffffffffffffffffffffffffff8416620019e1576040517f08c379a000000000000000000000000000000000000000000000000000000000815260206004820152602560248201527f455243313135353a207472616e7366657220746f20746865207a65726f20616460448201527f64726573730000000000000000000000000000000000000000000000000000006064820152608401620004ff565b3360005b845181101562001b6057600085828151811062001a065762001a0662003c94565b60200260200101519050600085838151811062001a275762001a2762003c94565b6020908102919091018101516000848152808352604080822073ffffffffffffffffffffffffffffffffffffffff8e16835290935291909120549091508181101562001af6576040517f08c379a000000000000000000000000000000000000000000000000000000000815260206004820152602a60248201527f455243313135353a20696e73756666696369656e742062616c616e636520666f60448201527f72207472616e73666572000000000000000000000000000000000000000000006064820152608401620004ff565b60008381526020818152604080832073ffffffffffffffffffffffffffffffffffffffff8e8116855292528083208585039055908b1682528120805484929062001b4290849062003e2b565b925050819055505050508062001b589062003d8f565b9050620019e5565b508473ffffffffffffffffffffffffffffffffffffffff168673ffffffffffffffffffffffffffffffffffffffff168273ffffffffffffffffffffffffffffffffffffffff167f4a39dc06d4c0dbc64b70af90fd698a233a518aa5d07e595d983b8c0526c8f7fb878760405162001bd992919062003f13565b60405180910390a462001bf181878787878762002b39565b505050505050565b600082815260036020908152604080832073ffffffffffffffffffffffffffffffffffffffff8516845290915290205460ff1662000cf657600082815260036020908152604080832073ffffffffffffffffffffffffffffffffffffffff85168452909152902080547fffffffffffffffffffffffffffffffffffffffffffffffffffffffffffffff0016600117905562001c913390565b73ffffffffffffffffffffffffffffffffffffffff168173ffffffffffffffffffffffffffffffffffffffff16837f2f8788117e7eff1d82e926ec794901d17c78024a50270940304540a733656f0d60405160405180910390a45050565b73ffffffffffffffffffffffffffffffffffffffff841662001d94576040517f08c379a000000000000000000000000000000000000000000000000000000000815260206004820152602160248201527f455243313135353a206d696e7420746f20746865207a65726f2061646472657360448201527f73000000000000000000000000000000000000000000000000000000000000006064820152608401620004ff565b3362001db38160008762001da88862002de7565b6200092c8862002de7565b60008481526020818152604080832073ffffffffffffffffffffffffffffffffffffffff891684529091528120805485929062001df290849062003e2b565b9091555050604080518581526020810185905273ffffffffffffffffffffffffffffffffffffffff80881692600092918516917fc3d58168c5ae7397731d063d5bbf3d657854427343f4c083240f7aacaa2d0f62910160405180910390a46200092c8160008787878762002e35565b600082815260036020908152604080832073ffffffffffffffffffffffffffffffffffffffff8516845290915290205460ff161562000cf657600082815260036020908152604080832073ffffffffffffffffffffffffffffffffffffffff8516808552925280832080547fffffffffffffffffffffffffffffffffffffffffffffffffffffffffffffff0016905551339285917ff6391f5c32d9c69d2a47ea670b442974b53935d1edc7fd64eb21e047a839171b9190a45050565b73ffffffffffffffffffffffffffffffffffffffff831662001fc2576040517f08c379a000000000000000000000000000000000000000000000000000000000815260206004820152602360248201527f455243313135353a206275726e2066726f6d20746865207a65726f206164647260448201527f65737300000000000000000000000000000000000000000000000000000000006064820152608401620004ff565b805182511462002055576040517f08c379a000000000000000000000000000000000000000000000000000000000815260206004820152602860248201527f455243313135353a2069647320616e6420616d6f756e7473206c656e6774682060448201527f6d69736d617463680000000000000000000000000000000000000000000000006064820152608401620004ff565b604080516020810190915260009081905233905b8351811015620021c05760008482815181106200208a576200208a62003c94565b602002602001015190506000848381518110620020ab57620020ab62003c94565b6020908102919091018101516000848152808352604080822073ffffffffffffffffffffffffffffffffffffffff8c16835290935291909120549091508181101562002179576040517f08c379a0000000000000000000000000000000000000000000000000000000008152602060048201526024808201527f455243313135353a206275726e20616d6f756e7420657863656564732062616c60448201527f616e6365000000000000000000000000000000000000000000000000000000006064820152608401620004ff565b60009283526020838152604080852073ffffffffffffffffffffffffffffffffffffffff8b1686529091529092209103905580620021b78162003d8f565b91505062002069565b50600073ffffffffffffffffffffffffffffffffffffffff168473ffffffffffffffffffffffffffffffffffffffff168273ffffffffffffffffffffffffffffffffffffffff167f4a39dc06d4c0dbc64b70af90fd698a233a518aa5d07e595d983b8c0526c8f7fb86866040516200223a92919062003f13565b60405180910390a450505050565b8173ffffffffffffffffffffffffffffffffffffffff168373ffffffffffffffffffffffffffffffffffffffff16141562002306576040517f08c379a000000000000000000000000000000000000000000000000000000000815260206004820152602960248201527f455243313135353a2073657474696e6720617070726f76616c2073746174757360448201527f20666f722073656c6600000000000000000000000000000000000000000000006064820152608401620004ff565b73ffffffffffffffffffffffffffffffffffffffff83811660008181526001602090815260408083209487168084529482529182902080547fffffffffffffffffffffffffffffffffffffffffffffffffffffffffffffff001686151590811790915591519182527f17307eab39ab6107e8899845ad3d59bd9653f200f220920489ca2b5937696c31910160405180910390a3505050565b73ffffffffffffffffffffffffffffffffffffffff841662002443576040517f08c379a000000000000000000000000000000000000000000000000000000000815260206004820152602560248201527f455243313135353a207472616e7366657220746f20746865207a65726f20616460448201527f64726573730000000000000000000000000000000000000000000000000000006064820152608401620004ff565b336200245681878762001da88862002de7565b60008481526020818152604080832073ffffffffffffffffffffffffffffffffffffffff8a1684529091529020548381101562002516576040517f08c379a000000000000000000000000000000000000000000000000000000000815260206004820152602a60248201527f455243313135353a20696e73756666696369656e742062616c616e636520666f60448201527f72207472616e73666572000000000000000000000000000000000000000000006064820152608401620004ff565b60008581526020818152604080832073ffffffffffffffffffffffffffffffffffffffff8b81168552925280832087850390559088168252812080548692906200256290849062003e2b565b9091555050604080518681526020810186905273ffffffffffffffffffffffffffffffffffffffff808916928a821692918616917fc3d58168c5ae7397731d063d5bbf3d657854427343f4c083240f7aacaa2d0f62910160405180910390a4620025d182888888888862002e35565b50505050505050565b73ffffffffffffffffffffffffffffffffffffffff83166200267f576040517f08c379a000000000000000000000000000000000000000000000000000000000815260206004820152602360248201527f455243313135353a206275726e2066726f6d20746865207a65726f206164647260448201527f65737300000000000000000000000000000000000000000000000000000000006064820152608401620004ff565b33620026b481856000620026938762002de7565b6200269e8762002de7565b5050604080516020810190915260009052505050565b60008381526020818152604080832073ffffffffffffffffffffffffffffffffffffffff881684529091529020548281101562002773576040517f08c379a0000000000000000000000000000000000000000000000000000000008152602060048201526024808201527f455243313135353a206275726e20616d6f756e7420657863656564732062616c60448201527f616e6365000000000000000000000000000000000000000000000000000000006064820152608401620004ff565b60008481526020818152604080832073ffffffffffffffffffffffffffffffffffffffff898116808652918452828520888703905582518981529384018890529092908616917fc3d58168c5ae7397731d063d5bbf3d657854427343f4c083240f7aacaa2d0f62910160405180910390a45050505050565b60007fffffffff0000000000000000000000000000000000000000000000000000000082167fd9b67a260000000000000000000000000000000000000000000000000000000014806200287f57507fffffffff0000000000000000000000000000000000000000000000000000000082167f0e89341c00000000000000000000000000000000000000000000000000000000145b806200054857507f01ffc9a7000000000000000000000000000000000000000000000000000000007fffffffff0000000000000000000000000000000000000000000000000000000083161462000548565b60606000620028e283600262003dcb565b620028ef90600262003e2b565b67ffffffffffffffff8111156200290a576200290a62003379565b6040519080825280601f01601f19166020018201604052801562002935576020820181803683370190505b5090507f3000000000000000000000000000000000000000000000000000000000000000816000815181106200296f576200296f62003c94565b60200101907effffffffffffffffffffffffffffffffffffffffffffffffffffffffffffff1916908160001a9053507f780000000000000000000000000000000000000000000000000000000000000081600181518110620029d557620029d562003c94565b60200101907effffffffffffffffffffffffffffffffffffffffffffffffffffffffffffff1916908160001a905350600062002a1384600262003dcb565b62002a2090600162003e2b565b90505b600181111562002ac7577f303132333435363738396162636465660000000000000000000000000000000085600f166010811062002a655762002a6562003c94565b1a60f81b82828151811062002a7e5762002a7e62003c94565b60200101907effffffffffffffffffffffffffffffffffffffffffffffffffffffffffffff1916908160001a90535060049490941c9362002abf8162003f45565b905062002a23565b50831562002b32576040517f08c379a000000000000000000000000000000000000000000000000000000000815260206004820181905260248201527f537472696e67733a20686578206c656e67746820696e73756666696369656e746044820152606401620004ff565b9392505050565b73ffffffffffffffffffffffffffffffffffffffff84163b1562001bf1576040517fbc197c8100000000000000000000000000000000000000000000000000000000815273ffffffffffffffffffffffffffffffffffffffff85169063bc197c819062002bb3908990899088908890889060040162003f7d565b602060405180830381600087803b15801562002bce57600080fd5b505af192505050801562002c1f575060408051601f3d9081017fffffffffffffffffffffffffffffffffffffffffffffffffffffffffffffffe016820190925262002c1c9181019062003fee565b60015b62002d145762002c2e6200400e565b806308c379a0141562002c89575062002c466200402b565b8062002c53575062002c8b565b806040517f08c379a0000000000000000000000000000000000000000000000000000000008152600401620004ff919062003364565b505b6040517f08c379a000000000000000000000000000000000000000000000000000000000815260206004820152603460248201527f455243313135353a207472616e7366657220746f206e6f6e204552433131353560448201527f526563656976657220696d706c656d656e7465720000000000000000000000006064820152608401620004ff565b7fffffffff0000000000000000000000000000000000000000000000000000000081167fbc197c810000000000000000000000000000000000000000000000000000000014620025d1576040517f08c379a000000000000000000000000000000000000000000000000000000000815260206004820152602860248201527f455243313135353a204552433131353552656365697665722072656a6563746560448201527f6420746f6b656e730000000000000000000000000000000000000000000000006064820152608401620004ff565b6040805160018082528183019092526060916000919060208083019080368337019050509050828160008151811062002e245762002e2462003c94565b602090810291909101015292915050565b73ffffffffffffffffffffffffffffffffffffffff84163b1562001bf1576040517ff23a6e6100000000000000000000000000000000000000000000000000000000815273ffffffffffffffffffffffffffffffffffffffff85169063f23a6e619062002eaf9089908990889088908890600401620040d9565b602060405180830381600087803b15801562002eca57600080fd5b505af192505050801562002f1b575060408051601f3d9081017fffffffffffffffffffffffffffffffffffffffffffffffffffffffffffffffe016820190925262002f189181019062003fee565b60015b62002f2a5762002c2e6200400e565b7fffffffff0000000000000000000000000000000000000000000000000000000081167ff23a6e610000000000000000000000000000000000000000000000000000000014620025d1576040517f08c379a000000000000000000000000000000000000000000000000000000000815260206004820152602860248201527f455243313135353a204552433131353552656365697665722072656a6563746560448201527f6420746f6b656e730000000000000000000000000000000000000000000000006064820152608401620004ff565b8280546200300b9062003ad1565b90600052602060002090601f0160209004810192826200302f576000855562003098565b82601f1062003068578280017fffffffffffffffffffffffffffffffffffffffffffffffffffffffffffffff0082351617855562003098565b8280016001018555821562003098579182015b82811115620030985782358255916020019190600101906200307b565b50620030a692915062003135565b5090565b610eb5806200412c83390190565b828054620030c69062003ad1565b90600052602060002090601f016020900481019282620030ea576000855562003098565b82601f106200310557805160ff191683800117855562003098565b8280016001018555821562003098579182015b828111156200309857825182559160200191906001019062003118565b5b80821115620030a6576000815560010162003136565b803573ffffffffffffffffffffffffffffffffffffffff811681146200317157600080fd5b919050565b600080604083850312156200318a57600080fd5b62003195836200314c565b946020939093013593505050565b7fffffffff0000000000000000000000000000000000000000000000000000000081168114620031d257600080fd5b50565b600060208284031215620031e857600080fd5b813562002b3281620031a3565b60008083601f8401126200320857600080fd5b50813567ffffffffffffffff8111156200322157600080fd5b6020830191508360208285010111156200323a57600080fd5b9250929050565b600080600080600080608087890312156200325b57600080fd5b8635955060208701359450604087013567ffffffffffffffff808211156200328257600080fd5b620032908a838b01620031f5565b90965094506060890135915080821115620032aa57600080fd5b50620032b989828a01620031f5565b979a9699509497509295939492505050565b600060208284031215620032de57600080fd5b5035919050565b60005b8381101562003302578181015183820152602001620032e8565b8381111562003312576000848401525b50505050565b6000815180845262003332816020860160208601620032e5565b601f017fffffffffffffffffffffffffffffffffffffffffffffffffffffffffffffffe0169290920160200192915050565b60208152600062002b32602083018462003318565b7f4e487b7100000000000000000000000000000000000000000000000000000000600052604160045260246000fd5b6080810181811067ffffffffffffffff82111715620033cb57620033cb62003379565b60405250565b7fffffffffffffffffffffffffffffffffffffffffffffffffffffffffffffffe0601f830116810181811067ffffffffffffffff8211171562003418576200341862003379565b6040525050565b600067ffffffffffffffff8211156200343c576200343c62003379565b5060051b60200190565b600082601f8301126200345857600080fd5b813567ffffffffffffffff81111562003475576200347562003379565b604051620034ac60207fffffffffffffffffffffffffffffffffffffffffffffffffffffffffffffffe0601f8501160182620033d1565b818152846020838601011115620034c257600080fd5b816020850160208301376000918101602001919091529392505050565b60006020808385031215620034f357600080fd5b823567ffffffffffffffff808211156200350c57600080fd5b818501915085601f8301126200352157600080fd5b81356200352e816200341f565b604080516200353e8382620033d1565b83815260059390931b85018601928681019250898411156200355f57600080fd5b8686015b8481101562003630578035868111156200357d5760008081fd5b87016080818d037fffffffffffffffffffffffffffffffffffffffffffffffffffffffffffffffe001811315620035b45760008081fd5b8451620035c181620033a8565b8a83013589811115620035d45760008081fd5b620035e48f8d8387010162003446565b8252508583013589811115620035fa5760008081fd5b6200360a8f8d8387010162003446565b828d01525060608381013587830152919092013590820152845292870192870162003563565b509998505050505050505050565b600082601f8301126200365057600080fd5b813560206200365f826200341f565b6040516200366e8282620033d1565b83815260059390931b85018201928281019150868411156200368f57600080fd5b8286015b84811015620036ac578035835291830191830162003693565b509695505050505050565b600080600080600060a08688031215620036d057600080fd5b620036db866200314c565b9450620036eb602087016200314c565b9350604086013567ffffffffffffffff808211156200370957600080fd5b6200371789838a016200363e565b945060608801359150808211156200372e57600080fd5b6200373c89838a016200363e565b935060808801359150808211156200375357600080fd5b50620037628882890162003446565b9150509295509295909350565b600080604083850312156200378357600080fd5b8235915062003795602084016200314c565b90509250929050565b600080600060608486031215620037b457600080fd5b8335925060208401359150604084013567ffffffffffffffff811115620037da57600080fd5b620037e88682870162003446565b9150509250925092565b600080604083850312156200380657600080fd5b823567ffffffffffffffff808211156200381f57600080fd5b818501915085601f8301126200383457600080fd5b8135602062003843826200341f565b604051620038528282620033d1565b83815260059390931b85018201928281019150898411156200387357600080fd5b948201945b838610156200389c576200388c866200314c565b8252948201949082019062003878565b96505086013592505080821115620038b357600080fd5b50620038c2858286016200363e565b9150509250929050565b600081518084526020808501945080840160005b83811015620038fe57815187529582019590820190600101620038e0565b509495945050505050565b60208152600062002b326020830184620038cc565b6000806000606084860312156200393457600080fd5b6200393f846200314c565b9250602084013567ffffffffffffffff808211156200395d57600080fd5b6200396b878388016200363e565b935060408601359150808211156200398257600080fd5b50620037e8868287016200363e565b8015158114620031d257600080fd5b60008060408385031215620039b457600080fd5b620039bf836200314c565b91506020830135620039d18162003991565b809150509250929050565b60008060408385031215620039f057600080fd5b50508035926020909101359150565b6000806040838503121562003a1357600080fd5b62003a1e836200314c565b915062003795602084016200314c565b600080600080600060a0868803121562003a4757600080fd5b62003a52866200314c565b945062003a62602087016200314c565b93506040860135925060608601359150608086013567ffffffffffffffff81111562003a8d57600080fd5b620037628882890162003446565b60008060006060848603121562003ab157600080fd5b62003abc846200314c565b95602085013595506040909401359392505050565b600181811c9082168062003ae657607f821691505b6020821081141562003b21577f4e487b7100000000000000000000000000000000000000000000000000000000600052602260045260246000fd5b50919050565b8054600090600181811c908083168062003b4257607f831692505b602080841082141562003b7e577f4e487b7100000000000000000000000000000000000000000000000000000000600052602260045260246000fd5b8388526020880182801562003b9c576001811462003bcc5762003bf9565b7fffffffffffffffffffffffffffffffffffffffffffffffffffffffffffffff0087168252828201975062003bf9565b60008981526020902060005b8781101562003bf35781548482015290860190840162003bd8565b83019850505b5050505050505092915050565b83815282602082015260606040820152606080820152600062003c2d60c083018462003b27565b7fffffffffffffffffffffffffffffffffffffffffffffffffffffffffffffffa083820301608084015262003c66816001860162003b27565b905073ffffffffffffffffffffffffffffffffffffffff60028501541660a084015280915050949350505050565b7f4e487b7100000000000000000000000000000000000000000000000000000000600052603260045260246000fd5b7f4e487b7100000000000000000000000000000000000000000000000000000000600052601160045260246000fd5b60008282101562003d075762003d0762003cc3565b500390565b82815260406020820152600082516080604084015262003d3060c084018262003318565b905060208401517fffffffffffffffffffffffffffffffffffffffffffffffffffffffffffffffc084830301606085015262003d6d828262003318565b91505060408401516080840152606084015160a0840152809150509392505050565b60007fffffffffffffffffffffffffffffffffffffffffffffffffffffffffffffffff82141562003dc45762003dc462003cc3565b5060010190565b6000817fffffffffffffffffffffffffffffffffffffffffffffffffffffffffffffffff048311821515161562003e065762003e0662003cc3565b500290565b60006020828403121562003e1e57600080fd5b815162002b328162003991565b6000821982111562003e415762003e4162003cc3565b500190565b73ffffffffffffffffffffffffffffffffffffffff831681528154602082015260018201546040820152600282015460608201526003820154608082015260a0810162002b32565b7f416363657373436f6e74726f6c3a206163636f756e742000000000000000000081526000835162003ec8816017850160208801620032e5565b7f206973206d697373696e6720726f6c6520000000000000000000000000000000601791840191820152835162003f07816028840160208801620032e5565b01602801949350505050565b60408152600062003f286040830185620038cc565b828103602084015262003f3c8185620038cc565b95945050505050565b60008162003f575762003f5762003cc3565b507fffffffffffffffffffffffffffffffffffffffffffffffffffffffffffffffff0190565b600073ffffffffffffffffffffffffffffffffffffffff808816835280871660208401525060a0604083015262003fb860a0830186620038cc565b828103606084015262003fcc8186620038cc565b9050828103608084015262003fe2818562003318565b98975050505050505050565b6000602082840312156200400157600080fd5b815162002b3281620031a3565b600060033d1115620040285760046000803e5060005160e01c5b90565b600060443d10156200403a5790565b6040517ffffffffffffffffffffffffffffffffffffffffffffffffffffffffffffffffc803d016004833e81513d67ffffffffffffffff81602484011181841117156200408957505050505090565b8285019150815181811115620040a25750505050505090565b843d8701016020828501011115620040bd5750505050505090565b620040ce60208286010187620033d1565b509095945050505050565b600073ffffffffffffffffffffffffffffffffffffffff808816835280871660208401525084604083015283606083015260a060808301526200412060a083018462003318565b97965050505050505056fe6101206040523480156200001257600080fd5b5060405162000eb538038062000eb5833981016040819052620000359162000163565b60405163e486033960e01b81526001600160a01b03808316600483015284918491849160009182919086169063e486033990602401604080518083038186803b1580156200008257600080fd5b505afa15801562000097573d6000803e3d6000fd5b505050506040513d601f19601f82011682018060405250810190620000bd9190620001ad565b6001600160a01b03968716608052861660a052851660c052505090821660e0521661010052620000ed33620000f6565b505050620001e5565b600080546001600160a01b038381166001600160a01b0319831681178455604051919092169283917f8be0079c531659141344cd1fd0a4f28419497f9722a3daafe3b4186f6b6457e09190a35050565b80516001600160a01b03811681146200015e57600080fd5b919050565b6000806000606084860312156200017957600080fd5b620001848462000146565b9250620001946020850162000146565b9150620001a46040850162000146565b90509250925092565b60008060408385031215620001c157600080fd5b620001cc8362000146565b9150620001dc6020840162000146565b90509250929050565b60805160a05160c05160e05161010051610c5b6200025a6000396000818160e901526108c3015260006102530152600061018b0152600081816101640152818161033a015281816104ae0152818161057a0152818161078201528181610894015261096f015260006102190152610c5b6000f3fe608060405234801561001057600080fd5b50600436106100df5760003560e01c8063750399f71161008c578063d02982cf11610066578063d02982cf146101fc578063ecb96fe614610214578063f2fde38b1461023b578063f70222e11461024e57600080fd5b8063750399f7146101b55780638da5cb5b146101cb578063a694fc3a146101e957600080fd5b80635c8a7687116100bd5780635c8a76871461015f5780636331563714610186578063715018a6146101ad57600080fd5b80632495a599146100e457806343fbb8f5146101355780635062e90f1461014a575b600080fd5b61010b7f000000000000000000000000000000000000000000000000000000000000000081565b60405173ffffffffffffffffffffffffffffffffffffffff90911681526020015b60405180910390f35b610148610143366004610a05565b610275565b005b610152610309565b60405161012c9190610a31565b61010b7f000000000000000000000000000000000000000000000000000000000000000081565b61010b7f000000000000000000000000000000000000000000000000000000000000000081565b6101486103f0565b6101bd61047d565b60405190815260200161012c565b60005473ffffffffffffffffffffffffffffffffffffffff1661010b565b6101486101f7366004610a8b565b61053d565b610204610549565b604051901515815260200161012c565b61010b7f000000000000000000000000000000000000000000000000000000000000000081565b610148610249366004610aa4565b610609565b61010b7f000000000000000000000000000000000000000000000000000000000000000081565b60005473ffffffffffffffffffffffffffffffffffffffff1633146102fb576040517f08c379a000000000000000000000000000000000000000000000000000000000815260206004820181905260248201527f4f776e61626c653a2063616c6c6572206973206e6f7420746865206f776e657260448201526064015b60405180910390fd5b6103058282610736565b5050565b6040517feb1484590000000000000000000000000000000000000000000000000000000081523060048201526060907f000000000000000000000000000000000000000000000000000000000000000073ffffffffffffffffffffffffffffffffffffffff169063eb1484599060240160006040518083038186803b15801561039157600080fd5b505afa1580156103a5573d6000803e3d6000fd5b505050506040513d6000823e601f3d9081017fffffffffffffffffffffffffffffffffffffffffffffffffffffffffffffffe01682016040526103eb9190810190610b07565b905090565b60005473ffffffffffffffffffffffffffffffffffffffff163314610471576040517f08c379a000000000000000000000000000000000000000000000000000000000815260206004820181905260248201527f4f776e61626c653a2063616c6c6572206973206e6f7420746865206f776e657260448201526064016102f2565b61047b60006107e2565b565b6040517f2640d9db0000000000000000000000000000000000000000000000000000000081523060048201526000907f000000000000000000000000000000000000000000000000000000000000000073ffffffffffffffffffffffffffffffffffffffff1690632640d9db9060240160206040518083038186803b15801561050557600080fd5b505afa158015610519573d6000803e3d6000fd5b505050506040513d601f19601f820116820180604052508101906103eb9190610bea565b61054681610857565b50565b6040517f21d2a5730000000000000000000000000000000000000000000000000000000081523060048201526000907f000000000000000000000000000000000000000000000000000000000000000073ffffffffffffffffffffffffffffffffffffffff16906321d2a5739060240160206040518083038186803b1580156105d157600080fd5b505afa1580156105e5573d6000803e3d6000fd5b505050506040513d601f19601f820116820180604052508101906103eb9190610c03565b60005473ffffffffffffffffffffffffffffffffffffffff16331461068a576040517f08c379a000000000000000000000000000000000000000000000000000000000815260206004820181905260248201527f4f776e61626c653a2063616c6c6572206973206e6f7420746865206f776e657260448201526064016102f2565b73ffffffffffffffffffffffffffffffffffffffff811661072d576040517f08c379a000000000000000000000000000000000000000000000000000000000815260206004820152602660248201527f4f776e61626c653a206e6577206f776e657220697320746865207a65726f206160448201527f646472657373000000000000000000000000000000000000000000000000000060648201526084016102f2565b610546816107e2565b6040517f43fbb8f500000000000000000000000000000000000000000000000000000000815273ffffffffffffffffffffffffffffffffffffffff8381166004830152602482018390527f000000000000000000000000000000000000000000000000000000000000000016906343fbb8f590604401600060405180830381600087803b1580156107c657600080fd5b505af11580156107da573d6000803e3d6000fd5b505050505050565b6000805473ffffffffffffffffffffffffffffffffffffffff8381167fffffffffffffffffffffffff0000000000000000000000000000000000000000831681178455604051919092169283917f8be0079c531659141344cd1fd0a4f28419497f9722a3daafe3b4186f6b6457e09190a35050565b6040517f095ea7b300000000000000000000000000000000000000000000000000000000815273ffffffffffffffffffffffffffffffffffffffff7f000000000000000000000000000000000000000000000000000000000000000081166004830152602482018390527f0000000000000000000000000000000000000000000000000000000000000000169063095ea7b390604401602060405180830381600087803b15801561090757600080fd5b505af115801561091b573d6000803e3d6000fd5b505050506040513d601f19601f8201168201806040525081019061093f9190610c03565b506040517fa694fc3a000000000000000000000000000000000000000000000000000000008152600481018290527f000000000000000000000000000000000000000000000000000000000000000073ffffffffffffffffffffffffffffffffffffffff169063a694fc3a90602401600060405180830381600087803b1580156109c857600080fd5b505af11580156109dc573d6000803e3d6000fd5b5050505050565b73ffffffffffffffffffffffffffffffffffffffff8116811461054657600080fd5b60008060408385031215610a1857600080fd5b8235610a23816109e3565b946020939093013593505050565b6020808252825182820181905260009190848201906040850190845b81811015610a7f57835173ffffffffffffffffffffffffffffffffffffffff1683529284019291840191600101610a4d565b50909695505050505050565b600060208284031215610a9d57600080fd5b5035919050565b600060208284031215610ab657600080fd5b8135610ac1816109e3565b9392505050565b7f4e487b7100000000000000000000000000000000000000000000000000000000600052604160045260246000fd5b8051610b02816109e3565b919050565b60006020808385031215610b1a57600080fd5b825167ffffffffffffffff80821115610b3257600080fd5b818501915085601f830112610b4657600080fd5b815181811115610b5857610b58610ac8565b8060051b6040517fffffffffffffffffffffffffffffffffffffffffffffffffffffffffffffffe0603f83011681018181108582111715610b9b57610b9b610ac8565b604052918252848201925083810185019188831115610bb957600080fd5b938501935b82851015610bde57610bcf85610af7565b84529385019392850192610bbe565b98975050505050505050565b600060208284031215610bfc57600080fd5b5051919050565b600060208284031215610c1557600080fd5b81518015158114610ac157600080fdfea2646970667358221220fe79fdc7765bc03255b02d2e068eb50a1c1dfd543dfe3c26a9e885a5338e1daf64736f6c63430008090033a26469706673582212203dfb95f95cd4297cdc4bf729039d32f043901994e14727e3dc86482029f4697564736f6c63430008090033",
  "devdoc": {
    "kind": "dev",
    "methods": {
      "balanceOf(address,uint256)": {
        "details": "See {IERC1155-balanceOf}. Requirements: - `account` cannot be the zero address."
      },
      "balanceOfBatch(address[],uint256[])": {
        "details": "See {IERC1155-balanceOfBatch}. Requirements: - `accounts` and `ids` must have the same length."
      },
      "getRoleAdmin(bytes32)": {
        "details": "Returns the admin role that controls `role`. See {grantRole} and {revokeRole}. To change a role's admin, use {_setRoleAdmin}."
      },
      "grantRole(bytes32,address)": {
        "details": "Grants `role` to `account`. If `account` had not been already granted `role`, emits a {RoleGranted} event. Requirements: - the caller must have ``role``'s admin role."
      },
      "hasRole(bytes32,address)": {
        "details": "Returns `true` if `account` has been granted `role`."
      },
      "isApprovedForAll(address,address)": {
        "details": "See {IERC1155-isApprovedForAll}."
      },
      "renounceRole(bytes32,address)": {
        "details": "Revokes `role` from the calling account. Roles are often managed via {grantRole} and {revokeRole}: this function's purpose is to provide a mechanism for accounts to lose their privileges if they are compromised (such as when a trusted device is misplaced). If the calling account had been revoked `role`, emits a {RoleRevoked} event. Requirements: - the caller must be `account`."
      },
      "revokeRole(bytes32,address)": {
        "details": "Revokes `role` from `account`. If `account` had been granted `role`, emits a {RoleRevoked} event. Requirements: - the caller must have ``role``'s admin role."
      },
      "safeBatchTransferFrom(address,address,uint256[],uint256[],bytes)": {
        "details": "See {IERC1155-safeBatchTransferFrom}."
      },
      "safeTransferFrom(address,address,uint256,uint256,bytes)": {
        "details": "See {IERC1155-safeTransferFrom}."
      },
      "setApprovalForAll(address,bool)": {
        "details": "See {IERC1155-setApprovalForAll}."
      },
      "uri(uint256)": {
        "details": "See {IERC1155MetadataURI-uri}. This implementation returns the same URI for *all* token types. It relies on the token type ID substitution mechanism https://eips.ethereum.org/EIPS/eip-1155#metadata[defined in the EIP]. Clients calling this function must replace the `\\{id\\}` substring with the actual token type ID."
      }
    },
    "version": 1
  },
  "userdoc": {
    "kind": "user",
    "methods": {},
    "version": 1
  },
  "storageLayout": {
    "storage": [
      {
        "astId": 512,
        "contract": "src/UnionQuest/UnionQuestCore.sol:UnionQuestCore",
        "label": "_balances",
        "offset": 0,
        "slot": "0",
        "type": "t_mapping(t_uint256,t_mapping(t_address,t_uint256))"
      },
      {
        "astId": 518,
        "contract": "src/UnionQuest/UnionQuestCore.sol:UnionQuestCore",
        "label": "_operatorApprovals",
        "offset": 0,
        "slot": "1",
        "type": "t_mapping(t_address,t_mapping(t_address,t_bool))"
      },
      {
        "astId": 520,
        "contract": "src/UnionQuest/UnionQuestCore.sol:UnionQuestCore",
        "label": "_uri",
        "offset": 0,
        "slot": "2",
        "type": "t_string_storage"
      },
      {
        "astId": 24,
        "contract": "src/UnionQuest/UnionQuestCore.sol:UnionQuestCore",
        "label": "_roles",
        "offset": 0,
        "slot": "3",
        "type": "t_mapping(t_bytes32,t_struct(RoleData)19_storage)"
      },
      {
        "astId": 3874,
        "contract": "src/UnionQuest/UnionQuestCore.sol:UnionQuestCore",
        "label": "marketRegistry",
        "offset": 0,
        "slot": "4",
        "type": "t_address"
      },
      {
        "astId": 3876,
        "contract": "src/UnionQuest/UnionQuestCore.sol:UnionQuestCore",
        "label": "unionToken",
        "offset": 0,
        "slot": "5",
        "type": "t_address"
      },
      {
        "astId": 3878,
        "contract": "src/UnionQuest/UnionQuestCore.sol:UnionQuestCore",
        "label": "underlyingToken",
        "offset": 0,
        "slot": "6",
        "type": "t_address"
      },
      {
        "astId": 3882,
        "contract": "src/UnionQuest/UnionQuestCore.sol:UnionQuestCore",
        "label": "itemTypes",
        "offset": 0,
        "slot": "7",
        "type": "t_array(t_struct(ItemType)3849_storage)dyn_storage"
      },
      {
        "astId": 3887,
        "contract": "src/UnionQuest/UnionQuestCore.sol:UnionQuestCore",
        "label": "players",
        "offset": 0,
        "slot": "8",
        "type": "t_mapping(t_address,t_struct(Player)3866_storage)"
      },
      {
        "astId": 3893,
        "contract": "src/UnionQuest/UnionQuestCore.sol:UnionQuestCore",
        "label": "vouches",
        "offset": 0,
        "slot": "9",
        "type": "t_mapping(t_uint256,t_mapping(t_uint256,t_uint256))"
      },
      {
        "astId": 3900,
        "contract": "src/UnionQuest/UnionQuestCore.sol:UnionQuestCore",
        "label": "villages",
        "offset": 0,
        "slot": "10",
        "type": "t_mapping(t_uint256,t_mapping(t_uint256,t_struct(Village)3857_storage))"
      }
    ],
    "types": {
      "t_address": {
        "encoding": "inplace",
        "label": "address",
        "numberOfBytes": "20"
      },
      "t_array(t_struct(ItemType)3849_storage)dyn_storage": {
        "base": "t_struct(ItemType)3849_storage",
        "encoding": "dynamic_array",
        "label": "struct UnionQuestCore.ItemType[]",
        "numberOfBytes": "32"
      },
      "t_bool": {
        "encoding": "inplace",
        "label": "bool",
        "numberOfBytes": "1"
      },
      "t_bytes32": {
        "encoding": "inplace",
        "label": "bytes32",
        "numberOfBytes": "32"
      },
      "t_contract(UnionQuestVillage)4500": {
        "encoding": "inplace",
        "label": "contract UnionQuestVillage",
        "numberOfBytes": "20"
      },
      "t_mapping(t_address,t_bool)": {
        "encoding": "mapping",
        "key": "t_address",
        "label": "mapping(address => bool)",
        "numberOfBytes": "32",
        "value": "t_bool"
      },
      "t_mapping(t_address,t_mapping(t_address,t_bool))": {
        "encoding": "mapping",
        "key": "t_address",
        "label": "mapping(address => mapping(address => bool))",
        "numberOfBytes": "32",
        "value": "t_mapping(t_address,t_bool)"
      },
      "t_mapping(t_address,t_struct(Player)3866_storage)": {
        "encoding": "mapping",
        "key": "t_address",
        "label": "mapping(address => struct UnionQuestCore.Player)",
        "numberOfBytes": "32",
        "value": "t_struct(Player)3866_storage"
      },
      "t_mapping(t_address,t_uint256)": {
        "encoding": "mapping",
        "key": "t_address",
        "label": "mapping(address => uint256)",
        "numberOfBytes": "32",
        "value": "t_uint256"
      },
      "t_mapping(t_bytes32,t_struct(RoleData)19_storage)": {
        "encoding": "mapping",
        "key": "t_bytes32",
        "label": "mapping(bytes32 => struct AccessControl.RoleData)",
        "numberOfBytes": "32",
        "value": "t_struct(RoleData)19_storage"
      },
      "t_mapping(t_uint256,t_mapping(t_address,t_uint256))": {
        "encoding": "mapping",
        "key": "t_uint256",
        "label": "mapping(uint256 => mapping(address => uint256))",
        "numberOfBytes": "32",
        "value": "t_mapping(t_address,t_uint256)"
      },
      "t_mapping(t_uint256,t_mapping(t_uint256,t_struct(Village)3857_storage))": {
        "encoding": "mapping",
        "key": "t_uint256",
        "label": "mapping(uint256 => mapping(uint256 => struct UnionQuestCore.Village))",
        "numberOfBytes": "32",
        "value": "t_mapping(t_uint256,t_struct(Village)3857_storage)"
      },
      "t_mapping(t_uint256,t_mapping(t_uint256,t_uint256))": {
        "encoding": "mapping",
        "key": "t_uint256",
        "label": "mapping(uint256 => mapping(uint256 => uint256))",
        "numberOfBytes": "32",
        "value": "t_mapping(t_uint256,t_uint256)"
      },
      "t_mapping(t_uint256,t_struct(Village)3857_storage)": {
        "encoding": "mapping",
        "key": "t_uint256",
        "label": "mapping(uint256 => struct UnionQuestCore.Village)",
        "numberOfBytes": "32",
        "value": "t_struct(Village)3857_storage"
      },
      "t_mapping(t_uint256,t_uint256)": {
        "encoding": "mapping",
        "key": "t_uint256",
        "label": "mapping(uint256 => uint256)",
        "numberOfBytes": "32",
        "value": "t_uint256"
      },
      "t_string_storage": {
        "encoding": "bytes",
        "label": "string",
        "numberOfBytes": "32"
      },
      "t_struct(ItemType)3849_storage": {
        "encoding": "inplace",
        "label": "struct UnionQuestCore.ItemType",
        "members": [
          {
            "astId": 3842,
            "contract": "src/UnionQuest/UnionQuestCore.sol:UnionQuestCore",
            "label": "name",
            "offset": 0,
            "slot": "0",
            "type": "t_string_storage"
          },
          {
            "astId": 3844,
            "contract": "src/UnionQuest/UnionQuestCore.sol:UnionQuestCore",
            "label": "description",
            "offset": 0,
            "slot": "1",
            "type": "t_string_storage"
          },
          {
            "astId": 3846,
            "contract": "src/UnionQuest/UnionQuestCore.sol:UnionQuestCore",
            "label": "buyPrice",
            "offset": 0,
            "slot": "2",
            "type": "t_uint256"
          },
          {
            "astId": 3848,
            "contract": "src/UnionQuest/UnionQuestCore.sol:UnionQuestCore",
            "label": "sellPrice",
            "offset": 0,
            "slot": "3",
            "type": "t_uint256"
          }
        ],
        "numberOfBytes": "128"
      },
      "t_struct(Player)3866_storage": {
        "encoding": "inplace",
        "label": "struct UnionQuestCore.Player",
        "members": [
          {
            "astId": 3859,
            "contract": "src/UnionQuest/UnionQuestCore.sol:UnionQuestCore",
            "label": "x",
            "offset": 0,
            "slot": "0",
            "type": "t_uint256"
          },
          {
            "astId": 3861,
            "contract": "src/UnionQuest/UnionQuestCore.sol:UnionQuestCore",
            "label": "y",
            "offset": 0,
            "slot": "1",
            "type": "t_uint256"
          },
          {
            "astId": 3863,
            "contract": "src/UnionQuest/UnionQuestCore.sol:UnionQuestCore",
            "label": "arrivalTime",
            "offset": 0,
            "slot": "2",
            "type": "t_uint256"
          },
          {
            "astId": 3865,
            "contract": "src/UnionQuest/UnionQuestCore.sol:UnionQuestCore",
            "label": "workTime",
            "offset": 0,
            "slot": "3",
            "type": "t_uint256"
          }
        ],
        "numberOfBytes": "128"
      },
      "t_struct(RoleData)19_storage": {
        "encoding": "inplace",
        "label": "struct AccessControl.RoleData",
        "members": [
          {
            "astId": 16,
            "contract": "src/UnionQuest/UnionQuestCore.sol:UnionQuestCore",
            "label": "members",
            "offset": 0,
            "slot": "0",
            "type": "t_mapping(t_address,t_bool)"
          },
          {
            "astId": 18,
            "contract": "src/UnionQuest/UnionQuestCore.sol:UnionQuestCore",
            "label": "adminRole",
            "offset": 0,
            "slot": "1",
            "type": "t_bytes32"
          }
        ],
        "numberOfBytes": "64"
      },
      "t_struct(Village)3857_storage": {
        "encoding": "inplace",
        "label": "struct UnionQuestCore.Village",
        "members": [
          {
            "astId": 3851,
            "contract": "src/UnionQuest/UnionQuestCore.sol:UnionQuestCore",
            "label": "name",
            "offset": 0,
            "slot": "0",
            "type": "t_string_storage"
          },
          {
            "astId": 3853,
            "contract": "src/UnionQuest/UnionQuestCore.sol:UnionQuestCore",
            "label": "description",
            "offset": 0,
            "slot": "1",
            "type": "t_string_storage"
          },
          {
            "astId": 3856,
            "contract": "src/UnionQuest/UnionQuestCore.sol:UnionQuestCore",
            "label": "member",
            "offset": 0,
            "slot": "2",
            "type": "t_contract(UnionQuestVillage)4500"
          }
        ],
        "numberOfBytes": "96"
      },
      "t_uint256": {
        "encoding": "inplace",
        "label": "uint256",
        "numberOfBytes": "32"
      }
    }
  }
}