{
  "address": "0x631C2dC1236760172Dd9c2A6d6311Ab489D8291E",
  "abi": [
    {
      "inputs": [
        {
          "internalType": "address",
          "name": "_marketRegistry",
          "type": "address"
        },
        {
          "internalType": "address",
          "name": "_unionToken",
          "type": "address"
        },
        {
          "internalType": "address",
          "name": "_underlyingToken",
          "type": "address"
        }
      ],
      "stateMutability": "nonpayable",
      "type": "constructor"
    },
    {
      "anonymous": false,
      "inputs": [
        {
          "indexed": false,
          "internalType": "uint256",
          "name": "_index",
          "type": "uint256"
        },
        {
          "components": [
            {
              "internalType": "string",
              "name": "name",
              "type": "string"
            },
            {
              "internalType": "string",
              "name": "description",
              "type": "string"
            },
            {
              "internalType": "string",
              "name": "image",
              "type": "string"
            },
            {
              "internalType": "uint256",
              "name": "stake",
              "type": "uint256"
            },
            {
              "internalType": "uint256[]",
              "name": "toolIds",
              "type": "uint256[]"
            },
            {
              "internalType": "uint256[]",
              "name": "toolBonuses",
              "type": "uint256[]"
            }
          ],
          "indexed": false,
          "internalType": "struct UnionQuest.ItemType",
          "name": "_itemType",
          "type": "tuple"
        }
      ],
      "name": "AddItemType",
      "type": "event"
    },
    {
      "anonymous": false,
      "inputs": [
        {
          "indexed": false,
          "internalType": "uint256",
          "name": "_index",
          "type": "uint256"
        },
        {
          "components": [
            {
              "internalType": "uint256[]",
              "name": "inputIds",
              "type": "uint256[]"
            },
            {
              "internalType": "uint256[]",
              "name": "inputQuantities",
              "type": "uint256[]"
            },
            {
              "internalType": "uint256",
              "name": "output",
              "type": "uint256"
            }
          ],
          "indexed": false,
          "internalType": "struct UnionQuest.Recipe",
          "name": "_recipe",
          "type": "tuple"
        }
      ],
      "name": "AddRecipe",
      "type": "event"
    },
    {
      "anonymous": false,
      "inputs": [
        {
          "indexed": true,
          "internalType": "address",
          "name": "account",
          "type": "address"
        },
        {
          "indexed": true,
          "internalType": "address",
          "name": "operator",
          "type": "address"
        },
        {
          "indexed": false,
          "internalType": "bool",
          "name": "approved",
          "type": "bool"
        }
      ],
      "name": "ApprovalForAll",
      "type": "event"
    },
    {
      "anonymous": false,
      "inputs": [
        {
          "indexed": true,
          "internalType": "address",
          "name": "account",
          "type": "address"
        },
        {
          "indexed": false,
          "internalType": "uint256",
          "name": "id",
          "type": "uint256"
        },
        {
          "indexed": false,
          "internalType": "uint256",
          "name": "value",
          "type": "uint256"
        }
      ],
      "name": "IncreaseSkill",
      "type": "event"
    },
    {
      "anonymous": false,
      "inputs": [
        {
          "indexed": false,
          "internalType": "address",
          "name": "account",
          "type": "address"
        },
        {
          "indexed": false,
          "internalType": "int256",
          "name": "x",
          "type": "int256"
        },
        {
          "indexed": false,
          "internalType": "int256",
          "name": "y",
          "type": "int256"
        }
      ],
      "name": "Move",
      "type": "event"
    },
    {
      "anonymous": false,
      "inputs": [
        {
          "indexed": true,
          "internalType": "address",
          "name": "previousOwner",
          "type": "address"
        },
        {
          "indexed": true,
          "internalType": "address",
          "name": "newOwner",
          "type": "address"
        }
      ],
      "name": "OwnershipTransferred",
      "type": "event"
    },
    {
      "anonymous": false,
      "inputs": [
        {
          "indexed": true,
          "internalType": "address",
          "name": "operator",
          "type": "address"
        },
        {
          "indexed": true,
          "internalType": "address",
          "name": "from",
          "type": "address"
        },
        {
          "indexed": true,
          "internalType": "address",
          "name": "to",
          "type": "address"
        },
        {
          "indexed": false,
          "internalType": "uint256[]",
          "name": "ids",
          "type": "uint256[]"
        },
        {
          "indexed": false,
          "internalType": "uint256[]",
          "name": "values",
          "type": "uint256[]"
        }
      ],
      "name": "TransferBatch",
      "type": "event"
    },
    {
      "anonymous": false,
      "inputs": [
        {
          "indexed": true,
          "internalType": "address",
          "name": "operator",
          "type": "address"
        },
        {
          "indexed": true,
          "internalType": "address",
          "name": "from",
          "type": "address"
        },
        {
          "indexed": true,
          "internalType": "address",
          "name": "to",
          "type": "address"
        },
        {
          "indexed": false,
          "internalType": "uint256",
          "name": "id",
          "type": "uint256"
        },
        {
          "indexed": false,
          "internalType": "uint256",
          "name": "value",
          "type": "uint256"
        }
      ],
      "name": "TransferSingle",
      "type": "event"
    },
    {
      "anonymous": false,
      "inputs": [
        {
          "indexed": false,
          "internalType": "string",
          "name": "value",
          "type": "string"
        },
        {
          "indexed": true,
          "internalType": "uint256",
          "name": "id",
          "type": "uint256"
        }
      ],
      "name": "URI",
      "type": "event"
    },
    {
      "inputs": [
        {
          "components": [
            {
              "internalType": "string",
              "name": "name",
              "type": "string"
            },
            {
              "internalType": "string",
              "name": "description",
              "type": "string"
            },
            {
              "internalType": "string",
              "name": "image",
              "type": "string"
            },
            {
              "internalType": "uint256",
              "name": "stake",
              "type": "uint256"
            },
            {
              "internalType": "uint256[]",
              "name": "toolIds",
              "type": "uint256[]"
            },
            {
              "internalType": "uint256[]",
              "name": "toolBonuses",
              "type": "uint256[]"
            }
          ],
          "internalType": "struct UnionQuest.ItemType[]",
          "name": "_itemTypes",
          "type": "tuple[]"
        }
      ],
      "name": "addItemTypes",
      "outputs": [],
      "stateMutability": "nonpayable",
      "type": "function"
    },
    {
      "inputs": [
        {
          "components": [
            {
              "internalType": "uint256[]",
              "name": "inputIds",
              "type": "uint256[]"
            },
            {
              "internalType": "uint256[]",
              "name": "inputQuantities",
              "type": "uint256[]"
            },
            {
              "internalType": "uint256",
              "name": "output",
              "type": "uint256"
            }
          ],
          "internalType": "struct UnionQuest.Recipe[]",
          "name": "_recipes",
          "type": "tuple[]"
        }
      ],
      "name": "addRecipes",
      "outputs": [],
      "stateMutability": "nonpayable",
      "type": "function"
    },
    {
      "inputs": [
        {
          "internalType": "address",
          "name": "account",
          "type": "address"
        },
        {
          "internalType": "uint256",
          "name": "id",
          "type": "uint256"
        }
      ],
      "name": "balanceOf",
      "outputs": [
        {
          "internalType": "uint256",
          "name": "balance",
          "type": "uint256"
        }
      ],
      "stateMutability": "view",
      "type": "function"
    },
    {
      "inputs": [
        {
          "internalType": "address[]",
          "name": "accounts",
          "type": "address[]"
        },
        {
          "internalType": "uint256[]",
          "name": "ids",
          "type": "uint256[]"
        }
      ],
      "name": "balanceOfBatch",
      "outputs": [
        {
          "internalType": "uint256[]",
          "name": "",
          "type": "uint256[]"
        }
      ],
      "stateMutability": "view",
      "type": "function"
    },
    {
      "inputs": [
        {
          "internalType": "uint256",
          "name": "id",
          "type": "uint256"
        },
        {
          "internalType": "uint256",
          "name": "amount",
          "type": "uint256"
        }
      ],
      "name": "buy",
      "outputs": [],
      "stateMutability": "nonpayable",
      "type": "function"
    },
    {
      "inputs": [
        {
          "internalType": "uint256",
          "name": "recipeId",
          "type": "uint256"
        }
      ],
      "name": "craft",
      "outputs": [],
      "stateMutability": "nonpayable",
      "type": "function"
    },
    {
      "inputs": [],
      "name": "getBorrowerAddresses",
      "outputs": [
        {
          "internalType": "address[]",
          "name": "",
          "type": "address[]"
        }
      ],
      "stateMutability": "view",
      "type": "function"
    },
    {
      "inputs": [],
      "name": "getStakerBalance",
      "outputs": [
        {
          "internalType": "uint256",
          "name": "",
          "type": "uint256"
        }
      ],
      "stateMutability": "view",
      "type": "function"
    },
    {
      "inputs": [
        {
          "internalType": "address",
          "name": "account",
          "type": "address"
        },
        {
          "internalType": "address",
          "name": "operator",
          "type": "address"
        }
      ],
      "name": "isApprovedForAll",
      "outputs": [
        {
          "internalType": "bool",
          "name": "",
          "type": "bool"
        }
      ],
      "stateMutability": "view",
      "type": "function"
    },
    {
      "inputs": [],
      "name": "isMember",
      "outputs": [
        {
          "internalType": "bool",
          "name": "",
          "type": "bool"
        }
      ],
      "stateMutability": "view",
      "type": "function"
    },
    {
      "inputs": [],
      "name": "marketRegistry",
      "outputs": [
        {
          "internalType": "contract IMarketRegistry",
          "name": "",
          "type": "address"
        }
      ],
      "stateMutability": "view",
      "type": "function"
    },
    {
      "inputs": [
        {
          "internalType": "int256",
          "name": "x",
          "type": "int256"
        },
        {
          "internalType": "int256",
          "name": "y",
          "type": "int256"
        }
      ],
      "name": "move",
      "outputs": [],
      "stateMutability": "nonpayable",
      "type": "function"
    },
    {
      "inputs": [],
      "name": "owner",
      "outputs": [
        {
          "internalType": "address",
          "name": "",
          "type": "address"
        }
      ],
      "stateMutability": "view",
      "type": "function"
    },
    {
      "inputs": [],
      "name": "renounceOwnership",
      "outputs": [],
      "stateMutability": "nonpayable",
      "type": "function"
    },
    {
      "inputs": [
        {
          "internalType": "address",
          "name": "from",
          "type": "address"
        },
        {
          "internalType": "address",
          "name": "to",
          "type": "address"
        },
        {
          "internalType": "uint256[]",
          "name": "ids",
          "type": "uint256[]"
        },
        {
          "internalType": "uint256[]",
          "name": "amounts",
          "type": "uint256[]"
        },
        {
          "internalType": "bytes",
          "name": "data",
          "type": "bytes"
        }
      ],
      "name": "safeBatchTransferFrom",
      "outputs": [],
      "stateMutability": "nonpayable",
      "type": "function"
    },
    {
      "inputs": [
        {
          "internalType": "address",
          "name": "from",
          "type": "address"
        },
        {
          "internalType": "address",
          "name": "to",
          "type": "address"
        },
        {
          "internalType": "uint256",
          "name": "id",
          "type": "uint256"
        },
        {
          "internalType": "uint256",
          "name": "amount",
          "type": "uint256"
        },
        {
          "internalType": "bytes",
          "name": "data",
          "type": "bytes"
        }
      ],
      "name": "safeTransferFrom",
      "outputs": [],
      "stateMutability": "nonpayable",
      "type": "function"
    },
    {
      "inputs": [
        {
          "internalType": "uint256",
          "name": "id",
          "type": "uint256"
        },
        {
          "internalType": "uint256",
          "name": "amount",
          "type": "uint256"
        }
      ],
      "name": "sell",
      "outputs": [],
      "stateMutability": "nonpayable",
      "type": "function"
    },
    {
      "inputs": [
        {
          "internalType": "address",
          "name": "operator",
          "type": "address"
        },
        {
          "internalType": "bool",
          "name": "approved",
          "type": "bool"
        }
      ],
      "name": "setApprovalForAll",
      "outputs": [],
      "stateMutability": "nonpayable",
      "type": "function"
    },
    {
      "inputs": [
        {
          "internalType": "uint256",
          "name": "amount",
          "type": "uint256"
        }
      ],
      "name": "stake",
      "outputs": [],
      "stateMutability": "nonpayable",
      "type": "function"
    },
    {
      "inputs": [
        {
          "internalType": "bytes4",
          "name": "interfaceId",
          "type": "bytes4"
        }
      ],
      "name": "supportsInterface",
      "outputs": [
        {
          "internalType": "bool",
          "name": "",
          "type": "bool"
        }
      ],
      "stateMutability": "view",
      "type": "function"
    },
    {
      "inputs": [
        {
          "internalType": "address",
          "name": "newOwner",
          "type": "address"
        }
      ],
      "name": "transferOwnership",
      "outputs": [],
      "stateMutability": "nonpayable",
      "type": "function"
    },
    {
      "inputs": [],
      "name": "uToken",
      "outputs": [
        {
          "internalType": "contract IUToken",
          "name": "",
          "type": "address"
        }
      ],
      "stateMutability": "view",
      "type": "function"
    },
    {
      "inputs": [],
      "name": "underlyingToken",
      "outputs": [
        {
          "internalType": "contract IERC20",
          "name": "",
          "type": "address"
        }
      ],
      "stateMutability": "view",
      "type": "function"
    },
    {
      "inputs": [],
      "name": "unionToken",
      "outputs": [
        {
          "internalType": "contract IERC20",
          "name": "",
          "type": "address"
        }
      ],
      "stateMutability": "view",
      "type": "function"
    },
    {
      "inputs": [
        {
          "internalType": "uint256",
          "name": "amount",
          "type": "uint256"
        }
      ],
      "name": "unstake",
      "outputs": [],
      "stateMutability": "nonpayable",
      "type": "function"
    },
    {
      "inputs": [
        {
          "internalType": "address",
          "name": "borrower_",
          "type": "address"
        }
      ],
      "name": "updateTrust",
      "outputs": [],
      "stateMutability": "nonpayable",
      "type": "function"
    },
    {
      "inputs": [
        {
          "internalType": "uint256",
          "name": "id",
          "type": "uint256"
        }
      ],
      "name": "uri",
      "outputs": [
        {
          "internalType": "string",
          "name": "",
          "type": "string"
        }
      ],
      "stateMutability": "view",
      "type": "function"
    },
    {
      "inputs": [],
      "name": "userManager",
      "outputs": [
        {
          "internalType": "contract IUserManager",
          "name": "",
          "type": "address"
        }
      ],
      "stateMutability": "view",
      "type": "function"
    },
    {
      "inputs": [],
      "name": "withdrawRewards",
      "outputs": [],
      "stateMutability": "nonpayable",
      "type": "function"
    }
  ],
  "transactionHash": "0x6af5e1bb8cb47a161a2dc9af66656a6708c76880a3eac41c5e9edc383ec424ad",
  "args": [
    "0x15B12b8dB6665B31E15Da26275fD54590f2E989c",
    "0x08AF898e65493D8212c8981FAdF60Ff023A91150",
    "0x4f96fe3b7a6cf9725f59d353f723c1bdb64ca6aa"
  ],
  "numDeployments": 1,
  "solcInputHash": "473933ac452b3b751986bcb2618dec23",
  "bytecode": "0x6101206040523480156200001257600080fd5b5060405162003979380380620039798339810160408190526200003591620001a7565b828282620000433362000103565b60405163e486033960e01b81526001600160a01b038281166004830152600091829186169063e486033990602401604080518083038186803b1580156200008957600080fd5b505afa1580156200009e573d6000803e3d6000fd5b505050506040513d601f19601f82011682018060405250810190620000c4919062000170565b6001600160601b0319606097881b811660805290871b811660a05290861b811660c05293851b841660e052505090911b166101005250620001f0915050565b600080546001600160a01b038381166001600160a01b0319831681178455604051919092169283917f8be0079c531659141344cd1fd0a4f28419497f9722a3daafe3b4186f6b6457e09190a35050565b80516001600160a01b03811681146200016b57600080fd5b919050565b6000806040838503121562000183578182fd5b6200018e8362000153565b91506200019e6020840162000153565b90509250929050565b600080600060608486031215620001bc578081fd5b620001c78462000153565b9250620001d76020850162000153565b9150620001e76040850162000153565b90509250925092565b60805160601c60a05160601c60c05160601c60e05160601c6101005160601c6136d3620002a660003960008181610212015281816106ee0152818161116d015281816112d20152611e5801526000818161044d01528181610e780152610ec4015260006102dd0152600081816102b601528181610ae701528181610bca01528181610fd2015281816117be01528181611e8501528181611f1801528181611f510152611fd5015260006103ed01526136d36000f3fe608060405234801561001057600080fd5b506004361061018e5760003560e01c8063827759fd116100e4578063d6febde811610092578063d6febde814610386578063d79875eb14610399578063e985e9c5146103ac578063ecb96fe6146103e8578063f242432a1461040f578063f2fde38b14610422578063f3917bd214610435578063f70222e11461044857600080fd5b8063827759fd146103225780638da5cb5b14610335578063a22cb4651461033d578063a694fc3a14610350578063c7b8981c14610363578063d02982cf1461036b578063d04df3171461037357600080fd5b80634e1273f4116101415780634e1273f41461027c5780635062e90f1461029c5780635c8a7687146102b157806363315637146102d8578063715018a6146102ff578063750399f71461030757806375edf6bb1461030f57600080fd5b8062fdd58e1461019357806301ffc9a7146101b95780630e89341c146101ed5780632495a5991461020d5780632e17de78146102415780632e62daa5146102565780632eb2c2d614610269575b600080fd5b6101a66101a1366004612833565b61046f565b6040519081526020015b60405180910390f35b6101dd6101c7366004612c90565b6001600160e01b0319166301ffc9a760e01b1490565b60405190151581526020016101b0565b6102006101fb366004612ce9565b61064a565b6040516101b0919061307f565b6102347f000000000000000000000000000000000000000000000000000000000000000081565b6040516101b09190612f21565b61025461024f366004612ce9565b6106b4565b005b610254610264366004612b58565b610797565b6102546102773660046126f7565b6108d3565b61028f61028a366004612903565b61096a565b6040516101b0919061303e565b6102a4610acd565b6040516101b09190612ff1565b6102347f000000000000000000000000000000000000000000000000000000000000000081565b6102347f000000000000000000000000000000000000000000000000000000000000000081565b610254610b75565b6101a6610bb0565b61025461031d366004612cc8565b610c4f565b6102546103303660046129cf565b610c5a565b610234610dea565b61025461034b366004612806565b610df9565b61025461035e366004612ce9565b610e04565b610254610e3f565b6101dd610fb8565b61025461038136600461269c565b611057565b610254610394366004612cc8565b6110f3565b6102546103a7366004612cc8565b61124d565b6101dd6103ba3660046126bf565b6001600160a01b03918216600090815260066020908152604080832093909416825291909152205460ff1690565b6102347f000000000000000000000000000000000000000000000000000000000000000081565b61025461041d3660046127a0565b611377565b61025461043036600461269c565b6113fe565b610254610443366004612ce9565b61149b565b6102347f000000000000000000000000000000000000000000000000000000000000000081565b60006001600160a01b0383166104df5760405162461bcd60e51b815260206004820152602a60248201527f455243313135353a2061646472657373207a65726f206973206e6f742061207660448201526930b634b21037bbb732b960b11b60648201526084015b60405180910390fd5b5060008181526005602090815260408083206001600160a01b03861684528252808320546003928390529220600281015491810154909161051f9161158c565b831415610643578054600282015460009161053991613456565b90506000826001015483600301546105519190613456565b9050600061057b61056283806133b4565b61056c85806133b4565b6105769190613319565b61164a565b90506000600a8560040154426105919190613495565b61059b91906133a0565b905081811061063e576000600a6105b28185613437565b87600401546105c1919061335a565b6105cb9042613495565b6105d58b8b6116a3565b6105df9190613437565b6105e991906133a0565b905060026105f78280613437565b61060191906133a0565b3360009081526004602090815260408083208c84529091529020546106269083613437565b610630919061335a565b61063a908861335a565b9650505b505050505b5092915050565b606060006001838154811061066f57634e487b7160e01b600052603260045260246000fd5b9060005260206000209060060201905080600001816001018260020160405160200161069d93929190612e36565b604051602081830303815290604052915050919050565b336106bd610dea565b6001600160a01b0316146106e35760405162461bcd60e51b81526004016104d690613169565b6106ec816117a8565b7f00000000000000000000000000000000000000000000000000000000000000006001600160a01b031663a9059cbb610723610dea565b836040518363ffffffff1660e01b8152600401610741929190612fd8565b602060405180830381600087803b15801561075b57600080fd5b505af115801561076f573d6000803e3d6000fd5b505050506040513d601f19601f820116820180604052508101906107939190612c74565b5050565b336107a0610dea565b6001600160a01b0316146107c65760405162461bcd60e51b81526004016104d690613169565b60005b81518110156107935760028282815181106107f457634e487b7160e01b600052603260045260246000fd5b60209081029190910181015182546001810184556000938452928290208151805192946003029091019261082d928492909101906124e7565b50602082810151805161084692600185019201906124e7565b5060409190910151600291820155547f7fabb594fb3d96ed59cb97035073b397ebadb4bd180ee6d8c343fd215c3027829061088390600190613495565b8383815181106108a357634e487b7160e01b600052603260045260246000fd5b60200260200101516040516108b9929190613277565b60405180910390a1806108cb81613532565b9150506107c9565b6001600160a01b0385163314806108ef57506108ef85336103ba565b6109565760405162461bcd60e51b815260206004820152603260248201527f455243313135353a207472616e736665722063616c6c6572206973206e6f74206044820152711bdddb995c881b9bdc88185c1c1c9bdd995960721b60648201526084016104d6565b610963858585858561181f565b5050505050565b606081518351146109cf5760405162461bcd60e51b815260206004820152602960248201527f455243313135353a206163636f756e747320616e6420696473206c656e677468604482015268040dad2e6dac2e8c6d60bb1b60648201526084016104d6565b600083516001600160401b038111156109f857634e487b7160e01b600052604160045260246000fd5b604051908082528060200260200182016040528015610a21578160200160208202803683370190505b50905060005b8451811015610ac357610a88858281518110610a5357634e487b7160e01b600052603260045260246000fd5b6020026020010151858381518110610a7b57634e487b7160e01b600052603260045260246000fd5b602002602001015161046f565b828281518110610aa857634e487b7160e01b600052603260045260246000fd5b6020908102919091010152610abc81613532565b9050610a27565b5090505b92915050565b60405163eb14845960e01b81526060906001600160a01b037f0000000000000000000000000000000000000000000000000000000000000000169063eb14845990610b1c903090600401612f21565b60006040518083038186803b158015610b3457600080fd5b505afa158015610b48573d6000803e3d6000fd5b505050506040513d6000823e601f3d908101601f19168201604052610b70919081019061285e565b905090565b33610b7e610dea565b6001600160a01b031614610ba45760405162461bcd60e51b81526004016104d690613169565b610bae6000611a82565b565b604051632640d9db60e01b81526000906001600160a01b037f00000000000000000000000000000000000000000000000000000000000000001690632640d9db90610bff903090600401612f21565b60206040518083038186803b158015610c1757600080fd5b505afa158015610c2b573d6000803e3d6000fd5b505050506040513d601f19601f82011682018060405250810190610b709190612d01565b610793338383611ad2565b33610c63610dea565b6001600160a01b031614610c895760405162461bcd60e51b81526004016104d690613169565b60005b8151811015610793576001828281518110610cb757634e487b7160e01b600052603260045260246000fd5b602090810291909101810151825460018101845560009384529282902081518051929460060290910192610cf092849290910190612532565b506020828101518051610d099260018501920190612532565b5060408201518051610d25916002840191602090910190612532565b506060820151600382015560808201518051610d4b9160048401916020909101906124e7565b5060a08201518051610d679160058401916020909101906124e7565b5050600180547f18c427e9ca812ea619b14b92f83861d927d5c8ed96aa5bb46447bfc4143f40aa9250610d9a9190613495565b838381518110610dba57634e487b7160e01b600052603260045260246000fd5b6020026020010151604051610dd09291906131ca565b60405180910390a180610de281613532565b915050610c8c565b6000546001600160a01b031690565b610793338383611d60565b33610e0d610dea565b6001600160a01b031614610e335760405162461bcd60e51b81526004016104d690613169565b610e3c81611e41565b50565b33610e48610dea565b6001600160a01b031614610e6e5760405162461bcd60e51b81526004016104d690613169565b610e76611f4f565b7f00000000000000000000000000000000000000000000000000000000000000006001600160a01b031663a9059cbb610ead610dea565b6040516370a0823160e01b81526001600160a01b037f000000000000000000000000000000000000000000000000000000000000000016906370a0823190610ef9903090600401612f21565b60206040518083038186803b158015610f1157600080fd5b505afa158015610f25573d6000803e3d6000fd5b505050506040513d601f19601f82011682018060405250810190610f499190612d01565b6040518363ffffffff1660e01b8152600401610f66929190612fd8565b602060405180830381600087803b158015610f8057600080fd5b505af1158015610f94573d6000803e3d6000fd5b505050506040513d601f19601f82011682018060405250810190610e3c9190612c74565b6040516321d2a57360e01b81526000906001600160a01b037f000000000000000000000000000000000000000000000000000000000000000016906321d2a57390611007903090600401612f21565b60206040518083038186803b15801561101f57600080fd5b505afa158015611033573d6000803e3d6000fd5b505050506040513d601f19601f82011682018060405250810190610b709190612c74565b6001600160a01b0381166000908152600360205260409020611083335b82600201548360030154611ad2565b600060015b60038110156110d3576001600160a01b03841660009081526004602090815260408083208484529091529020546110bf908361335a565b9150806110cb81613532565b915050611088565b506110ee836110e9662386f26fc1000084613437565b611fbe565b505050565b60006001838154811061111657634e487b7160e01b600052603260045260246000fd5b90600052602060002090600602019050600081600301541161114a5760405162461bcd60e51b81526004016104d69061319e565b3360008181526003602052604090209061116390611074565b6001600160a01b037f0000000000000000000000000000000000000000000000000000000000000000166323b872dd33308686600301546111a49190613437565b6040516001600160e01b031960e086901b1681526001600160a01b0393841660048201529290911660248301526044820152606401602060405180830381600087803b1580156111f357600080fd5b505af1158015611207573d6000803e3d6000fd5b505050506040513d601f19601f8201168201806040525081019061122b9190612c74565b5061124733858560405180602001604052806000815250612042565b50505050565b60006001838154811061127057634e487b7160e01b600052603260045260246000fd5b9060005260206000209060060201905060008160030154116112a45760405162461bcd60e51b81526004016104d69061319e565b336000818152600360205260409020906112bd90611074565b6112c83385856120bd565b6001600160a01b037f00000000000000000000000000000000000000000000000000000000000000001663a9059cbb338585600301546113089190613437565b6040518363ffffffff1660e01b8152600401611325929190612fd8565b602060405180830381600087803b15801561133f57600080fd5b505af1158015611353573d6000803e3d6000fd5b505050506040513d601f19601f820116820180604052508101906109639190612c74565b6001600160a01b038516331480611393575061139385336103ba565b6113f15760405162461bcd60e51b815260206004820152602960248201527f455243313135353a2063616c6c6572206973206e6f74206f776e6572206e6f7260448201526808185c1c1c9bdd995960ba1b60648201526084016104d6565b610963858585858561218f565b33611407610dea565b6001600160a01b03161461142d5760405162461bcd60e51b81526004016104d690613169565b6001600160a01b0381166114925760405162461bcd60e51b815260206004820152602660248201527f4f776e61626c653a206e6577206f776e657220697320746865207a65726f206160448201526564647265737360d01b60648201526084016104d6565b610e3c81611a82565b6000600282815481106114be57634e487b7160e01b600052603260045260246000fd5b6000918252602080832033808552600392839052604090942092909102019250906114e890611074565b60005b825481101561156b576115593384600001838154811061151b57634e487b7160e01b600052603260045260246000fd5b906000526020600020015485600101848154811061154957634e487b7160e01b600052603260045260246000fd5b90600052602060002001546120bd565b8061156381613532565b9150506114eb565b506110ee338360020154600160405180602001604052806000815250612042565b60008215801561159a575081155b806115a55750600a83135b806115b1575060081983125b806115bc5750600a82135b806115c8575060081982125b156115d557506000610ac7565b6000600584846040516020016115f5929190918252602082015260400190565b6040516020818303038152906040528051906020012060001c611618919061354d565b9050600281101561162d576000915050610ac7565b6004811015611640576001915050610ac7565b5060029392505050565b600080600261165a846001613319565b6116649190613372565b90508291505b8181121561169d579050806002816116828186613372565b61168c9190613319565b6116969190613372565b905061166a565b50919050565b600080600183815481106116c757634e487b7160e01b600052603260045260246000fd5b9060005260206000209060060201905060005b60048201548110156117a0578282600501828154811061170a57634e487b7160e01b600052603260045260246000fd5b9060005260206000200154118015611758575060006117568684600401848154811061174657634e487b7160e01b600052603260045260246000fd5b906000526020600020015461046f565b115b1561178e5781600501818154811061178057634e487b7160e01b600052603260045260246000fd5b906000526020600020015492505b8061179881613532565b9150506116da565b505092915050565b6040516305c2fbcf60e31b8152600481018290527f00000000000000000000000000000000000000000000000000000000000000006001600160a01b031690632e17de78906024015b600060405180830381600087803b15801561180b57600080fd5b505af1158015610963573d6000803e3d6000fd5b81518351146118815760405162461bcd60e51b815260206004820152602860248201527f455243313135353a2069647320616e6420616d6f756e7473206c656e677468206044820152670dad2e6dac2e8c6d60c31b60648201526084016104d6565b6001600160a01b0384166118a75760405162461bcd60e51b81526004016104d6906130da565b6001600160a01b038516600090815260036020526040902033906118ca82611074565b60005b8551811015611a135760008682815181106118f857634e487b7160e01b600052603260045260246000fd5b60200260200101519050600086838151811061192457634e487b7160e01b600052603260045260246000fd5b60209081029190910181015160008481526005835260408082206001600160a01b038f1683529093529190912054909150818110156119755760405162461bcd60e51b81526004016104d69061311f565b8181036005600085815260200190815260200160002060008d6001600160a01b03166001600160a01b0316815260200190815260200160002081905550816005600085815260200190815260200160002060008c6001600160a01b03166001600160a01b0316815260200190815260200160002060008282546119f8919061335a565b9250508190555050505080611a0c90613532565b90506118cd565b50856001600160a01b0316876001600160a01b0316836001600160a01b03167f4a39dc06d4c0dbc64b70af90fd698a233a518aa5d07e595d983b8c0526c8f7fb8888604051611a63929190613051565b60405180910390a4611a798288888888886122b2565b50505050505050565b600080546001600160a01b038381166001600160a01b0319831681178455604051919092169283917f8be0079c531659141344cd1fd0a4f28419497f9722a3daafe3b4186f6b6457e09190a35050565b6001600160a01b038316600090815260036020526040812080546002820154919291611afe9190613456565b9050600082600101548360030154611b169190613456565b90506000611b2761056283806133b4565b90506000600a856004015442611b3d9190613495565b611b4791906133a0565b905081811015611bb25781611b5c82866133b4565b611b669190613372565b856000016000828254611b799190613319565b90915550829050611b8a82856133b4565b611b949190613372565b856001016000828254611ba79190613319565b90915550611d029050565b6002850154808655600386015460018701819055600091611bd29161158c565b90506000600a611be28186613437565b8860040154611bf1919061335a565b611bfb9042613495565b611c058c856116a3565b611c0f9190613437565b611c1991906133a0565b9050611c838a836002611c2c8580613437565b611c3691906133a0565b6001600160a01b038e166000908152600460209081526040808320898452909152902054611c649086613437565b611c6e919061335a565b60405180602001604052806000815250612042565b6001600160a01b038a16600090815260046020908152604080832085845290915281208054839290611cb690849061335a565b909155505060408051838152602081018390526001600160a01b038c16917fa338c777ba53c28df97d05a2fc9cc8f85b2026c546ac90474f32ea4f52b1c2e3910160405180910390a250505b6002850187905560038501869055426004860155604080513381526020810189905280820188905290517fa091cdbb704420530e085476da579abbdfb46bfbcb9b8edbb0936b94e0b007dd9181900360600190a15050505050505050565b816001600160a01b0316836001600160a01b03161415611dd45760405162461bcd60e51b815260206004820152602960248201527f455243313135353a2073657474696e6720617070726f76616c20737461747573604482015268103337b91039b2b63360b91b60648201526084016104d6565b6001600160a01b03838116600081815260066020908152604080832094871680845294825291829020805460ff191686151590811790915591519182527f17307eab39ab6107e8899845ad3d59bd9653f200f220920489ca2b5937696c31910160405180910390a3505050565b60405163095ea7b360e01b81526001600160a01b037f0000000000000000000000000000000000000000000000000000000000000000169063095ea7b390611eaf907f0000000000000000000000000000000000000000000000000000000000000000908590600401612fd8565b602060405180830381600087803b158015611ec957600080fd5b505af1158015611edd573d6000803e3d6000fd5b505050506040513d601f19601f82011682018060405250810190611f019190612c74565b5060405163534a7e1d60e11b8152600481018290527f00000000000000000000000000000000000000000000000000000000000000006001600160a01b03169063a694fc3a906024016117f1565b7f00000000000000000000000000000000000000000000000000000000000000006001600160a01b031663c7b8981c6040518163ffffffff1660e01b8152600401600060405180830381600087803b158015611faa57600080fd5b505af1158015611247573d6000803e3d6000fd5b6040516343fbb8f560e01b81526001600160a01b037f000000000000000000000000000000000000000000000000000000000000000016906343fbb8f59061200c9085908590600401612fd8565b600060405180830381600087803b15801561202657600080fd5b505af115801561203a573d6000803e3d6000fd5b505050505050565b60008381526005602090815260408083206001600160a01b038816845290915281208054339285929161207690849061335a565b909155505060408051858152602081018590526001600160a01b03808816926000929185169160008051602061367e83398151915291015b60405180910390a45050505050565b60008281526005602090815260408083206001600160a01b038716845290915290205433908281101561213e5760405162461bcd60e51b8152602060048201526024808201527f455243313135353a206275726e20616d6f756e7420657863656564732062616c604482015263616e636560e01b60648201526084016104d6565b60008481526005602090815260408083206001600160a01b038981168086529184528285208887039055825189815293840188905290929086169160008051602061367e83398151915291016120ae565b6001600160a01b0384166121b55760405162461bcd60e51b81526004016104d6906130da565b6001600160a01b038516600090815260036020526040902033906121d882611074565b60008581526005602090815260408083206001600160a01b038b1684529091529020548481101561221b5760405162461bcd60e51b81526004016104d69061311f565b60008681526005602090815260408083206001600160a01b038c811685529252808320888503905590891682528120805487929061225a90849061335a565b909155505060408051878152602081018790526001600160a01b03808a16928b8216929187169160008051602061367e833981519152910160405180910390a46122a883898989898961241d565b5050505050505050565b6001600160a01b0384163b1561203a5760405163bc197c8160e01b81526001600160a01b0385169063bc197c81906122f69089908990889088908890600401612f35565b602060405180830381600087803b15801561231057600080fd5b505af1925050508015612340575060408051601f3d908101601f1916820190925261233d91810190612cac565b60015b6123ed5761234c6135a3565b806308c379a0141561238657506123616135bb565b8061236c5750612388565b8060405162461bcd60e51b81526004016104d6919061307f565b505b60405162461bcd60e51b815260206004820152603460248201527f455243313135353a207472616e7366657220746f206e6f6e20455243313135356044820152732932b1b2b4bb32b91034b6b83632b6b2b73a32b960611b60648201526084016104d6565b6001600160e01b0319811663bc197c8160e01b14611a795760405162461bcd60e51b81526004016104d690613092565b6001600160a01b0384163b1561203a5760405163f23a6e6160e01b81526001600160a01b0385169063f23a6e61906124619089908990889088908890600401612f93565b602060405180830381600087803b15801561247b57600080fd5b505af19250505080156124ab575060408051601f3d908101601f191682019092526124a891810190612cac565b60015b6124b75761234c6135a3565b6001600160e01b0319811663f23a6e6160e01b14611a795760405162461bcd60e51b81526004016104d690613092565b828054828255906000526020600020908101928215612522579160200282015b82811115612522578251825591602001919060010190612507565b5061252e9291506125a5565b5090565b82805461253e906134ac565b90600052602060002090601f0160209004810192826125605760008555612522565b82601f1061257957805160ff1916838001178555612522565b828001600101855582156125225791820182811115612522578251825591602001919060010190612507565b5b8082111561252e57600081556001016125a6565b600082601f8301126125ca578081fd5b813560206125d7826132f6565b6040516125e48282613506565b8381528281019150858301600585901b87018401881015612603578586fd5b855b8581101561262157813584529284019290840190600101612605565b5090979650505050505050565b600082601f83011261263e578081fd5b81356001600160401b038111156126575761265761358d565b60405161266e601f8301601f191660200182613506565b818152846020838601011115612682578283fd5b816020850160208301379081016020019190915292915050565b6000602082840312156126ad578081fd5b81356126b881613644565b9392505050565b600080604083850312156126d1578081fd5b82356126dc81613644565b915060208301356126ec81613644565b809150509250929050565b600080600080600060a0868803121561270e578081fd5b853561271981613644565b9450602086013561272981613644565b935060408601356001600160401b0380821115612744578283fd5b61275089838a016125ba565b94506060880135915080821115612765578283fd5b61277189838a016125ba565b93506080880135915080821115612786578283fd5b506127938882890161262e565b9150509295509295909350565b600080600080600060a086880312156127b7578283fd5b85356127c281613644565b945060208601356127d281613644565b9350604086013592506060860135915060808601356001600160401b038111156127fa578182fd5b6127938882890161262e565b60008060408385031215612818578182fd5b823561282381613644565b915060208301356126ec81613659565b60008060408385031215612845578182fd5b823561285081613644565b946020939093013593505050565b60006020808385031215612870578182fd5b82516001600160401b03811115612885578283fd5b8301601f81018513612895578283fd5b80516128a0816132f6565b6040516128ad8282613506565b8281528481019150838501600584901b850186018910156128cc578687fd5b8694505b838510156128f75780516128e381613644565b8352600194909401939185019185016128d0565b50979650505050505050565b60008060408385031215612915578182fd5b82356001600160401b038082111561292b578384fd5b818501915085601f83011261293e578384fd5b8135602061294b826132f6565b6040516129588282613506565b8381528281019150858301600585901b870184018b1015612977578889fd5b8896505b848710156129a257803561298e81613644565b83526001969096019591830191830161297b565b50965050860135925050808211156129b8578283fd5b506129c5858286016125ba565b9150509250929050565b600060208083850312156129e1578182fd5b82356001600160401b03808211156129f7578384fd5b818501915085601f830112612a0a578384fd5b8135612a15816132f6565b604051612a228282613506565b8281528581019150848601600584901b860187018a1015612a41578788fd5b875b84811015612b4957813586811115612a5957898afd5b870160c0818d03601f19011215612a6e57898afd5b612a766132ce565b8982013588811115612a86578b8cfd5b612a948e8c8386010161262e565b825250604082013588811115612aa8578b8cfd5b612ab68e8c8386010161262e565b8b8301525060608083013589811115612acd578c8dfd5b612adb8f8d8387010161262e565b6040840152506080808401358284015260a0840135915089821115612afe578c8dfd5b612b0c8f8d848701016125ba565b908301525060c082013588811115612b22578b8cfd5b612b308e8c838601016125ba565b60a0830152508552509287019290870190600101612a43565b50909998505050505050505050565b60006020808385031215612b6a578182fd5b82356001600160401b0380821115612b80578384fd5b818501915085601f830112612b93578384fd5b8135612b9e816132f6565b60408051612bac8382613506565b8381528681019250858701600585901b870188018b1015612bcb578889fd5b885b85811015612c6457813587811115612be3578a8bfd5b88016060818e03601f19011215612bf8578a8bfd5b8451612c03816134e1565b8a82013589811115612c13578c8dfd5b612c218f8d838601016125ba565b8252508582013589811115612c34578c8dfd5b612c428f8d838601016125ba565b828d015250606091909101358582015285529388019390880190600101612bcd565b50909a9950505050505050505050565b600060208284031215612c85578081fd5b81516126b881613659565b600060208284031215612ca1578081fd5b81356126b881613667565b600060208284031215612cbd578081fd5b81516126b881613667565b60008060408385031215612cda578182fd5b50508035926020909101359150565b600060208284031215612cfa578081fd5b5035919050565b600060208284031215612d12578081fd5b5051919050565b6000815180845260208085019450808401835b83811015612d4857815187529582019590820190600101612d2c565b509495945050505050565b60008151808452815b81811015612d7857602081850181015186830182015201612d5c565b81811115612d895782602083870101525b50601f01601f19169290920160200192915050565b8054600090600181811c9080831680612db857607f831692505b6020808410821415612dd857634e487b7160e01b86526022600452602486fd5b818015612dec5760018114612dfd57612e2a565b60ff19861689528489019650612e2a565b60008881526020902060005b86811015612e225781548b820152908501908301612e09565b505084890196505b50505050505092915050565b783230ba309d3a32bc3a17b83630b4b7163d913730b6b2911d1160391b81526000612e646019830186612d9e565b701116113232b9b1b934b83a34b7b7111d1160791b8152612e886011820186612d9e565b90507f222c22696d616765223a22646174613a696d6167652f7376672b786d6c2c3c7381527f766720786d6c6e733d22687474703a2f2f7777772e77332e6f72672f3230303060208201527f2f737667222077696474683d2231303022206865696768743d22313030223e006040820152612f06605f820185612d9e565b673c2f7376673e227d60c01b81526008019695505050505050565b6001600160a01b0391909116815260200190565b6001600160a01b0386811682528516602082015260a060408201819052600090612f6190830186612d19565b8281036060840152612f738186612d19565b90508281036080840152612f878185612d53565b98975050505050505050565b6001600160a01b03868116825285166020820152604081018490526060810183905260a060808201819052600090612fcd90830184612d53565b979650505050505050565b6001600160a01b03929092168252602082015260400190565b6020808252825182820181905260009190848201906040850190845b818110156130325783516001600160a01b03168352928401929184019160010161300d565b50909695505050505050565b6020815260006126b86020830184612d19565b6040815260006130646040830185612d19565b82810360208401526130768185612d19565b95945050505050565b6020815260006126b86020830184612d53565b60208082526028908201527f455243313135353a204552433131353552656365697665722072656a656374656040820152676420746f6b656e7360c01b606082015260800190565b60208082526025908201527f455243313135353a207472616e7366657220746f20746865207a65726f206164604082015264647265737360d81b606082015260800190565b6020808252602a908201527f455243313135353a20696e73756666696369656e742062616c616e636520666f60408201526939103a3930b739b332b960b11b606082015260800190565b6020808252818101527f4f776e61626c653a2063616c6c6572206973206e6f7420746865206f776e6572604082015260600190565b602080825260129082015271125d195b481cdd185ad9481b9bdd081cd95d60721b604082015260600190565b828152604060208201526000825160c060408401526131ed610100840182612d53565b90506020840151603f198085840301606086015261320b8383612d53565b925060408601519150808584030160808601526132288383612d53565b9250606086015160a086015260808601519150808584030160c086015261324f8383612d19565b925060a08601519150808584030160e08601525061326d8282612d19565b9695505050505050565b82815260406020820152600082516060604084015261329960a0840182612d19565b90506020840151603f198483030160608501526132b68282612d19565b91505060408401516080840152809150509392505050565b60405160c081016001600160401b03811182821017156132f0576132f061358d565b60405290565b60006001600160401b0382111561330f5761330f61358d565b5060051b60200190565b600080821280156001600160ff1b038490038513161561333b5761333b613561565b600160ff1b839003841281161561335457613354613561565b50500190565b6000821982111561336d5761336d613561565b500190565b60008261338157613381613577565b600160ff1b82146000198414161561339b5761339b613561565b500590565b6000826133af576133af613577565b500490565b60006001600160ff1b03818413828413808216868404861116156133da576133da613561565b600160ff1b848712828116878305891216156133f8576133f8613561565b85871292508782058712848416161561341357613413613561565b8785058712818416161561342957613429613561565b505050929093029392505050565b600081600019048311821515161561345157613451613561565b500290565b60008083128015600160ff1b85018412161561347457613474613561565b6001600160ff1b038401831381161561348f5761348f613561565b50500390565b6000828210156134a7576134a7613561565b500390565b600181811c908216806134c057607f821691505b6020821081141561169d57634e487b7160e01b600052602260045260246000fd5b606081018181106001600160401b03821117156135005761350061358d565b60405250565b601f8201601f191681016001600160401b038111828210171561352b5761352b61358d565b6040525050565b600060001982141561354657613546613561565b5060010190565b60008261355c5761355c613577565b500690565b634e487b7160e01b600052601160045260246000fd5b634e487b7160e01b600052601260045260246000fd5b634e487b7160e01b600052604160045260246000fd5b600060033d11156135b857600481823e5160e01c5b90565b600060443d10156135c95790565b6040516003193d81016004833e81513d6001600160401b0381602484011181841117156135f857505050505090565b82850191508151818111156136105750505050505090565b843d870101602082850101111561362a5750505050505090565b61363960208286010187613506565b509095945050505050565b6001600160a01b0381168114610e3c57600080fd5b8015158114610e3c57600080fd5b6001600160e01b031981168114610e3c57600080fdfec3d58168c5ae7397731d063d5bbf3d657854427343f4c083240f7aacaa2d0f62a2646970667358221220a4d30333cc0bf7d4ca0ca4653c08ac76cf944c6937d8475b0f315726e0799b4d64736f6c63430008040033",
  "devdoc": {
    "kind": "dev",
    "methods": {
      "balanceOf(address,uint256)": {
        "details": "Returns the amount of tokens of token type `id` owned by `account`. Requirements: - `account` cannot be the zero address."
      },
      "balanceOfBatch(address[],uint256[])": {
        "details": "xref:ROOT:erc1155.adoc#batch-operations[Batched] version of {balanceOf}. Requirements: - `accounts` and `ids` must have the same length."
      },
      "getBorrowerAddresses()": {
        "details": "Get all the addresses the user vouched for",
        "returns": {
          "_0": "List of ddresses the user vouched for"
        }
      },
      "getStakerBalance()": {
        "details": "Get user's staking amount",
        "returns": {
          "_0": "Staking amount (in wei)"
        }
      },
      "isApprovedForAll(address,address)": {
        "details": "Returns true if `operator` is approved to transfer ``account``'s tokens. See {setApprovalForAll}."
      },
      "isMember()": {
        "details": "Return member's status",
        "returns": {
          "_0": "Member's status"
        }
      },
      "owner()": {
        "details": "Returns the address of the current owner."
      },
      "renounceOwnership()": {
        "details": "Leaves the contract without owner. It will not be possible to call `onlyOwner` functions anymore. Can only be called by the current owner. NOTE: Renouncing ownership will leave the contract without an owner, thereby removing any functionality that is only available to the owner."
      },
      "safeBatchTransferFrom(address,address,uint256[],uint256[],bytes)": {
        "details": "xref:ROOT:erc1155.adoc#batch-operations[Batched] version of {safeTransferFrom}. Emits a {TransferBatch} event. Requirements: - `ids` and `amounts` must have the same length. - If `to` refers to a smart contract, it must implement {IERC1155Receiver-onERC1155BatchReceived} and return the acceptance magic value."
      },
      "safeTransferFrom(address,address,uint256,uint256,bytes)": {
        "details": "Transfers `amount` tokens of token type `id` from `from` to `to`. Emits a {TransferSingle} event. Requirements: - `to` cannot be the zero address. - If the caller is not `from`, it must be have been approved to spend ``from``'s tokens via {setApprovalForAll}. - `from` must have a balance of tokens of type `id` of at least `amount`. - If `to` refers to a smart contract, it must implement {IERC1155Receiver-onERC1155Received} and return the acceptance magic value."
      },
      "setApprovalForAll(address,bool)": {
        "details": "Grants or revokes permission to `operator` to transfer the caller's tokens, according to `approved`, Emits an {ApprovalForAll} event. Requirements: - `operator` cannot be the caller."
      },
      "supportsInterface(bytes4)": {
        "details": "See {IERC165-supportsInterface}."
      },
      "transferOwnership(address)": {
        "details": "Transfers ownership of the contract to a new account (`newOwner`). Can only be called by the current owner."
      },
      "uri(uint256)": {
        "details": "Returns the URI for token type `id`. If the `\\{id\\}` substring is present in the URI, it must be replaced by clients with the actual token type ID."
      }
    },
    "version": 1
  },
  "userdoc": {
    "kind": "user",
    "methods": {},
    "version": 1
  },
  "storageLayout": {
    "storage": [
      {
        "astId": 3928,
        "contract": "src/UnionQuest/UnionQuest.sol:UnionQuest",
        "label": "_owner",
        "offset": 0,
        "slot": "0",
        "type": "t_address"
      },
      {
        "astId": 13242,
        "contract": "src/UnionQuest/UnionQuest.sol:UnionQuest",
        "label": "itemTypes",
        "offset": 0,
        "slot": "1",
        "type": "t_array(t_struct(ItemType)13218_storage)dyn_storage"
      },
      {
        "astId": 13246,
        "contract": "src/UnionQuest/UnionQuest.sol:UnionQuest",
        "label": "recipes",
        "offset": 0,
        "slot": "2",
        "type": "t_array(t_struct(Recipe)13227_storage)dyn_storage"
      },
      {
        "astId": 13251,
        "contract": "src/UnionQuest/UnionQuest.sol:UnionQuest",
        "label": "players",
        "offset": 0,
        "slot": "3",
        "type": "t_mapping(t_address,t_struct(Player)13238_storage)"
      },
      {
        "astId": 13257,
        "contract": "src/UnionQuest/UnionQuest.sol:UnionQuest",
        "label": "skills",
        "offset": 0,
        "slot": "4",
        "type": "t_mapping(t_address,t_mapping(t_uint256,t_uint256))"
      },
      {
        "astId": 13263,
        "contract": "src/UnionQuest/UnionQuest.sol:UnionQuest",
        "label": "_balances",
        "offset": 0,
        "slot": "5",
        "type": "t_mapping(t_uint256,t_mapping(t_address,t_uint256))"
      },
      {
        "astId": 13269,
        "contract": "src/UnionQuest/UnionQuest.sol:UnionQuest",
        "label": "_operatorApprovals",
        "offset": 0,
        "slot": "6",
        "type": "t_mapping(t_address,t_mapping(t_address,t_bool))"
      }
    ],
    "types": {
      "t_address": {
        "encoding": "inplace",
        "label": "address",
        "numberOfBytes": "20"
      },
      "t_array(t_struct(ItemType)13218_storage)dyn_storage": {
        "base": "t_struct(ItemType)13218_storage",
        "encoding": "dynamic_array",
        "label": "struct UnionQuest.ItemType[]",
        "numberOfBytes": "32"
      },
      "t_array(t_struct(Recipe)13227_storage)dyn_storage": {
        "base": "t_struct(Recipe)13227_storage",
        "encoding": "dynamic_array",
        "label": "struct UnionQuest.Recipe[]",
        "numberOfBytes": "32"
      },
      "t_array(t_uint256)dyn_storage": {
        "base": "t_uint256",
        "encoding": "dynamic_array",
        "label": "uint256[]",
        "numberOfBytes": "32"
      },
      "t_bool": {
        "encoding": "inplace",
        "label": "bool",
        "numberOfBytes": "1"
      },
      "t_int256": {
        "encoding": "inplace",
        "label": "int256",
        "numberOfBytes": "32"
      },
      "t_mapping(t_address,t_bool)": {
        "encoding": "mapping",
        "key": "t_address",
        "label": "mapping(address => bool)",
        "numberOfBytes": "32",
        "value": "t_bool"
      },
      "t_mapping(t_address,t_mapping(t_address,t_bool))": {
        "encoding": "mapping",
        "key": "t_address",
        "label": "mapping(address => mapping(address => bool))",
        "numberOfBytes": "32",
        "value": "t_mapping(t_address,t_bool)"
      },
      "t_mapping(t_address,t_mapping(t_uint256,t_uint256))": {
        "encoding": "mapping",
        "key": "t_address",
        "label": "mapping(address => mapping(uint256 => uint256))",
        "numberOfBytes": "32",
        "value": "t_mapping(t_uint256,t_uint256)"
      },
      "t_mapping(t_address,t_struct(Player)13238_storage)": {
        "encoding": "mapping",
        "key": "t_address",
        "label": "mapping(address => struct UnionQuest.Player)",
        "numberOfBytes": "32",
        "value": "t_struct(Player)13238_storage"
      },
      "t_mapping(t_address,t_uint256)": {
        "encoding": "mapping",
        "key": "t_address",
        "label": "mapping(address => uint256)",
        "numberOfBytes": "32",
        "value": "t_uint256"
      },
      "t_mapping(t_uint256,t_mapping(t_address,t_uint256))": {
        "encoding": "mapping",
        "key": "t_uint256",
        "label": "mapping(uint256 => mapping(address => uint256))",
        "numberOfBytes": "32",
        "value": "t_mapping(t_address,t_uint256)"
      },
      "t_mapping(t_uint256,t_uint256)": {
        "encoding": "mapping",
        "key": "t_uint256",
        "label": "mapping(uint256 => uint256)",
        "numberOfBytes": "32",
        "value": "t_uint256"
      },
      "t_string_storage": {
        "encoding": "bytes",
        "label": "string",
        "numberOfBytes": "32"
      },
      "t_struct(ItemType)13218_storage": {
        "encoding": "inplace",
        "label": "struct UnionQuest.ItemType",
        "members": [
          {
            "astId": 13205,
            "contract": "src/UnionQuest/UnionQuest.sol:UnionQuest",
            "label": "name",
            "offset": 0,
            "slot": "0",
            "type": "t_string_storage"
          },
          {
            "astId": 13207,
            "contract": "src/UnionQuest/UnionQuest.sol:UnionQuest",
            "label": "description",
            "offset": 0,
            "slot": "1",
            "type": "t_string_storage"
          },
          {
            "astId": 13209,
            "contract": "src/UnionQuest/UnionQuest.sol:UnionQuest",
            "label": "image",
            "offset": 0,
            "slot": "2",
            "type": "t_string_storage"
          },
          {
            "astId": 13211,
            "contract": "src/UnionQuest/UnionQuest.sol:UnionQuest",
            "label": "stake",
            "offset": 0,
            "slot": "3",
            "type": "t_uint256"
          },
          {
            "astId": 13214,
            "contract": "src/UnionQuest/UnionQuest.sol:UnionQuest",
            "label": "toolIds",
            "offset": 0,
            "slot": "4",
            "type": "t_array(t_uint256)dyn_storage"
          },
          {
            "astId": 13217,
            "contract": "src/UnionQuest/UnionQuest.sol:UnionQuest",
            "label": "toolBonuses",
            "offset": 0,
            "slot": "5",
            "type": "t_array(t_uint256)dyn_storage"
          }
        ],
        "numberOfBytes": "192"
      },
      "t_struct(Player)13238_storage": {
        "encoding": "inplace",
        "label": "struct UnionQuest.Player",
        "members": [
          {
            "astId": 13229,
            "contract": "src/UnionQuest/UnionQuest.sol:UnionQuest",
            "label": "startX",
            "offset": 0,
            "slot": "0",
            "type": "t_int256"
          },
          {
            "astId": 13231,
            "contract": "src/UnionQuest/UnionQuest.sol:UnionQuest",
            "label": "startY",
            "offset": 0,
            "slot": "1",
            "type": "t_int256"
          },
          {
            "astId": 13233,
            "contract": "src/UnionQuest/UnionQuest.sol:UnionQuest",
            "label": "endX",
            "offset": 0,
            "slot": "2",
            "type": "t_int256"
          },
          {
            "astId": 13235,
            "contract": "src/UnionQuest/UnionQuest.sol:UnionQuest",
            "label": "endY",
            "offset": 0,
            "slot": "3",
            "type": "t_int256"
          },
          {
            "astId": 13237,
            "contract": "src/UnionQuest/UnionQuest.sol:UnionQuest",
            "label": "startTimestamp",
            "offset": 0,
            "slot": "4",
            "type": "t_uint256"
          }
        ],
        "numberOfBytes": "160"
      },
      "t_struct(Recipe)13227_storage": {
        "encoding": "inplace",
        "label": "struct UnionQuest.Recipe",
        "members": [
          {
            "astId": 13221,
            "contract": "src/UnionQuest/UnionQuest.sol:UnionQuest",
            "label": "inputIds",
            "offset": 0,
            "slot": "0",
            "type": "t_array(t_uint256)dyn_storage"
          },
          {
            "astId": 13224,
            "contract": "src/UnionQuest/UnionQuest.sol:UnionQuest",
            "label": "inputQuantities",
            "offset": 0,
            "slot": "1",
            "type": "t_array(t_uint256)dyn_storage"
          },
          {
            "astId": 13226,
            "contract": "src/UnionQuest/UnionQuest.sol:UnionQuest",
            "label": "output",
            "offset": 0,
            "slot": "2",
            "type": "t_uint256"
          }
        ],
        "numberOfBytes": "96"
      },
      "t_uint256": {
        "encoding": "inplace",
        "label": "uint256",
        "numberOfBytes": "32"
      }
    }
  }
}