{
  "address": "0x7FEF01ADEFc2Ce6597E98a4D6B1E0Cd30533356f",
  "abi": [
    {
      "anonymous": false,
      "inputs": [
        {
          "indexed": true,
          "internalType": "address",
          "name": "staker",
          "type": "address"
        },
        {
          "indexed": true,
          "internalType": "address",
          "name": "borrower",
          "type": "address"
        },
        {
          "indexed": false,
          "internalType": "uint256",
          "name": "trustAmount",
          "type": "uint256"
        }
      ],
      "name": "LogUpdateTrust",
      "type": "event"
    },
    {
      "inputs": [
        {
          "internalType": "uint256",
          "name": "amount",
          "type": "uint256"
        }
      ],
      "name": "stake",
      "outputs": [],
      "stateMutability": "nonpayable",
      "type": "function"
    },
    {
      "inputs": [
        {
          "internalType": "address",
          "name": "account",
          "type": "address"
        },
        {
          "internalType": "uint256",
          "name": "amount",
          "type": "uint256"
        }
      ],
      "name": "updateTrust",
      "outputs": [],
      "stateMutability": "nonpayable",
      "type": "function"
    }
  ],
  "transactionHash": "0x545e15ef5792fedae07411ed4609de64228c93be22249be71a308692fd036c54",
  "args": [],
  "numDeployments": 1,
  "solcInputHash": "ed08753924caaf985cafa62d05fe8ca3",
  "bytecode": "0x608060405234801561001057600080fd5b50610146806100206000396000f3fe608060405234801561001057600080fd5b50600436106100365760003560e01c806343fbb8f51461003b578063a694fc3a14610050575b600080fd5b61004e6100493660046100b2565b610061565b005b61004e61005e3660046100f7565b50565b60405181815273ffffffffffffffffffffffffffffffffffffffff83169033907f6726f80fa910f3db24051175cda8d3c2af86b536cc2b137c1dbbf83136fe7c5c9060200160405180910390a35050565b600080604083850312156100c557600080fd5b823573ffffffffffffffffffffffffffffffffffffffff811681146100e957600080fd5b946020939093013593505050565b60006020828403121561010957600080fd5b503591905056fea26469706673582212206c5a037524ce07220b638c03f010805e35f6b7adb03a270b8bf7b9138748cf3664736f6c63430008090033",
  "devdoc": {
    "kind": "dev",
    "methods": {
      "stake(uint256)": {
        "details": "Stake",
        "params": {
          "amount": "Amount"
        }
      }
    },
    "version": 1
  },
  "userdoc": {
    "kind": "user",
    "methods": {},
    "version": 1
  },
  "storageLayout": {
    "storage": [],
    "types": null
  }
}